{
  "_format": "hh-sol-artifact-1",
  "contractName": "Compound",
  "sourceName": "contracts/Compound.sol",
  "abi": [
    {
      "inputs": [
        {
          "internalType": "address",
          "name": "_comptroller",
          "type": "address"
        },
        {
          "internalType": "address",
          "name": "_cEthAddress",
          "type": "address"
        }
      ],
      "stateMutability": "nonpayable",
      "type": "constructor"
    },
    {
      "inputs": [],
      "name": "cEth",
      "outputs": [
        {
          "internalType": "contract CEthInterface",
          "name": "",
          "type": "address"
        }
      ],
      "stateMutability": "view",
      "type": "function"
    },
    {
      "inputs": [],
      "name": "comptroller",
      "outputs": [
        {
          "internalType": "contract ComptrollerInterface",
          "name": "",
          "type": "address"
        }
      ],
      "stateMutability": "view",
      "type": "function"
    },
    {
      "inputs": [
        {
          "internalType": "address",
          "name": "cTokenAddress",
          "type": "address"
        }
      ],
      "name": "getUnderlyingBalance",
      "outputs": [
        {
          "internalType": "uint256",
          "name": "",
          "type": "uint256"
        }
      ],
      "stateMutability": "nonpayable",
      "type": "function"
    },
    {
      "inputs": [],
      "name": "getUnderlyingEthBalance",
      "outputs": [
        {
          "internalType": "uint256",
          "name": "",
          "type": "uint256"
        }
      ],
      "stateMutability": "nonpayable",
      "type": "function"
    },
    {
      "inputs": [
        {
          "internalType": "address",
          "name": "cTokenAddress",
          "type": "address"
        }
      ],
      "name": "getcTokenBalance",
      "outputs": [
        {
          "internalType": "uint256",
          "name": "",
          "type": "uint256"
        }
      ],
      "stateMutability": "view",
      "type": "function"
    }
  ],
  "bytecode": "0x608060405234801561001057600080fd5b506040516106a93803806106a9833981810160405281019061003291906100cf565b816000806101000a81548173ffffffffffffffffffffffffffffffffffffffff021916908373ffffffffffffffffffffffffffffffffffffffff16021790555080600160006101000a81548173ffffffffffffffffffffffffffffffffffffffff021916908373ffffffffffffffffffffffffffffffffffffffff1602179055505050610154565b6000815190506100c98161013d565b92915050565b600080604083850312156100e257600080fd5b60006100f0858286016100ba565b9250506020610101858286016100ba565b9150509250929050565b60006101168261011d565b9050919050565b600073ffffffffffffffffffffffffffffffffffffffff82169050919050565b6101468161010b565b811461015157600080fd5b50565b610546806101636000396000f3fe608060405234801561001057600080fd5b50600436106100575760003560e01c80631031cb5f1461005c5780635fe3b5671461008c578063703d795c146100aa578063a44026a3146100c8578063f0d23e8f146100e6575b600080fd5b61007660048036038101906100719190610364565b610116565b6040516100839190610443565b60405180910390f35b6100946101a8565b6040516100a19190610428565b60405180910390f35b6100b26101cc565b6040516100bf9190610443565b60405180910390f35b6100d0610280565b6040516100dd919061040d565b60405180910390f35b61010060048036038101906100fb9190610364565b6102a6565b60405161010d9190610443565b60405180910390f35b60008173ffffffffffffffffffffffffffffffffffffffff166370a08231306040518263ffffffff1660e01b815260040161015191906103f2565b60206040518083038186803b15801561016957600080fd5b505afa15801561017d573d6000803e3d6000fd5b505050506040513d601f19601f820116820180604052508101906101a1919061038d565b9050919050565b60008054906101000a900473ffffffffffffffffffffffffffffffffffffffff1681565b6000600160009054906101000a900473ffffffffffffffffffffffffffffffffffffffff1673ffffffffffffffffffffffffffffffffffffffff16633af9e669306040518263ffffffff1660e01b815260040161022991906103f2565b602060405180830381600087803b15801561024357600080fd5b505af1158015610257573d6000803e3d6000fd5b505050506040513d601f19601f8201168201806040525081019061027b919061038d565b905090565b600160009054906101000a900473ffffffffffffffffffffffffffffffffffffffff1681565b60008173ffffffffffffffffffffffffffffffffffffffff16633af9e669306040518263ffffffff1660e01b81526004016102e191906103f2565b602060405180830381600087803b1580156102fb57600080fd5b505af115801561030f573d6000803e3d6000fd5b505050506040513d601f19601f82011682018060405250810190610333919061038d565b9050919050565b600081359050610349816104e2565b92915050565b60008151905061035e816104f9565b92915050565b60006020828403121561037657600080fd5b60006103848482850161033a565b91505092915050565b60006020828403121561039f57600080fd5b60006103ad8482850161034f565b91505092915050565b6103bf8161045e565b82525050565b6103ce8161049a565b82525050565b6103dd816104be565b82525050565b6103ec81610490565b82525050565b600060208201905061040760008301846103b6565b92915050565b600060208201905061042260008301846103c5565b92915050565b600060208201905061043d60008301846103d4565b92915050565b600060208201905061045860008301846103e3565b92915050565b600061046982610470565b9050919050565b600073ffffffffffffffffffffffffffffffffffffffff82169050919050565b6000819050919050565b60006104a5826104ac565b9050919050565b60006104b782610470565b9050919050565b60006104c9826104d0565b9050919050565b60006104db82610470565b9050919050565b6104eb8161045e565b81146104f657600080fd5b50565b61050281610490565b811461050d57600080fd5b5056fea26469706673582212202cce7262cc5c0712baf25d150270eda708859558c7e33c4d8d96f96a0daa7f3f64736f6c63430008000033",
  "linkReferences": {},
  "deployedLinkReferences": {}
}