{
  "contractName": "Compound",
  "abi": [
    {
      "inputs": [
        {
          "internalType": "address",
          "name": "_comptroller",
          "type": "address"
        },
        {
          "internalType": "address",
          "name": "_cEthAddress",
          "type": "address"
        }
      ],
      "stateMutability": "nonpayable",
      "type": "constructor"
    },
    {
      "inputs": [],
      "name": "cEth",
      "outputs": [
        {
          "internalType": "contract CEthInterface",
          "name": "",
          "type": "address"
        }
      ],
      "stateMutability": "view",
      "type": "function"
    },
    {
      "inputs": [],
      "name": "comptroller",
      "outputs": [
        {
          "internalType": "contract ComptrollerInterface",
          "name": "",
          "type": "address"
        }
      ],
      "stateMutability": "view",
      "type": "function"
    },
    {
      "inputs": [
        {
          "internalType": "address",
          "name": "cTokenAddress",
          "type": "address"
        }
      ],
      "name": "getcTokenBalance",
      "outputs": [
        {
          "internalType": "uint256",
          "name": "",
          "type": "uint256"
        }
      ],
      "stateMutability": "view",
      "type": "function"
    },
    {
      "inputs": [
        {
          "internalType": "address",
          "name": "cTokenAddress",
          "type": "address"
        }
      ],
      "name": "getUnderlyingBalance",
      "outputs": [
        {
          "internalType": "uint256",
          "name": "",
          "type": "uint256"
        }
      ],
      "stateMutability": "nonpayable",
      "type": "function"
    },
    {
      "inputs": [],
      "name": "getUnderlyingEthBalance",
      "outputs": [
        {
          "internalType": "uint256",
          "name": "",
          "type": "uint256"
        }
      ],
      "stateMutability": "nonpayable",
      "type": "function"
    }
  ],
  "bytecode": "0x608060405234801561001057600080fd5b506040516106a93803806106a9833981810160405281019061003291906100cf565b816000806101000a81548173ffffffffffffffffffffffffffffffffffffffff021916908373ffffffffffffffffffffffffffffffffffffffff16021790555080600160006101000a81548173ffffffffffffffffffffffffffffffffffffffff021916908373ffffffffffffffffffffffffffffffffffffffff1602179055505050610154565b6000815190506100c98161013d565b92915050565b600080604083850312156100e257600080fd5b60006100f0858286016100ba565b9250506020610101858286016100ba565b9150509250929050565b60006101168261011d565b9050919050565b600073ffffffffffffffffffffffffffffffffffffffff82169050919050565b6101468161010b565b811461015157600080fd5b50565b610546806101636000396000f3fe608060405234801561001057600080fd5b50600436106100575760003560e01c80631031cb5f1461005c5780635fe3b5671461008c578063703d795c146100aa578063a44026a3146100c8578063f0d23e8f146100e6575b600080fd5b61007660048036038101906100719190610364565b610116565b6040516100839190610443565b60405180910390f35b6100946101a8565b6040516100a19190610428565b60405180910390f35b6100b26101cc565b6040516100bf9190610443565b60405180910390f35b6100d0610280565b6040516100dd919061040d565b60405180910390f35b61010060048036038101906100fb9190610364565b6102a6565b60405161010d9190610443565b60405180910390f35b60008173ffffffffffffffffffffffffffffffffffffffff166370a08231306040518263ffffffff1660e01b815260040161015191906103f2565b60206040518083038186803b15801561016957600080fd5b505afa15801561017d573d6000803e3d6000fd5b505050506040513d601f19601f820116820180604052508101906101a1919061038d565b9050919050565b60008054906101000a900473ffffffffffffffffffffffffffffffffffffffff1681565b6000600160009054906101000a900473ffffffffffffffffffffffffffffffffffffffff1673ffffffffffffffffffffffffffffffffffffffff16633af9e669306040518263ffffffff1660e01b815260040161022991906103f2565b602060405180830381600087803b15801561024357600080fd5b505af1158015610257573d6000803e3d6000fd5b505050506040513d601f19601f8201168201806040525081019061027b919061038d565b905090565b600160009054906101000a900473ffffffffffffffffffffffffffffffffffffffff1681565b60008173ffffffffffffffffffffffffffffffffffffffff16633af9e669306040518263ffffffff1660e01b81526004016102e191906103f2565b602060405180830381600087803b1580156102fb57600080fd5b505af115801561030f573d6000803e3d6000fd5b505050506040513d601f19601f82011682018060405250810190610333919061038d565b9050919050565b600081359050610349816104e2565b92915050565b60008151905061035e816104f9565b92915050565b60006020828403121561037657600080fd5b60006103848482850161033a565b91505092915050565b60006020828403121561039f57600080fd5b60006103ad8482850161034f565b91505092915050565b6103bf8161045e565b82525050565b6103ce8161049a565b82525050565b6103dd816104be565b82525050565b6103ec81610490565b82525050565b600060208201905061040760008301846103b6565b92915050565b600060208201905061042260008301846103c5565b92915050565b600060208201905061043d60008301846103d4565b92915050565b600060208201905061045860008301846103e3565b92915050565b600061046982610470565b9050919050565b600073ffffffffffffffffffffffffffffffffffffffff82169050919050565b6000819050919050565b60006104a5826104ac565b9050919050565b60006104b782610470565b9050919050565b60006104c9826104d0565b9050919050565b60006104db82610470565b9050919050565b6104eb8161045e565b81146104f657600080fd5b50565b61050281610490565b811461050d57600080fd5b5056fea26469706673582212205a00eec1cec2534285b4e30da685c1da294dbc2fb8fe3fbf0adb30fafd3c6f5b64736f6c63430008000033",
  "immutableReferences": {},
  "source": "pragma solidity ^0.8.0;\n\nimport '@openzeppelin/contracts/token/ERC20/IERC20.sol';\n//import 'https://github.com/OpenZeppelin/openzeppelin-contracts/blob/release-v4.1/contracts/token/ERC20/IERC20.sol';\n\nimport './CTokenInterface.sol';\nimport './CEthInterface.sol';\nimport './ComptrollerInterface.sol';\n\ncontract Compound {\n  ComptrollerInterface public comptroller;\n  CEthInterface public cEth;\n\n  constructor(\n    address _comptroller,\n    address _cEthAddress\n  ) {\n    comptroller = ComptrollerInterface(_comptroller);\n    cEth = CEthInterface(_cEthAddress);\n  }\n\n  function supply(address cTokenAddress, uint underlyingAmount) internal {\n    CTokenInterface cToken = CTokenInterface(cTokenAddress);\n    address underlyingAddress = cToken.underlying();\n    IERC20(underlyingAddress).approve(cTokenAddress, underlyingAmount);\n    uint result = cToken.mint(underlyingAmount);\n    require(\n      result == 0,\n      'cToken#mint() failed. see Compound ErrorReporter.sol for details'\n    );\n  }\n\n  function supplyEth(uint underlyingAmount) internal {\n    cEth.mint{value: underlyingAmount}();\n  }\n\n  function redeem(address cTokenAddress, uint underlyingAmount) internal {\n    CTokenInterface cToken = CTokenInterface(cTokenAddress);\n    uint result = cToken.redeemUnderlying(underlyingAmount);\n    require(\n      result == 0,\n      'cToken#redeemUnderlying() failed. see Compound ErrorReporter.sol for more details'\n    );\n  }\n\n  function redeemEth(uint underlyingAmount) internal {\n    uint result = cEth.redeemUnderlying(underlyingAmount);\n    require(\n      result == 0,\n      'cEth#redeemUnderlying() failed. see Compound ErrorReporter.sol for more details'\n    );\n  }\n\n  function claimComp() internal {\n    comptroller.claimComp(address(this));\n  }\n\n  function getCompAddress() internal view returns(address) {\n    return comptroller.getCompAddress();\n  }\n\n  function getUnderlyingAddress(\n    address cTokenAddress\n  )\n    internal\n    view\n    returns(address)\n  {\n    return CTokenInterface(cTokenAddress).underlying();\n  }\n\n  function getcTokenBalance(address cTokenAddress) public view returns(uint){\n    return CTokenInterface(cTokenAddress).balanceOf(address(this));\n  }\n\n  function getUnderlyingBalance(address cTokenAddress) public returns(uint){\n    return CTokenInterface(cTokenAddress).balanceOfUnderlying(address(this));\n  }\n\n  function getUnderlyingEthBalance() public returns(uint){\n    return cEth.balanceOfUnderlying(address(this));\n  }\n}\n",
  "sourcePath": "/Users/jcooper/py/crypto/consensys/blockchain-developer-bootcamp-final-project/eth/contracts/Compound.sol",
  "compiler": {
    "name": "solc",
    "version": "0.8.0+commit.c7dfd78e.Emscripten.clang"
  },
  "schemaVersion": "3.4.3",
  "updatedAt": "2021-11-29T15:12:11.869Z",
  "devdoc": {
    "kind": "dev",
    "methods": {},
    "version": 1
  },
  "userdoc": {
    "kind": "user",
    "methods": {},
    "version": 1
  }
}