{
  "contractName": "DaoPayTreasury",
  "abi": [
    {
      "inputs": [
        {
          "internalType": "uint256",
          "name": "_supplyDaoToken",
          "type": "uint256"
        }
      ],
      "stateMutability": "nonpayable",
      "type": "constructor"
    },
    {
      "inputs": [],
      "name": "daoToken",
      "outputs": [
        {
          "internalType": "contract DAOToken",
          "name": "",
          "type": "address"
        }
      ],
      "stateMutability": "view",
      "type": "function"
    },
    {
      "inputs": [
        {
          "internalType": "uint256",
          "name": "",
          "type": "uint256"
        }
      ],
      "name": "listDaoWorkstreamNames",
      "outputs": [
        {
          "internalType": "string",
          "name": "",
          "type": "string"
        }
      ],
      "stateMutability": "view",
      "type": "function"
    },
    {
      "inputs": [
        {
          "internalType": "uint256",
          "name": "",
          "type": "uint256"
        }
      ],
      "name": "listDaoWorkstreams",
      "outputs": [
        {
          "internalType": "address",
          "name": "",
          "type": "address"
        }
      ],
      "stateMutability": "view",
      "type": "function"
    },
    {
      "inputs": [],
      "name": "owner",
      "outputs": [
        {
          "internalType": "address",
          "name": "",
          "type": "address"
        }
      ],
      "stateMutability": "view",
      "type": "function"
    },
    {
      "inputs": [],
      "name": "supplyDaoToken",
      "outputs": [
        {
          "internalType": "uint256",
          "name": "",
          "type": "uint256"
        }
      ],
      "stateMutability": "view",
      "type": "function"
    },
    {
      "inputs": [
        {
          "internalType": "string",
          "name": "_workstreamName",
          "type": "string"
        },
        {
          "internalType": "address",
          "name": "_workstreamOwner",
          "type": "address"
        }
      ],
      "name": "createDaoWorkstream",
      "outputs": [
        {
          "internalType": "address",
          "name": "",
          "type": "address"
        }
      ],
      "stateMutability": "nonpayable",
      "type": "function"
    },
    {
      "inputs": [],
      "name": "getDaoWorkstreams",
      "outputs": [
        {
          "internalType": "address[]",
          "name": "",
          "type": "address[]"
        }
      ],
      "stateMutability": "view",
      "type": "function"
    },
    {
      "inputs": [],
      "name": "getDaoWorkstreamNames",
      "outputs": [
        {
          "internalType": "string[]",
          "name": "",
          "type": "string[]"
        }
      ],
      "stateMutability": "view",
      "type": "function"
    },
    {
      "inputs": [],
      "name": "getDaoToken",
      "outputs": [
        {
          "internalType": "address",
          "name": "",
          "type": "address"
        }
      ],
      "stateMutability": "view",
      "type": "function"
    },
    {
      "inputs": [
        {
          "internalType": "address payable",
          "name": "to",
          "type": "address"
        },
        {
          "internalType": "uint256",
          "name": "amount",
          "type": "uint256"
        }
      ],
      "name": "payContributor",
      "outputs": [],
      "stateMutability": "payable",
      "type": "function"
    }
  ],
  "bytecode": "0x60806040523480156200001157600080fd5b5060405162004b0538038062004b058339818101604052810190620000379190620001cb565b336000806101000a81548173ffffffffffffffffffffffffffffffffffffffff021916908373ffffffffffffffffffffffffffffffffffffffff160217905550806001819055506040516200008c90620001a6565b604051809103906000f080158015620000a9573d6000803e3d6000fd5b50600260006101000a81548173ffffffffffffffffffffffffffffffffffffffff021916908373ffffffffffffffffffffffffffffffffffffffff160217905550600260009054906101000a900473ffffffffffffffffffffffffffffffffffffffff1673ffffffffffffffffffffffffffffffffffffffff166340c10f1960008054906101000a900473ffffffffffffffffffffffffffffffffffffffff166001546040518363ffffffff1660e01b81526004016200016b92919062000219565b600060405180830381600087803b1580156200018657600080fd5b505af11580156200019b573d6000803e3d6000fd5b50505050506200029e565b6118cd806200323883390190565b600081519050620001c58162000284565b92915050565b600060208284031215620001de57600080fd5b6000620001ee84828501620001b4565b91505092915050565b620002028162000246565b82525050565b62000213816200027a565b82525050565b6000604082019050620002306000830185620001f7565b6200023f602083018462000208565b9392505050565b600062000253826200025a565b9050919050565b600073ffffffffffffffffffffffffffffffffffffffff82169050919050565b6000819050919050565b6200028f816200027a565b81146200029b57600080fd5b50565b612f8a80620002ae6000396000f3fe6080604052600436106200009e5760003560e01c80638da5cb5b11620000615780638da5cb5b14620001bb578063a024e13714620001eb578063aace9689146200021b578063f80817ef146200025f578063ff468aa9146200028f576200009e565b80634914b03014620000a35780634c60220714620000d35780635dc26cb114620001175780635e31d9cd146200015b5780636c8c3499146200018b575b600080fd5b348015620000b057600080fd5b50620000bb620002af565b604051620000ca919062000c76565b60405180910390f35b348015620000e057600080fd5b50620000ff6004803603810190620000f99190620009b1565b620002d5565b6040516200010e919062000c93565b60405180910390f35b3480156200012457600080fd5b506200014360048036038101906200013d9190620009b1565b6200038a565b60405162000152919062000c11565b60405180910390f35b3480156200016857600080fd5b5062000173620003ca565b60405162000182919062000d2d565b60405180910390f35b3480156200019857600080fd5b50620001a3620003d0565b604051620001b2919062000c11565b60405180910390f35b348015620001c857600080fd5b50620001d3620003fa565b604051620001e2919062000c11565b60405180910390f35b348015620001f857600080fd5b50620002036200041e565b60405162000212919062000c2e565b60405180910390f35b3480156200022857600080fd5b5062000247600480360381019062000241919062000957565b620004ae565b60405162000256919062000c11565b60405180910390f35b3480156200026c57600080fd5b506200027762000672565b60405162000286919062000c52565b60405180910390f35b620002ad6004803603810190620002a7919062000916565b62000755565b005b600260009054906101000a900473ffffffffffffffffffffffffffffffffffffffff1681565b60048181548110620002e657600080fd5b906000526020600020016000915090508054620003039062000f0f565b80601f0160208091040260200160405190810160405280929190818152602001828054620003319062000f0f565b8015620003825780601f10620003565761010080835404028352916020019162000382565b820191906000526020600020905b8154815290600101906020018083116200036457829003601f168201915b505050505081565b600381815481106200039b57600080fd5b906000526020600020016000915054906101000a900473ffffffffffffffffffffffffffffffffffffffff1681565b60015481565b6000600260009054906101000a900473ffffffffffffffffffffffffffffffffffffffff16905090565b60008054906101000a900473ffffffffffffffffffffffffffffffffffffffff1681565b60606003805480602002602001604051908101604052809291908181526020018280548015620004a457602002820191906000526020600020905b8160009054906101000a900473ffffffffffffffffffffffffffffffffffffffff1673ffffffffffffffffffffffffffffffffffffffff168152602001906001019080831162000459575b5050505050905090565b60008060009054906101000a900473ffffffffffffffffffffffffffffffffffffffff1673ffffffffffffffffffffffffffffffffffffffff163373ffffffffffffffffffffffffffffffffffffffff161462000542576040517f08c379a0000000000000000000000000000000000000000000000000000000008152600401620005399062000d0b565b60405180910390fd5b60008360008054906101000a900473ffffffffffffffffffffffffffffffffffffffff1684600260009054906101000a900473ffffffffffffffffffffffffffffffffffffffff166040516200059890620007a1565b620005a7949392919062000cb7565b604051809103906000f080158015620005c4573d6000803e3d6000fd5b5090506003819080600181540180825580915050600190039060005260206000200160009091909190916101000a81548173ffffffffffffffffffffffffffffffffffffffff021916908373ffffffffffffffffffffffffffffffffffffffff16021790555060048490806001815401808255809150506001900390600052602060002001600090919091909150908051906020019062000667929190620007af565b508091505092915050565b60606004805480602002602001604051908101604052809291908181526020016000905b828210156200074c578382906000526020600020018054620006b89062000f0f565b80601f0160208091040260200160405190810160405280929190818152602001828054620006e69062000f0f565b8015620007375780601f106200070b5761010080835404028352916020019162000737565b820191906000526020600020905b8154815290600101906020018083116200071957829003601f168201915b50505050508152602001906001019062000696565b50505050905090565b8173ffffffffffffffffffffffffffffffffffffffff166108fc829081150290604051600060405180830381858888f193505050501580156200079c573d6000803e3d6000fd5b505050565b611f52806200100383390190565b828054620007bd9062000f0f565b90600052602060002090601f016020900481019282620007e157600085556200082d565b82601f10620007fc57805160ff19168380011785556200082d565b828001600101855582156200082d579182015b828111156200082c5782518255916020019190600101906200080f565b5b5090506200083c919062000840565b5090565b5b808211156200085b57600081600090555060010162000841565b5090565b600062000876620008708462000d7e565b62000d4a565b9050828152602081018484840111156200088f57600080fd5b6200089c84828562000eca565b509392505050565b600081359050620008b58162000fb4565b92915050565b600081359050620008cc8162000fce565b92915050565b600082601f830112620008e457600080fd5b8135620008f68482602086016200085f565b91505092915050565b600081359050620009108162000fe8565b92915050565b600080604083850312156200092a57600080fd5b60006200093a85828601620008bb565b92505060206200094d85828601620008ff565b9150509250929050565b600080604083850312156200096b57600080fd5b600083013567ffffffffffffffff8111156200098657600080fd5b6200099485828601620008d2565b9250506020620009a785828601620008a4565b9150509250929050565b600060208284031215620009c457600080fd5b6000620009d484828501620008ff565b91505092915050565b6000620009eb838362000a1e565b60208301905092915050565b600062000a05838362000b3c565b905092915050565b62000a188162000e64565b82525050565b62000a298162000e50565b82525050565b62000a3a8162000e50565b82525050565b600062000a4d8262000dd1565b62000a59818562000e0c565b935062000a668362000db1565b8060005b8381101562000a9d57815162000a818882620009dd565b975062000a8e8362000df2565b92505060018101905062000a6a565b5085935050505092915050565b600062000ab78262000ddc565b62000ac3818562000e1d565b93508360208202850162000ad78562000dc1565b8060005b8581101562000b19578484038952815162000af78582620009f7565b945062000b048362000dff565b925060208a0199505060018101905062000adb565b50829750879550505050505092915050565b62000b368162000ea2565b82525050565b600062000b498262000de7565b62000b55818562000e2e565b935062000b6781856020860162000ed9565b62000b728162000fa3565b840191505092915050565b600062000b8a8262000de7565b62000b96818562000e3f565b935062000ba881856020860162000ed9565b62000bb38162000fa3565b840191505092915050565b600062000bcd600a8362000e3f565b91507f6f6e6c792061646d696e000000000000000000000000000000000000000000006000830152602082019050919050565b62000c0b8162000e98565b82525050565b600060208201905062000c28600083018462000a2f565b92915050565b6000602082019050818103600083015262000c4a818462000a40565b905092915050565b6000602082019050818103600083015262000c6e818462000aaa565b905092915050565b600060208201905062000c8d600083018462000b2b565b92915050565b6000602082019050818103600083015262000caf818462000b7d565b905092915050565b6000608082019050818103600083015262000cd3818762000b7d565b905062000ce4602083018662000a2f565b62000cf3604083018562000a2f565b62000d02606083018462000a0d565b95945050505050565b6000602082019050818103600083015262000d268162000bbe565b9050919050565b600060208201905062000d44600083018462000c00565b92915050565b6000604051905081810181811067ffffffffffffffff8211171562000d745762000d7362000f74565b5b8060405250919050565b600067ffffffffffffffff82111562000d9c5762000d9b62000f74565b5b601f19601f8301169050602081019050919050565b6000819050602082019050919050565b6000819050602082019050919050565b600081519050919050565b600081519050919050565b600081519050919050565b6000602082019050919050565b6000602082019050919050565b600082825260208201905092915050565b600082825260208201905092915050565b600082825260208201905092915050565b600082825260208201905092915050565b600062000e5d8262000e78565b9050919050565b600062000e718262000e78565b9050919050565b600073ffffffffffffffffffffffffffffffffffffffff82169050919050565b6000819050919050565b600062000eaf8262000eb6565b9050919050565b600062000ec38262000e78565b9050919050565b82818337600083830152505050565b60005b8381101562000ef957808201518184015260208101905062000edc565b8381111562000f09576000848401525b50505050565b6000600282049050600182168062000f2857607f821691505b6020821081141562000f3f5762000f3e62000f45565b5b50919050565b7f4e487b7100000000000000000000000000000000000000000000000000000000600052602260045260246000fd5b7f4e487b7100000000000000000000000000000000000000000000000000000000600052604160045260246000fd5b6000601f19601f8301169050919050565b62000fbf8162000e50565b811462000fcb57600080fd5b50565b62000fd98162000e64565b811462000fe557600080fd5b50565b62000ff38162000e98565b811462000fff57600080fd5b5056fe60806040523480156200001157600080fd5b5060405162001f5238038062001f5283398181016040528101906200003791906200026c565b82600160006101000a81548173ffffffffffffffffffffffffffffffffffffffff021916908373ffffffffffffffffffffffffffffffffffffffff1602179055508360029080519060200190620000909291906200011c565b5080600360006101000a81548173ffffffffffffffffffffffffffffffffffffffff021916908373ffffffffffffffffffffffffffffffffffffffff160217905550816000806101000a81548173ffffffffffffffffffffffffffffffffffffffff021916908373ffffffffffffffffffffffffffffffffffffffff160217905550505050506200049e565b8280546200012a90620003d6565b90600052602060002090601f0160209004810192826200014e57600085556200019a565b82601f106200016957805160ff19168380011785556200019a565b828001600101855582156200019a579182015b82811115620001995782518255916020019190600101906200017c565b5b509050620001a99190620001ad565b5090565b5b80821115620001c8576000816000905550600101620001ae565b5090565b6000620001e3620001dd8462000325565b620002f1565b905082815260208101848484011115620001fc57600080fd5b62000209848285620003a0565b509392505050565b60008151905062000222816200046a565b92915050565b600081519050620002398162000484565b92915050565b600082601f8301126200025157600080fd5b815162000263848260208601620001cc565b91505092915050565b600080600080608085870312156200028357600080fd5b600085015167ffffffffffffffff8111156200029e57600080fd5b620002ac878288016200023f565b9450506020620002bf8782880162000211565b9350506040620002d28782880162000211565b9250506060620002e58782880162000228565b91505092959194509250565b6000604051905081810181811067ffffffffffffffff821117156200031b576200031a6200043b565b5b8060405250919050565b600067ffffffffffffffff8211156200034357620003426200043b565b5b601f19601f8301169050602081019050919050565b6000620003658262000380565b9050919050565b6000620003798262000380565b9050919050565b600073ffffffffffffffffffffffffffffffffffffffff82169050919050565b60005b83811015620003c0578082015181840152602081019050620003a3565b83811115620003d0576000848401525b50505050565b60006002820490506001821680620003ef57607f821691505b602082108114156200040657620004056200040c565b5b50919050565b7f4e487b7100000000000000000000000000000000000000000000000000000000600052602260045260246000fd5b7f4e487b7100000000000000000000000000000000000000000000000000000000600052604160045260246000fd5b620004758162000358565b81146200048157600080fd5b50565b6200048f816200036c565b81146200049b57600080fd5b50565b611aa480620004ae6000396000f3fe6080604052600436106100fe5760003560e01c806381d12c5811610095578063c11c4cfc11610064578063c11c4cfc1461031f578063c58343ef1461034a578063d7d1bbdb1461038c578063dd71e3ac146103b5578063e0abba57146103d1576100fe565b806381d12c581461025e5780638a9cfd55146102a0578063ad7a672f146102c9578063b69ef8a8146102f4576100fe565b80634914b030116100d15780634914b030146101b457806353bf1de0146101df57806357b4d18e1461020a57806363d4dd3b14610235576100fe565b80632a881d6414610103578063319befc71461012e57806340059bd7146101595780634051ddac14610184575b600080fd5b34801561010f57600080fd5b506101186103fc565b604051610125919061155e565b60405180910390f35b34801561013a57600080fd5b50610143610426565b604051610150919061155e565b60405180910390f35b34801561016557600080fd5b5061016e61044f565b60405161017b91906115cb565b60405180910390f35b34801561019057600080fd5b506101996104dd565b6040516101ab969594939291906115ed565b60405180910390f35b3480156101c057600080fd5b506101c96105b9565b6040516101d69190611579565b60405180910390f35b3480156101eb57600080fd5b506101f46105df565b6040516102019190611695565b60405180910390f35b34801561021657600080fd5b5061021f6105ec565b60405161022c9190611695565b60405180910390f35b34801561024157600080fd5b5061025c60048036038101906102579190611408565b6105f2565b005b34801561026a57600080fd5b5061028560048036038101906102809190611408565b6108ae565b60405161029796959493929190611718565b60405180910390f35b3480156102ac57600080fd5b506102c760048036038101906102c291906113a1565b6109bc565b005b3480156102d557600080fd5b506102de610b46565b6040516102eb9190611695565b60405180910390f35b34801561030057600080fd5b50610309610b4c565b6040516103169190611695565b60405180910390f35b34801561032b57600080fd5b50610334610c20565b60405161034191906115cb565b60405180910390f35b34801561035657600080fd5b50610371600480360381019061036c9190611408565b610cb2565b604051610383969594939291906116b0565b60405180910390f35b34801561039857600080fd5b506103b360048036038101906103ae9190611408565b610f5e565b005b6103cf60048036038101906103ca919061133c565b61106f565b005b3480156103dd57600080fd5b506103e66111d7565b6040516103f39190611695565b60405180910390f35b6000600160009054906101000a900473ffffffffffffffffffffffffffffffffffffffff16905090565b60008060009054906101000a900473ffffffffffffffffffffffffffffffffffffffff16905090565b6002805461045c90611959565b80601f016020809104026020016040519081016040528092919081815260200182805461048890611959565b80156104d55780601f106104aa576101008083540402835291602001916104d5565b820191906000526020600020905b8154815290600101906020018083116104b857829003601f168201915b505050505081565b60606000806000806000600260008054906101000a900473ffffffffffffffffffffffffffffffffffffffff1660075460048054905060065460055485805461052590611959565b80601f016020809104026020016040519081016040528092919081815260200182805461055190611959565b801561059e5780601f106105735761010080835404028352916020019161059e565b820191906000526020600020905b81548152906001019060200180831161058157829003601f168201915b50505050509550955095509550955095509550909192939495565b600360009054906101000a900473ffffffffffffffffffffffffffffffffffffffff1681565b6000600480549050905090565b60065481565b600160009054906101000a900473ffffffffffffffffffffffffffffffffffffffff1673ffffffffffffffffffffffffffffffffffffffff163373ffffffffffffffffffffffffffffffffffffffff1614610682576040517f08c379a000000000000000000000000000000000000000000000000000000000815260040161067990611675565b60405180910390fd5b600481815481106106bc577f4e487b7100000000000000000000000000000000000000000000000000000000600052603260045260246000fd5b906000526020600020906004020160030160149054906101000a900460ff166001151581151514610722576040517f08c379a000000000000000000000000000000000000000000000000000000000815260040161071990611655565b60405180910390fd5b60016004838154811061075e577f4e487b7100000000000000000000000000000000000000000000000000000000600052603260045260246000fd5b906000526020600020906004020160030160156101000a81548160ff021916908315150217905550610846600483815481106107c3577f4e487b7100000000000000000000000000000000000000000000000000000000600052603260045260246000fd5b906000526020600020906004020160030160009054906101000a900473ffffffffffffffffffffffffffffffffffffffff166004848154811061082f577f4e487b7100000000000000000000000000000000000000000000000000000000600052603260045260246000fd5b90600052602060002090600402016002015461106f565b60048281548110610880577f4e487b7100000000000000000000000000000000000000000000000000000000600052603260045260246000fd5b906000526020600020906004020160020154600660008282546108a39190611853565b925050819055505050565b600481815481106108be57600080fd5b90600052602060002090600402016000915090508060000154908060010180546108e790611959565b80601f016020809104026020016040519081016040528092919081815260200182805461091390611959565b80156109605780601f1061093557610100808354040283529160200191610960565b820191906000526020600020905b81548152906001019060200180831161094357829003601f168201915b5050505050908060020154908060030160009054906101000a900473ffffffffffffffffffffffffffffffffffffffff16908060030160149054906101000a900460ff16908060030160159054906101000a900460ff16905086565b60006040518060c0016040528060048054905081526020018581526020018481526020018373ffffffffffffffffffffffffffffffffffffffff1681526020016000151581526020016000151581525090508260056000828254610a2091906117fd565b925050819055508260066000828254610a3991906117fd565b92505081905550600160076000828254610a5391906117fd565b925050819055506004819080600181540180825580915050600190039060005260206000209060040201600090919091909150600082015181600001556020820151816001019080519060200190610aac9291906111dd565b506040820151816002015560608201518160030160006101000a81548173ffffffffffffffffffffffffffffffffffffffff021916908373ffffffffffffffffffffffffffffffffffffffff16021790555060808201518160030160146101000a81548160ff02191690831515021790555060a08201518160030160156101000a81548160ff021916908315150217905550505050505050565b60055481565b6000600360009054906101000a900473ffffffffffffffffffffffffffffffffffffffff1673ffffffffffffffffffffffffffffffffffffffff166370a08231600160009054906101000a900473ffffffffffffffffffffffffffffffffffffffff166040518263ffffffff1660e01b8152600401610bcb919061155e565b60206040518083038186803b158015610be357600080fd5b505afa158015610bf7573d6000803e3d6000fd5b505050506040513d601f19601f82011682018060405250810190610c1b9190611431565b905090565b606060028054610c2f90611959565b80601f0160208091040260200160405190810160405280929190818152602001828054610c5b90611959565b8015610ca85780601f10610c7d57610100808354040283529160200191610ca8565b820191906000526020600020905b815481529060010190602001808311610c8b57829003601f168201915b5050505050905090565b6000606060008060008060048781548110610cf6577f4e487b7100000000000000000000000000000000000000000000000000000000600052603260045260246000fd5b90600052602060002090600402016000015460048881548110610d42577f4e487b7100000000000000000000000000000000000000000000000000000000600052603260045260246000fd5b906000526020600020906004020160010160048981548110610d8d577f4e487b7100000000000000000000000000000000000000000000000000000000600052603260045260246000fd5b906000526020600020906004020160030160009054906101000a900473ffffffffffffffffffffffffffffffffffffffff1660048a81548110610df9577f4e487b7100000000000000000000000000000000000000000000000000000000600052603260045260246000fd5b90600052602060002090600402016002015460048b81548110610e45577f4e487b7100000000000000000000000000000000000000000000000000000000600052603260045260246000fd5b906000526020600020906004020160030160149054906101000a900460ff1660048c81548110610e9e577f4e487b7100000000000000000000000000000000000000000000000000000000600052603260045260246000fd5b906000526020600020906004020160030160159054906101000a900460ff16848054610ec990611959565b80601f0160208091040260200160405190810160405280929190818152602001828054610ef590611959565b8015610f425780601f10610f1757610100808354040283529160200191610f42565b820191906000526020600020905b815481529060010190602001808311610f2557829003601f168201915b5050505050945095509550955095509550955091939550919395565b600160009054906101000a900473ffffffffffffffffffffffffffffffffffffffff1673ffffffffffffffffffffffffffffffffffffffff163373ffffffffffffffffffffffffffffffffffffffff1614610fee576040517f08c379a0000000000000000000000000000000000000000000000000000000008152600401610fe590611675565b60405180910390fd5b60016004828154811061102a577f4e487b7100000000000000000000000000000000000000000000000000000000600052603260045260246000fd5b906000526020600020906004020160030160146101000a81548160ff0219169083151502179055506001600760008282546110659190611853565b9250508190555050565b600160009054906101000a900473ffffffffffffffffffffffffffffffffffffffff1673ffffffffffffffffffffffffffffffffffffffff163373ffffffffffffffffffffffffffffffffffffffff16146110ff576040517f08c379a00000000000000000000000000000000000000000000000000000000081526004016110f690611675565b60405180910390fd5b600360009054906101000a900473ffffffffffffffffffffffffffffffffffffffff1673ffffffffffffffffffffffffffffffffffffffff166323b872dd600160009054906101000a900473ffffffffffffffffffffffffffffffffffffffff1684846040518463ffffffff1660e01b815260040161118093929190611594565b602060405180830381600087803b15801561119a57600080fd5b505af11580156111ae573d6000803e3d6000fd5b505050506040513d601f19601f820116820180604052508101906111d29190611378565b505050565b60075481565b8280546111e990611959565b90600052602060002090601f01602090048101928261120b5760008555611252565b82601f1061122457805160ff1916838001178555611252565b82800160010185558215611252579182015b82811115611251578251825591602001919060010190611236565b5b50905061125f9190611263565b5090565b5b8082111561127c576000816000905550600101611264565b5090565b600061129361128e846117b1565b611780565b9050828152602081018484840111156112ab57600080fd5b6112b6848285611917565b509392505050565b6000813590506112cd81611a29565b92915050565b6000815190506112e281611a40565b92915050565b600082601f8301126112f957600080fd5b8135611309848260208601611280565b91505092915050565b60008135905061132181611a57565b92915050565b60008151905061133681611a57565b92915050565b6000806040838503121561134f57600080fd5b600061135d858286016112be565b925050602061136e85828601611312565b9150509250929050565b60006020828403121561138a57600080fd5b6000611398848285016112d3565b91505092915050565b6000806000606084860312156113b657600080fd5b600084013567ffffffffffffffff8111156113d057600080fd5b6113dc868287016112e8565b93505060206113ed86828701611312565b92505060406113fe868287016112be565b9150509250925092565b60006020828403121561141a57600080fd5b600061142884828501611312565b91505092915050565b60006020828403121561144357600080fd5b600061145184828501611327565b91505092915050565b611463816118e1565b82525050565b61147281611899565b82525050565b61148181611887565b82525050565b611490816118ab565b82525050565b60006114a1826117e1565b6114ab81856117ec565b93506114bb818560208601611926565b6114c481611a18565b840191505092915050565b60006114dc600c836117ec565b91507f4e4f5420617070726f76656400000000000000000000000000000000000000006000830152602082019050919050565b600061151c600e836117ec565b91507f6f6e6c792064616f206f776e65720000000000000000000000000000000000006000830152602082019050919050565b611558816118d7565b82525050565b60006020820190506115736000830184611478565b92915050565b600060208201905061158e6000830184611469565b92915050565b60006060820190506115a96000830186611478565b6115b6602083018561145a565b6115c3604083018461154f565b949350505050565b600060208201905081810360008301526115e58184611496565b905092915050565b600060c08201905081810360008301526116078189611496565b90506116166020830188611478565b611623604083018761154f565b611630606083018661154f565b61163d608083018561154f565b61164a60a083018461154f565b979650505050505050565b6000602082019050818103600083015261166e816114cf565b9050919050565b6000602082019050818103600083015261168e8161150f565b9050919050565b60006020820190506116aa600083018461154f565b92915050565b600060c0820190506116c5600083018961154f565b81810360208301526116d78188611496565b90506116e66040830187611478565b6116f3606083018661154f565b6117006080830185611487565b61170d60a0830184611487565b979650505050505050565b600060c08201905061172d600083018961154f565b818103602083015261173f8188611496565b905061174e604083018761154f565b61175b6060830186611469565b6117686080830185611487565b61177560a0830184611487565b979650505050505050565b6000604051905081810181811067ffffffffffffffff821117156117a7576117a66119e9565b5b8060405250919050565b600067ffffffffffffffff8211156117cc576117cb6119e9565b5b601f19601f8301169050602081019050919050565b600081519050919050565b600082825260208201905092915050565b6000611808826118d7565b9150611813836118d7565b9250827fffffffffffffffffffffffffffffffffffffffffffffffffffffffffffffffff038211156118485761184761198b565b5b828201905092915050565b600061185e826118d7565b9150611869836118d7565b92508282101561187c5761187b61198b565b5b828203905092915050565b6000611892826118b7565b9050919050565b60006118a4826118b7565b9050919050565b60008115159050919050565b600073ffffffffffffffffffffffffffffffffffffffff82169050919050565b6000819050919050565b60006118ec826118f3565b9050919050565b60006118fe82611905565b9050919050565b6000611910826118b7565b9050919050565b82818337600083830152505050565b60005b83811015611944578082015181840152602081019050611929565b83811115611953576000848401525b50505050565b6000600282049050600182168061197157607f821691505b60208210811415611985576119846119ba565b5b50919050565b7f4e487b7100000000000000000000000000000000000000000000000000000000600052601160045260246000fd5b7f4e487b7100000000000000000000000000000000000000000000000000000000600052602260045260246000fd5b7f4e487b7100000000000000000000000000000000000000000000000000000000600052604160045260246000fd5b6000601f19601f8301169050919050565b611a3281611899565b8114611a3d57600080fd5b50565b611a49816118ab565b8114611a5457600080fd5b50565b611a60816118d7565b8114611a6b57600080fd5b5056fea2646970667358221220c070dba7c077df303c25e713b2bf877417d5c572f3c2dc2642843dd8b1c3d34c64736f6c63430008000033a26469706673582212209fd563a69496284e778ee268a61205432c9ea1afc84d536224e8de529a7d7e1664736f6c6343000800003360806040523480156200001157600080fd5b506040518060400160405280600981526020017f44414f20546f6b656e00000000000000000000000000000000000000000000008152506040518060400160405280600481526020017f44414f5400000000000000000000000000000000000000000000000000000000815250816003908051906020019062000096929190620000f9565b508060049080519060200190620000af929190620000f9565b50505033600560006101000a81548173ffffffffffffffffffffffffffffffffffffffff021916908373ffffffffffffffffffffffffffffffffffffffff1602179055506200020e565b8280546200010790620001a9565b90600052602060002090601f0160209004810192826200012b576000855562000177565b82601f106200014657805160ff191683800117855562000177565b8280016001018555821562000177579182015b828111156200017657825182559160200191906001019062000159565b5b5090506200018691906200018a565b5090565b5b80821115620001a55760008160009055506001016200018b565b5090565b60006002820490506001821680620001c257607f821691505b60208210811415620001d957620001d8620001df565b5b50919050565b7f4e487b7100000000000000000000000000000000000000000000000000000000600052602260045260246000fd5b6116af806200021e6000396000f3fe608060405234801561001057600080fd5b50600436106100cf5760003560e01c806340c10f191161008c578063a457c2d711610066578063a457c2d714610228578063a9059cbb14610258578063dd62ed3e14610288578063f851a440146102b8576100cf565b806340c10f19146101be57806370a08231146101da57806395d89b411461020a576100cf565b806306fdde03146100d4578063095ea7b3146100f257806318160ddd1461012257806323b872dd14610140578063313ce56714610170578063395093511461018e575b600080fd5b6100dc6102d6565b6040516100e99190611338565b60405180910390f35b61010c60048036038101906101079190610f07565b610368565b604051610119919061131d565b60405180910390f35b61012a610386565b604051610137919061147a565b60405180910390f35b61015a60048036038101906101559190610eb8565b610390565b604051610167919061131d565b60405180910390f35b610178610488565b6040516101859190611495565b60405180910390f35b6101a860048036038101906101a39190610f07565b610491565b6040516101b5919061131d565b60405180910390f35b6101d860048036038101906101d39190610f07565b61053d565b005b6101f460048036038101906101ef9190610e53565b6105db565b604051610201919061147a565b60405180910390f35b610212610623565b60405161021f9190611338565b60405180910390f35b610242600480360381019061023d9190610f07565b6106b5565b60405161024f919061131d565b60405180910390f35b610272600480360381019061026d9190610f07565b6107a0565b60405161027f919061131d565b60405180910390f35b6102a2600480360381019061029d9190610e7c565b6107be565b6040516102af919061147a565b60405180910390f35b6102c0610845565b6040516102cd9190611302565b60405180910390f35b6060600380546102e5906115aa565b80601f0160208091040260200160405190810160405280929190818152602001828054610311906115aa565b801561035e5780601f106103335761010080835404028352916020019161035e565b820191906000526020600020905b81548152906001019060200180831161034157829003601f168201915b5050505050905090565b600061037c61037561086b565b8484610873565b6001905092915050565b6000600254905090565b600061039d848484610a3e565b6000600160008673ffffffffffffffffffffffffffffffffffffffff1673ffffffffffffffffffffffffffffffffffffffff16815260200190815260200160002060006103e861086b565b73ffffffffffffffffffffffffffffffffffffffff1673ffffffffffffffffffffffffffffffffffffffff16815260200190815260200160002054905082811015610468576040517f08c379a000000000000000000000000000000000000000000000000000000000815260040161045f906113da565b60405180910390fd5b61047c8561047461086b565b858403610873565b60019150509392505050565b60006012905090565b600061053361049e61086b565b8484600160006104ac61086b565b73ffffffffffffffffffffffffffffffffffffffff1673ffffffffffffffffffffffffffffffffffffffff16815260200190815260200160002060008873ffffffffffffffffffffffffffffffffffffffff1673ffffffffffffffffffffffffffffffffffffffff1681526020019081526020016000205461052e91906114cc565b610873565b6001905092915050565b600560009054906101000a900473ffffffffffffffffffffffffffffffffffffffff1673ffffffffffffffffffffffffffffffffffffffff163373ffffffffffffffffffffffffffffffffffffffff16146105cd576040517f08c379a00000000000000000000000000000000000000000000000000000000081526004016105c4906113ba565b60405180910390fd5b6105d78282610cbf565b5050565b60008060008373ffffffffffffffffffffffffffffffffffffffff1673ffffffffffffffffffffffffffffffffffffffff168152602001908152602001600020549050919050565b606060048054610632906115aa565b80601f016020809104026020016040519081016040528092919081815260200182805461065e906115aa565b80156106ab5780601f10610680576101008083540402835291602001916106ab565b820191906000526020600020905b81548152906001019060200180831161068e57829003601f168201915b5050505050905090565b600080600160006106c461086b565b73ffffffffffffffffffffffffffffffffffffffff1673ffffffffffffffffffffffffffffffffffffffff16815260200190815260200160002060008573ffffffffffffffffffffffffffffffffffffffff1673ffffffffffffffffffffffffffffffffffffffff16815260200190815260200160002054905082811015610781576040517f08c379a00000000000000000000000000000000000000000000000000000000081526004016107789061143a565b60405180910390fd5b61079561078c61086b565b85858403610873565b600191505092915050565b60006107b46107ad61086b565b8484610a3e565b6001905092915050565b6000600160008473ffffffffffffffffffffffffffffffffffffffff1673ffffffffffffffffffffffffffffffffffffffff16815260200190815260200160002060008373ffffffffffffffffffffffffffffffffffffffff1673ffffffffffffffffffffffffffffffffffffffff16815260200190815260200160002054905092915050565b600560009054906101000a900473ffffffffffffffffffffffffffffffffffffffff1681565b600033905090565b600073ffffffffffffffffffffffffffffffffffffffff168373ffffffffffffffffffffffffffffffffffffffff1614156108e3576040517f08c379a00000000000000000000000000000000000000000000000000000000081526004016108da9061141a565b60405180910390fd5b600073ffffffffffffffffffffffffffffffffffffffff168273ffffffffffffffffffffffffffffffffffffffff161415610953576040517f08c379a000000000000000000000000000000000000000000000000000000000815260040161094a9061137a565b60405180910390fd5b80600160008573ffffffffffffffffffffffffffffffffffffffff1673ffffffffffffffffffffffffffffffffffffffff16815260200190815260200160002060008473ffffffffffffffffffffffffffffffffffffffff1673ffffffffffffffffffffffffffffffffffffffff168152602001908152602001600020819055508173ffffffffffffffffffffffffffffffffffffffff168373ffffffffffffffffffffffffffffffffffffffff167f8c5be1e5ebec7d5bd14f71427d1e84f3dd0314c0f7b2291e5b200ac8c7c3b92583604051610a31919061147a565b60405180910390a3505050565b600073ffffffffffffffffffffffffffffffffffffffff168373ffffffffffffffffffffffffffffffffffffffff161415610aae576040517f08c379a0000000000000000000000000000000000000000000000000000000008152600401610aa5906113fa565b60405180910390fd5b600073ffffffffffffffffffffffffffffffffffffffff168273ffffffffffffffffffffffffffffffffffffffff161415610b1e576040517f08c379a0000000000000000000000000000000000000000000000000000000008152600401610b159061135a565b60405180910390fd5b610b29838383610e1f565b60008060008573ffffffffffffffffffffffffffffffffffffffff1673ffffffffffffffffffffffffffffffffffffffff16815260200190815260200160002054905081811015610baf576040517f08c379a0000000000000000000000000000000000000000000000000000000008152600401610ba69061139a565b60405180910390fd5b8181036000808673ffffffffffffffffffffffffffffffffffffffff1673ffffffffffffffffffffffffffffffffffffffff16815260200190815260200160002081905550816000808573ffffffffffffffffffffffffffffffffffffffff1673ffffffffffffffffffffffffffffffffffffffff1681526020019081526020016000206000828254610c4291906114cc565b925050819055508273ffffffffffffffffffffffffffffffffffffffff168473ffffffffffffffffffffffffffffffffffffffff167fddf252ad1be2c89b69c2b068fc378daa952ba7f163c4a11628f55a4df523b3ef84604051610ca6919061147a565b60405180910390a3610cb9848484610e24565b50505050565b600073ffffffffffffffffffffffffffffffffffffffff168273ffffffffffffffffffffffffffffffffffffffff161415610d2f576040517f08c379a0000000000000000000000000000000000000000000000000000000008152600401610d269061145a565b60405180910390fd5b610d3b60008383610e1f565b8060026000828254610d4d91906114cc565b92505081905550806000808473ffffffffffffffffffffffffffffffffffffffff1673ffffffffffffffffffffffffffffffffffffffff1681526020019081526020016000206000828254610da291906114cc565b925050819055508173ffffffffffffffffffffffffffffffffffffffff16600073ffffffffffffffffffffffffffffffffffffffff167fddf252ad1be2c89b69c2b068fc378daa952ba7f163c4a11628f55a4df523b3ef83604051610e07919061147a565b60405180910390a3610e1b60008383610e24565b5050565b505050565b505050565b600081359050610e388161164b565b92915050565b600081359050610e4d81611662565b92915050565b600060208284031215610e6557600080fd5b6000610e7384828501610e29565b91505092915050565b60008060408385031215610e8f57600080fd5b6000610e9d85828601610e29565b9250506020610eae85828601610e29565b9150509250929050565b600080600060608486031215610ecd57600080fd5b6000610edb86828701610e29565b9350506020610eec86828701610e29565b9250506040610efd86828701610e3e565b9150509250925092565b60008060408385031215610f1a57600080fd5b6000610f2885828601610e29565b9250506020610f3985828601610e3e565b9150509250929050565b610f4c81611522565b82525050565b610f5b81611534565b82525050565b6000610f6c826114b0565b610f7681856114bb565b9350610f86818560208601611577565b610f8f8161163a565b840191505092915050565b6000610fa76023836114bb565b91507f45524332303a207472616e7366657220746f20746865207a65726f206164647260008301527f65737300000000000000000000000000000000000000000000000000000000006020830152604082019050919050565b600061100d6022836114bb565b91507f45524332303a20617070726f766520746f20746865207a65726f20616464726560008301527f73730000000000000000000000000000000000000000000000000000000000006020830152604082019050919050565b60006110736026836114bb565b91507f45524332303a207472616e7366657220616d6f756e742065786365656473206260008301527f616c616e636500000000000000000000000000000000000000000000000000006020830152604082019050919050565b60006110d9600a836114bb565b91507f6f6e6c792061646d696e000000000000000000000000000000000000000000006000830152602082019050919050565b60006111196028836114bb565b91507f45524332303a207472616e7366657220616d6f756e742065786365656473206160008301527f6c6c6f77616e63650000000000000000000000000000000000000000000000006020830152604082019050919050565b600061117f6025836114bb565b91507f45524332303a207472616e736665722066726f6d20746865207a65726f20616460008301527f64726573730000000000000000000000000000000000000000000000000000006020830152604082019050919050565b60006111e56024836114bb565b91507f45524332303a20617070726f76652066726f6d20746865207a65726f2061646460008301527f72657373000000000000000000000000000000000000000000000000000000006020830152604082019050919050565b600061124b6025836114bb565b91507f45524332303a2064656372656173656420616c6c6f77616e63652062656c6f7760008301527f207a65726f0000000000000000000000000000000000000000000000000000006020830152604082019050919050565b60006112b1601f836114bb565b91507f45524332303a206d696e7420746f20746865207a65726f2061646472657373006000830152602082019050919050565b6112ed81611560565b82525050565b6112fc8161156a565b82525050565b60006020820190506113176000830184610f43565b92915050565b60006020820190506113326000830184610f52565b92915050565b600060208201905081810360008301526113528184610f61565b905092915050565b6000602082019050818103600083015261137381610f9a565b9050919050565b6000602082019050818103600083015261139381611000565b9050919050565b600060208201905081810360008301526113b381611066565b9050919050565b600060208201905081810360008301526113d3816110cc565b9050919050565b600060208201905081810360008301526113f38161110c565b9050919050565b6000602082019050818103600083015261141381611172565b9050919050565b60006020820190508181036000830152611433816111d8565b9050919050565b600060208201905081810360008301526114538161123e565b9050919050565b60006020820190508181036000830152611473816112a4565b9050919050565b600060208201905061148f60008301846112e4565b92915050565b60006020820190506114aa60008301846112f3565b92915050565b600081519050919050565b600082825260208201905092915050565b60006114d782611560565b91506114e283611560565b9250827fffffffffffffffffffffffffffffffffffffffffffffffffffffffffffffffff03821115611517576115166115dc565b5b828201905092915050565b600061152d82611540565b9050919050565b60008115159050919050565b600073ffffffffffffffffffffffffffffffffffffffff82169050919050565b6000819050919050565b600060ff82169050919050565b60005b8381101561159557808201518184015260208101905061157a565b838111156115a4576000848401525b50505050565b600060028204905060018216806115c257607f821691505b602082108114156115d6576115d561160b565b5b50919050565b7f4e487b7100000000000000000000000000000000000000000000000000000000600052601160045260246000fd5b7f4e487b7100000000000000000000000000000000000000000000000000000000600052602260045260246000fd5b6000601f19601f8301169050919050565b61165481611522565b811461165f57600080fd5b50565b61166b81611560565b811461167657600080fd5b5056fea264697066735822122065ba44db44448d25a6133273f072fa90025b5733c025f0812e860b95982170db64736f6c63430008000033",
  "immutableReferences": {},
  "source": "pragma solidity ^0.8.0;\nimport \"@openzeppelin/contracts/token/ERC20/IERC20.sol\";\nimport '@openzeppelin/contracts/token/ERC20/ERC20.sol';\n//import \"hardhat/console.sol\";\n\n\n\n//The DAO Token ERC20 contract (DAOT) which will be used to pay contributors and suppliers of the DAO\ncontract DAOToken is ERC20 {\n  address public admin;\n\n  constructor() ERC20('DAO Token', 'DAOT'){\n    admin = msg.sender;\n  }\n\n  function mint(address to, uint amount) external{\n    require(msg.sender == admin, 'only admin');\n    _mint(to, amount);\n  }\n}\n\n//The DaoPayTreasury Factory which is able to create DaoWorkstreams and authorize payment to contributors from the community Treasury in DAOToken (DAOT)\ncontract DaoPayTreasury {\n    address public owner;\n    uint public supplyDaoToken;\n    DAOToken public daoToken;\n    address [] public listDaoWorkstreams;\n    string  [] public listDaoWorkstreamNames;\n\n    modifier restricted(){\n        require(msg.sender == owner,'only admin');\n        _;\n    }\n\n    constructor(uint _supplyDaoToken) {\n        owner = msg.sender;\n        supplyDaoToken = _supplyDaoToken;\n        daoToken = new DAOToken();\n        daoToken.mint(owner, supplyDaoToken);\n    }\n    //Create a DaoWorkstream\n    function createDaoWorkstream(string memory _workstreamName, address _workstreamOwner) restricted() external returns (address) {\n        DaoWorkstream newWk = new DaoWorkstream(_workstreamName, owner, _workstreamOwner, payable(address(daoToken)));\n        listDaoWorkstreams.push(address(newWk));\n        listDaoWorkstreamNames.push(_workstreamName);\n\n\n        return address(newWk);\n    }\n\n    function getDaoWorkstreams() public view returns (address[] memory){\n        return listDaoWorkstreams;\n    }\n    function getDaoWorkstreamNames() public view returns (string[] memory){\n        return listDaoWorkstreamNames;\n    }\n\n    function getDaoToken()  external view returns (address){\n        return address(daoToken);\n    }\n    function payContributor(address payable to, uint amount) external payable {\n      to.transfer(amount);\n    }\n}\n\n//DaoWorkstream is the contract which holds the requests from contributors for payment and approves them to be paid from community treasury in DAOToken (DAOT)\ncontract DaoWorkstream {\n    address workstreamOwner;\n    address daoOwner;\n    string public workstreamName;\n    address payable public daoToken;\n\n    struct Request {\n        uint id;\n        string description;\n        uint value;\n        address payable recipient;\n        bool approved;\n        bool paid;\n    }\n    Request[] public requests;\n    uint public totalBalance;\n    uint public pendingBalance;\n    uint public pendingRequestCount;\n\n    modifier restricted(){\n        require(msg.sender == daoOwner,'only dao owner');\n        _;\n    }\n    modifier owner(){\n      require(msg.sender == workstreamOwner, 'only workstream owner');\n      _;\n    }\n    modifier isApproved(bool _approved){\n      require(_approved == true, 'NOT approved');\n      _;\n    }\n\n    constructor(string memory _workstreamName, address _daoOwner, address _workstreamOwner, address payable _daoToken){\n        daoOwner = _daoOwner;\n        workstreamName = _workstreamName;\n        daoToken = _daoToken;\n        workstreamOwner = _workstreamOwner;\n    }\n    function getWorkstreamOwner() external view returns(address)\n    {\n        return workstreamOwner;\n    }\n    function getDaoOwner() external view returns(address)\n    {\n        return daoOwner;\n    }\n    function getWorkstreamName() external view returns(string memory){\n      return workstreamName;\n    }\n\n    function execPayment(address payable to, uint amount) restricted() public payable\n    {\n        IERC20(daoToken).transferFrom(daoOwner, to, amount);\n    }\n    function balance() external view returns(uint){\n      return (IERC20(daoToken).balanceOf(daoOwner));\n    }\n    function getSummary() external view returns (string memory, address, uint, uint, uint, uint) {\n      return (\n        workstreamName, workstreamOwner, pendingRequestCount, requests.length, pendingBalance, totalBalance\n      );\n    }\n    function getRequest(uint i) external view returns (uint id, string memory, address, uint, bool, bool) {\n      return (\n        requests[i].id, requests[i].description, requests[i].recipient, requests[i].value, requests[i].approved, requests[i].paid\n      );\n    }\n    function getRequestLength() external view returns (uint){\n      return(requests.length);\n    }\n    function createRequest(string memory description, uint value, address payable recipient) public  {\n        Request memory newReq = Request({\n           id: requests.length,\n           description: description,\n           value: value,\n           recipient: recipient,\n           approved: false,\n           paid: false\n        });\n        totalBalance += value;\n        pendingBalance += value;\n        pendingRequestCount += 1;\n        requests.push(newReq);\n    }\n    function approveRequest(uint index) restricted() external {\n        requests[index].approved = true;\n        //pay the recipeient\n        //Upon success\n        //pendingBalance -= requests[index].value;\n        pendingRequestCount -= 1;\n    }\n    function payRequest(uint index) restricted() isApproved(requests[index].approved) external {\n        requests[index].paid = true;\n        //pay the recipeient\n        execPayment(requests[index].recipient, requests[index].value);\n        //Upon success\n        pendingBalance -= requests[index].value;\n    }\n}\n",
  "sourcePath": "/Users/jcooper/py/crypto/consensys/blockchain-developer-bootcamp-final-project/eth/contracts/DaoPayTreasury.sol",
  "compiler": {
    "name": "solc",
    "version": "0.8.0+commit.c7dfd78e.Emscripten.clang"
  },
  "schemaVersion": "3.4.3",
  "updatedAt": "2021-11-30T20:38:58.061Z",
  "devdoc": {
    "kind": "dev",
    "methods": {},
    "version": 1
  },
  "userdoc": {
    "kind": "user",
    "methods": {},
    "version": 1
  }
}