{
  "contractName": "DAOToken",
  "abi": [
    {
      "inputs": [],
      "stateMutability": "nonpayable",
      "type": "constructor"
    },
    {
      "anonymous": false,
      "inputs": [
        {
          "indexed": true,
          "internalType": "address",
          "name": "owner",
          "type": "address"
        },
        {
          "indexed": true,
          "internalType": "address",
          "name": "spender",
          "type": "address"
        },
        {
          "indexed": false,
          "internalType": "uint256",
          "name": "value",
          "type": "uint256"
        }
      ],
      "name": "Approval",
      "type": "event"
    },
    {
      "anonymous": false,
      "inputs": [
        {
          "indexed": true,
          "internalType": "address",
          "name": "from",
          "type": "address"
        },
        {
          "indexed": true,
          "internalType": "address",
          "name": "to",
          "type": "address"
        },
        {
          "indexed": false,
          "internalType": "uint256",
          "name": "value",
          "type": "uint256"
        }
      ],
      "name": "Transfer",
      "type": "event"
    },
    {
      "inputs": [],
      "name": "admin",
      "outputs": [
        {
          "internalType": "address",
          "name": "",
          "type": "address"
        }
      ],
      "stateMutability": "view",
      "type": "function"
    },
    {
      "inputs": [
        {
          "internalType": "address",
          "name": "owner",
          "type": "address"
        },
        {
          "internalType": "address",
          "name": "spender",
          "type": "address"
        }
      ],
      "name": "allowance",
      "outputs": [
        {
          "internalType": "uint256",
          "name": "",
          "type": "uint256"
        }
      ],
      "stateMutability": "view",
      "type": "function"
    },
    {
      "inputs": [
        {
          "internalType": "address",
          "name": "spender",
          "type": "address"
        },
        {
          "internalType": "uint256",
          "name": "amount",
          "type": "uint256"
        }
      ],
      "name": "approve",
      "outputs": [
        {
          "internalType": "bool",
          "name": "",
          "type": "bool"
        }
      ],
      "stateMutability": "nonpayable",
      "type": "function"
    },
    {
      "inputs": [
        {
          "internalType": "address",
          "name": "account",
          "type": "address"
        }
      ],
      "name": "balanceOf",
      "outputs": [
        {
          "internalType": "uint256",
          "name": "",
          "type": "uint256"
        }
      ],
      "stateMutability": "view",
      "type": "function"
    },
    {
      "inputs": [],
      "name": "decimals",
      "outputs": [
        {
          "internalType": "uint8",
          "name": "",
          "type": "uint8"
        }
      ],
      "stateMutability": "view",
      "type": "function"
    },
    {
      "inputs": [
        {
          "internalType": "address",
          "name": "spender",
          "type": "address"
        },
        {
          "internalType": "uint256",
          "name": "subtractedValue",
          "type": "uint256"
        }
      ],
      "name": "decreaseAllowance",
      "outputs": [
        {
          "internalType": "bool",
          "name": "",
          "type": "bool"
        }
      ],
      "stateMutability": "nonpayable",
      "type": "function"
    },
    {
      "inputs": [
        {
          "internalType": "address",
          "name": "spender",
          "type": "address"
        },
        {
          "internalType": "uint256",
          "name": "addedValue",
          "type": "uint256"
        }
      ],
      "name": "increaseAllowance",
      "outputs": [
        {
          "internalType": "bool",
          "name": "",
          "type": "bool"
        }
      ],
      "stateMutability": "nonpayable",
      "type": "function"
    },
    {
      "inputs": [],
      "name": "name",
      "outputs": [
        {
          "internalType": "string",
          "name": "",
          "type": "string"
        }
      ],
      "stateMutability": "view",
      "type": "function"
    },
    {
      "inputs": [],
      "name": "symbol",
      "outputs": [
        {
          "internalType": "string",
          "name": "",
          "type": "string"
        }
      ],
      "stateMutability": "view",
      "type": "function"
    },
    {
      "inputs": [],
      "name": "totalSupply",
      "outputs": [
        {
          "internalType": "uint256",
          "name": "",
          "type": "uint256"
        }
      ],
      "stateMutability": "view",
      "type": "function"
    },
    {
      "inputs": [
        {
          "internalType": "address",
          "name": "recipient",
          "type": "address"
        },
        {
          "internalType": "uint256",
          "name": "amount",
          "type": "uint256"
        }
      ],
      "name": "transfer",
      "outputs": [
        {
          "internalType": "bool",
          "name": "",
          "type": "bool"
        }
      ],
      "stateMutability": "nonpayable",
      "type": "function"
    },
    {
      "inputs": [
        {
          "internalType": "address",
          "name": "sender",
          "type": "address"
        },
        {
          "internalType": "address",
          "name": "recipient",
          "type": "address"
        },
        {
          "internalType": "uint256",
          "name": "amount",
          "type": "uint256"
        }
      ],
      "name": "transferFrom",
      "outputs": [
        {
          "internalType": "bool",
          "name": "",
          "type": "bool"
        }
      ],
      "stateMutability": "nonpayable",
      "type": "function"
    },
    {
      "inputs": [
        {
          "internalType": "address",
          "name": "to",
          "type": "address"
        },
        {
          "internalType": "uint256",
          "name": "amount",
          "type": "uint256"
        }
      ],
      "name": "mint",
      "outputs": [],
      "stateMutability": "nonpayable",
      "type": "function"
    }
  ],
  "bytecode": "0x60806040523480156200001157600080fd5b506040518060400160405280600981526020017f44414f20546f6b656e00000000000000000000000000000000000000000000008152506040518060400160405280600481526020017f44414f5400000000000000000000000000000000000000000000000000000000815250816003908051906020019062000096929190620000f9565b508060049080519060200190620000af929190620000f9565b50505033600560006101000a81548173ffffffffffffffffffffffffffffffffffffffff021916908373ffffffffffffffffffffffffffffffffffffffff1602179055506200020e565b8280546200010790620001a9565b90600052602060002090601f0160209004810192826200012b576000855562000177565b82601f106200014657805160ff191683800117855562000177565b8280016001018555821562000177579182015b828111156200017657825182559160200191906001019062000159565b5b5090506200018691906200018a565b5090565b5b80821115620001a55760008160009055506001016200018b565b5090565b60006002820490506001821680620001c257607f821691505b60208210811415620001d957620001d8620001df565b5b50919050565b7f4e487b7100000000000000000000000000000000000000000000000000000000600052602260045260246000fd5b6116af806200021e6000396000f3fe608060405234801561001057600080fd5b50600436106100cf5760003560e01c806340c10f191161008c578063a457c2d711610066578063a457c2d714610228578063a9059cbb14610258578063dd62ed3e14610288578063f851a440146102b8576100cf565b806340c10f19146101be57806370a08231146101da57806395d89b411461020a576100cf565b806306fdde03146100d4578063095ea7b3146100f257806318160ddd1461012257806323b872dd14610140578063313ce56714610170578063395093511461018e575b600080fd5b6100dc6102d6565b6040516100e99190611338565b60405180910390f35b61010c60048036038101906101079190610f07565b610368565b604051610119919061131d565b60405180910390f35b61012a610386565b604051610137919061147a565b60405180910390f35b61015a60048036038101906101559190610eb8565b610390565b604051610167919061131d565b60405180910390f35b610178610488565b6040516101859190611495565b60405180910390f35b6101a860048036038101906101a39190610f07565b610491565b6040516101b5919061131d565b60405180910390f35b6101d860048036038101906101d39190610f07565b61053d565b005b6101f460048036038101906101ef9190610e53565b6105db565b604051610201919061147a565b60405180910390f35b610212610623565b60405161021f9190611338565b60405180910390f35b610242600480360381019061023d9190610f07565b6106b5565b60405161024f919061131d565b60405180910390f35b610272600480360381019061026d9190610f07565b6107a0565b60405161027f919061131d565b60405180910390f35b6102a2600480360381019061029d9190610e7c565b6107be565b6040516102af919061147a565b60405180910390f35b6102c0610845565b6040516102cd9190611302565b60405180910390f35b6060600380546102e5906115aa565b80601f0160208091040260200160405190810160405280929190818152602001828054610311906115aa565b801561035e5780601f106103335761010080835404028352916020019161035e565b820191906000526020600020905b81548152906001019060200180831161034157829003601f168201915b5050505050905090565b600061037c61037561086b565b8484610873565b6001905092915050565b6000600254905090565b600061039d848484610a3e565b6000600160008673ffffffffffffffffffffffffffffffffffffffff1673ffffffffffffffffffffffffffffffffffffffff16815260200190815260200160002060006103e861086b565b73ffffffffffffffffffffffffffffffffffffffff1673ffffffffffffffffffffffffffffffffffffffff16815260200190815260200160002054905082811015610468576040517f08c379a000000000000000000000000000000000000000000000000000000000815260040161045f906113da565b60405180910390fd5b61047c8561047461086b565b858403610873565b60019150509392505050565b60006012905090565b600061053361049e61086b565b8484600160006104ac61086b565b73ffffffffffffffffffffffffffffffffffffffff1673ffffffffffffffffffffffffffffffffffffffff16815260200190815260200160002060008873ffffffffffffffffffffffffffffffffffffffff1673ffffffffffffffffffffffffffffffffffffffff1681526020019081526020016000205461052e91906114cc565b610873565b6001905092915050565b600560009054906101000a900473ffffffffffffffffffffffffffffffffffffffff1673ffffffffffffffffffffffffffffffffffffffff163373ffffffffffffffffffffffffffffffffffffffff16146105cd576040517f08c379a00000000000000000000000000000000000000000000000000000000081526004016105c4906113ba565b60405180910390fd5b6105d78282610cbf565b5050565b60008060008373ffffffffffffffffffffffffffffffffffffffff1673ffffffffffffffffffffffffffffffffffffffff168152602001908152602001600020549050919050565b606060048054610632906115aa565b80601f016020809104026020016040519081016040528092919081815260200182805461065e906115aa565b80156106ab5780601f10610680576101008083540402835291602001916106ab565b820191906000526020600020905b81548152906001019060200180831161068e57829003601f168201915b5050505050905090565b600080600160006106c461086b565b73ffffffffffffffffffffffffffffffffffffffff1673ffffffffffffffffffffffffffffffffffffffff16815260200190815260200160002060008573ffffffffffffffffffffffffffffffffffffffff1673ffffffffffffffffffffffffffffffffffffffff16815260200190815260200160002054905082811015610781576040517f08c379a00000000000000000000000000000000000000000000000000000000081526004016107789061143a565b60405180910390fd5b61079561078c61086b565b85858403610873565b600191505092915050565b60006107b46107ad61086b565b8484610a3e565b6001905092915050565b6000600160008473ffffffffffffffffffffffffffffffffffffffff1673ffffffffffffffffffffffffffffffffffffffff16815260200190815260200160002060008373ffffffffffffffffffffffffffffffffffffffff1673ffffffffffffffffffffffffffffffffffffffff16815260200190815260200160002054905092915050565b600560009054906101000a900473ffffffffffffffffffffffffffffffffffffffff1681565b600033905090565b600073ffffffffffffffffffffffffffffffffffffffff168373ffffffffffffffffffffffffffffffffffffffff1614156108e3576040517f08c379a00000000000000000000000000000000000000000000000000000000081526004016108da9061141a565b60405180910390fd5b600073ffffffffffffffffffffffffffffffffffffffff168273ffffffffffffffffffffffffffffffffffffffff161415610953576040517f08c379a000000000000000000000000000000000000000000000000000000000815260040161094a9061137a565b60405180910390fd5b80600160008573ffffffffffffffffffffffffffffffffffffffff1673ffffffffffffffffffffffffffffffffffffffff16815260200190815260200160002060008473ffffffffffffffffffffffffffffffffffffffff1673ffffffffffffffffffffffffffffffffffffffff168152602001908152602001600020819055508173ffffffffffffffffffffffffffffffffffffffff168373ffffffffffffffffffffffffffffffffffffffff167f8c5be1e5ebec7d5bd14f71427d1e84f3dd0314c0f7b2291e5b200ac8c7c3b92583604051610a31919061147a565b60405180910390a3505050565b600073ffffffffffffffffffffffffffffffffffffffff168373ffffffffffffffffffffffffffffffffffffffff161415610aae576040517f08c379a0000000000000000000000000000000000000000000000000000000008152600401610aa5906113fa565b60405180910390fd5b600073ffffffffffffffffffffffffffffffffffffffff168273ffffffffffffffffffffffffffffffffffffffff161415610b1e576040517f08c379a0000000000000000000000000000000000000000000000000000000008152600401610b159061135a565b60405180910390fd5b610b29838383610e1f565b60008060008573ffffffffffffffffffffffffffffffffffffffff1673ffffffffffffffffffffffffffffffffffffffff16815260200190815260200160002054905081811015610baf576040517f08c379a0000000000000000000000000000000000000000000000000000000008152600401610ba69061139a565b60405180910390fd5b8181036000808673ffffffffffffffffffffffffffffffffffffffff1673ffffffffffffffffffffffffffffffffffffffff16815260200190815260200160002081905550816000808573ffffffffffffffffffffffffffffffffffffffff1673ffffffffffffffffffffffffffffffffffffffff1681526020019081526020016000206000828254610c4291906114cc565b925050819055508273ffffffffffffffffffffffffffffffffffffffff168473ffffffffffffffffffffffffffffffffffffffff167fddf252ad1be2c89b69c2b068fc378daa952ba7f163c4a11628f55a4df523b3ef84604051610ca6919061147a565b60405180910390a3610cb9848484610e24565b50505050565b600073ffffffffffffffffffffffffffffffffffffffff168273ffffffffffffffffffffffffffffffffffffffff161415610d2f576040517f08c379a0000000000000000000000000000000000000000000000000000000008152600401610d269061145a565b60405180910390fd5b610d3b60008383610e1f565b8060026000828254610d4d91906114cc565b92505081905550806000808473ffffffffffffffffffffffffffffffffffffffff1673ffffffffffffffffffffffffffffffffffffffff1681526020019081526020016000206000828254610da291906114cc565b925050819055508173ffffffffffffffffffffffffffffffffffffffff16600073ffffffffffffffffffffffffffffffffffffffff167fddf252ad1be2c89b69c2b068fc378daa952ba7f163c4a11628f55a4df523b3ef83604051610e07919061147a565b60405180910390a3610e1b60008383610e24565b5050565b505050565b505050565b600081359050610e388161164b565b92915050565b600081359050610e4d81611662565b92915050565b600060208284031215610e6557600080fd5b6000610e7384828501610e29565b91505092915050565b60008060408385031215610e8f57600080fd5b6000610e9d85828601610e29565b9250506020610eae85828601610e29565b9150509250929050565b600080600060608486031215610ecd57600080fd5b6000610edb86828701610e29565b9350506020610eec86828701610e29565b9250506040610efd86828701610e3e565b9150509250925092565b60008060408385031215610f1a57600080fd5b6000610f2885828601610e29565b9250506020610f3985828601610e3e565b9150509250929050565b610f4c81611522565b82525050565b610f5b81611534565b82525050565b6000610f6c826114b0565b610f7681856114bb565b9350610f86818560208601611577565b610f8f8161163a565b840191505092915050565b6000610fa76023836114bb565b91507f45524332303a207472616e7366657220746f20746865207a65726f206164647260008301527f65737300000000000000000000000000000000000000000000000000000000006020830152604082019050919050565b600061100d6022836114bb565b91507f45524332303a20617070726f766520746f20746865207a65726f20616464726560008301527f73730000000000000000000000000000000000000000000000000000000000006020830152604082019050919050565b60006110736026836114bb565b91507f45524332303a207472616e7366657220616d6f756e742065786365656473206260008301527f616c616e636500000000000000000000000000000000000000000000000000006020830152604082019050919050565b60006110d9600a836114bb565b91507f6f6e6c792061646d696e000000000000000000000000000000000000000000006000830152602082019050919050565b60006111196028836114bb565b91507f45524332303a207472616e7366657220616d6f756e742065786365656473206160008301527f6c6c6f77616e63650000000000000000000000000000000000000000000000006020830152604082019050919050565b600061117f6025836114bb565b91507f45524332303a207472616e736665722066726f6d20746865207a65726f20616460008301527f64726573730000000000000000000000000000000000000000000000000000006020830152604082019050919050565b60006111e56024836114bb565b91507f45524332303a20617070726f76652066726f6d20746865207a65726f2061646460008301527f72657373000000000000000000000000000000000000000000000000000000006020830152604082019050919050565b600061124b6025836114bb565b91507f45524332303a2064656372656173656420616c6c6f77616e63652062656c6f7760008301527f207a65726f0000000000000000000000000000000000000000000000000000006020830152604082019050919050565b60006112b1601f836114bb565b91507f45524332303a206d696e7420746f20746865207a65726f2061646472657373006000830152602082019050919050565b6112ed81611560565b82525050565b6112fc8161156a565b82525050565b60006020820190506113176000830184610f43565b92915050565b60006020820190506113326000830184610f52565b92915050565b600060208201905081810360008301526113528184610f61565b905092915050565b6000602082019050818103600083015261137381610f9a565b9050919050565b6000602082019050818103600083015261139381611000565b9050919050565b600060208201905081810360008301526113b381611066565b9050919050565b600060208201905081810360008301526113d3816110cc565b9050919050565b600060208201905081810360008301526113f38161110c565b9050919050565b6000602082019050818103600083015261141381611172565b9050919050565b60006020820190508181036000830152611433816111d8565b9050919050565b600060208201905081810360008301526114538161123e565b9050919050565b60006020820190508181036000830152611473816112a4565b9050919050565b600060208201905061148f60008301846112e4565b92915050565b60006020820190506114aa60008301846112f3565b92915050565b600081519050919050565b600082825260208201905092915050565b60006114d782611560565b91506114e283611560565b9250827fffffffffffffffffffffffffffffffffffffffffffffffffffffffffffffffff03821115611517576115166115dc565b5b828201905092915050565b600061152d82611540565b9050919050565b60008115159050919050565b600073ffffffffffffffffffffffffffffffffffffffff82169050919050565b6000819050919050565b600060ff82169050919050565b60005b8381101561159557808201518184015260208101905061157a565b838111156115a4576000848401525b50505050565b600060028204905060018216806115c257607f821691505b602082108114156115d6576115d561160b565b5b50919050565b7f4e487b7100000000000000000000000000000000000000000000000000000000600052601160045260246000fd5b7f4e487b7100000000000000000000000000000000000000000000000000000000600052602260045260246000fd5b6000601f19601f8301169050919050565b61165481611522565b811461165f57600080fd5b50565b61166b81611560565b811461167657600080fd5b5056fea264697066735822122065ba44db44448d25a6133273f072fa90025b5733c025f0812e860b95982170db64736f6c63430008000033",
  "immutableReferences": {},
  "source": "pragma solidity ^0.8.0;\nimport \"@openzeppelin/contracts/token/ERC20/IERC20.sol\";\nimport '@openzeppelin/contracts/token/ERC20/ERC20.sol';\n//import \"hardhat/console.sol\";\n\n\n\n//The DAO Token ERC20 contract (DAOT) which will be used to pay contributors and suppliers of the DAO\ncontract DAOToken is ERC20 {\n  address public admin;\n\n  constructor() ERC20('DAO Token', 'DAOT'){\n    admin = msg.sender;\n  }\n\n  function mint(address to, uint amount) external{\n    require(msg.sender == admin, 'only admin');\n    _mint(to, amount);\n  }\n}\n\n//The DaoPayTreasury Factory which is able to create DaoWorkstreams and authorize payment to contributors from the community Treasury in DAOToken (DAOT)\ncontract DaoPayTreasury {\n    address public owner;\n    uint public supplyDaoToken;\n    DAOToken public daoToken;\n    address [] public listDaoWorkstreams;\n    string  [] public listDaoWorkstreamNames;\n\n    modifier restricted(){\n        require(msg.sender == owner,'only admin');\n        _;\n    }\n\n    constructor(uint _supplyDaoToken) {\n        owner = msg.sender;\n        supplyDaoToken = _supplyDaoToken;\n        daoToken = new DAOToken();\n        daoToken.mint(owner, supplyDaoToken);\n    }\n    //Create a DaoWorkstream\n    function createDaoWorkstream(string memory _workstreamName, address _workstreamOwner) restricted() external returns (address) {\n        DaoWorkstream newWk = new DaoWorkstream(_workstreamName, owner, _workstreamOwner, payable(address(daoToken)));\n        listDaoWorkstreams.push(address(newWk));\n        listDaoWorkstreamNames.push(_workstreamName);\n\n\n        return address(newWk);\n    }\n\n    function getDaoWorkstreams() public view returns (address[] memory){\n        return listDaoWorkstreams;\n    }\n    function getDaoWorkstreamNames() public view returns (string[] memory){\n        return listDaoWorkstreamNames;\n    }\n\n    function getDaoToken()  external view returns (address){\n        return address(daoToken);\n    }\n    function payContributor(address payable to, uint amount) external payable {\n      to.transfer(amount);\n    }\n}\n\n//DaoWorkstream is the contract which holds the requests from contributors for payment and approves them to be paid from community treasury in DAOToken (DAOT)\ncontract DaoWorkstream {\n    address workstreamOwner;\n    address daoOwner;\n    string public workstreamName;\n    address payable public daoToken;\n\n    struct Request {\n        uint id;\n        string description;\n        uint value;\n        address payable recipient;\n        bool approved;\n        bool paid;\n    }\n    Request[] public requests;\n    uint public totalBalance;\n    uint public pendingBalance;\n    uint public pendingRequestCount;\n\n    modifier restricted(){\n        require(msg.sender == daoOwner,'only dao owner');\n        _;\n    }\n    modifier owner(){\n      require(msg.sender == workstreamOwner, 'only workstream owner');\n      _;\n    }\n    modifier isApproved(bool _approved){\n      require(_approved == true, 'NOT approved');\n      _;\n    }\n\n    constructor(string memory _workstreamName, address _daoOwner, address _workstreamOwner, address payable _daoToken){\n        daoOwner = _daoOwner;\n        workstreamName = _workstreamName;\n        daoToken = _daoToken;\n        workstreamOwner = _workstreamOwner;\n    }\n    function getWorkstreamOwner() external view returns(address)\n    {\n        return workstreamOwner;\n    }\n    function getDaoOwner() external view returns(address)\n    {\n        return daoOwner;\n    }\n    function getWorkstreamName() external view returns(string memory){\n      return workstreamName;\n    }\n\n    function execPayment(address payable to, uint amount) restricted() public payable\n    {\n        IERC20(daoToken).transferFrom(daoOwner, to, amount);\n    }\n    function balance() external view returns(uint){\n      return (IERC20(daoToken).balanceOf(daoOwner));\n    }\n    function getSummary() external view returns (string memory, address, uint, uint, uint, uint) {\n      return (\n        workstreamName, workstreamOwner, pendingRequestCount, requests.length, pendingBalance, totalBalance\n      );\n    }\n    function getRequest(uint i) external view returns (uint id, string memory, address, uint, bool, bool) {\n      return (\n        requests[i].id, requests[i].description, requests[i].recipient, requests[i].value, requests[i].approved, requests[i].paid\n      );\n    }\n    function getRequestLength() external view returns (uint){\n      return(requests.length);\n    }\n    function createRequest(string memory description, uint value, address payable recipient) public  {\n        Request memory newReq = Request({\n           id: requests.length,\n           description: description,\n           value: value,\n           recipient: recipient,\n           approved: false,\n           paid: false\n        });\n        totalBalance += value;\n        pendingBalance += value;\n        pendingRequestCount += 1;\n        requests.push(newReq);\n    }\n    function approveRequest(uint index) restricted() external {\n        requests[index].approved = true;\n        //pay the recipeient\n        //Upon success\n        //pendingBalance -= requests[index].value;\n        pendingRequestCount -= 1;\n    }\n    function payRequest(uint index) restricted() isApproved(requests[index].approved) external {\n        requests[index].paid = true;\n        //pay the recipeient\n        execPayment(requests[index].recipient, requests[index].value);\n        //Upon success\n        pendingBalance -= requests[index].value;\n    }\n}\n",
  "sourcePath": "/Users/jcooper/py/crypto/consensys/blockchain-developer-bootcamp-final-project/eth/contracts/DaoPayTreasury.sol",
  "compiler": {
    "name": "solc",
    "version": "0.8.0+commit.c7dfd78e.Emscripten.clang"
  },
  "schemaVersion": "3.4.3",
  "updatedAt": "2021-11-30T20:38:58.051Z",
  "devdoc": {
    "kind": "dev",
    "methods": {
      "allowance(address,address)": {
        "details": "See {IERC20-allowance}."
      },
      "approve(address,uint256)": {
        "details": "See {IERC20-approve}. Requirements: - `spender` cannot be the zero address."
      },
      "balanceOf(address)": {
        "details": "See {IERC20-balanceOf}."
      },
      "decimals()": {
        "details": "Returns the number of decimals used to get its user representation. For example, if `decimals` equals `2`, a balance of `505` tokens should be displayed to a user as `5.05` (`505 / 10 ** 2`). Tokens usually opt for a value of 18, imitating the relationship between Ether and Wei. This is the value {ERC20} uses, unless this function is overridden; NOTE: This information is only used for _display_ purposes: it in no way affects any of the arithmetic of the contract, including {IERC20-balanceOf} and {IERC20-transfer}."
      },
      "decreaseAllowance(address,uint256)": {
        "details": "Atomically decreases the allowance granted to `spender` by the caller. This is an alternative to {approve} that can be used as a mitigation for problems described in {IERC20-approve}. Emits an {Approval} event indicating the updated allowance. Requirements: - `spender` cannot be the zero address. - `spender` must have allowance for the caller of at least `subtractedValue`."
      },
      "increaseAllowance(address,uint256)": {
        "details": "Atomically increases the allowance granted to `spender` by the caller. This is an alternative to {approve} that can be used as a mitigation for problems described in {IERC20-approve}. Emits an {Approval} event indicating the updated allowance. Requirements: - `spender` cannot be the zero address."
      },
      "name()": {
        "details": "Returns the name of the token."
      },
      "symbol()": {
        "details": "Returns the symbol of the token, usually a shorter version of the name."
      },
      "totalSupply()": {
        "details": "See {IERC20-totalSupply}."
      },
      "transfer(address,uint256)": {
        "details": "See {IERC20-transfer}. Requirements: - `recipient` cannot be the zero address. - the caller must have a balance of at least `amount`."
      },
      "transferFrom(address,address,uint256)": {
        "details": "See {IERC20-transferFrom}. Emits an {Approval} event indicating the updated allowance. This is not required by the EIP. See the note at the beginning of {ERC20}. Requirements: - `sender` and `recipient` cannot be the zero address. - `sender` must have a balance of at least `amount`. - the caller must have allowance for ``sender``'s tokens of at least `amount`."
      }
    },
    "version": 1
  },
  "userdoc": {
    "kind": "user",
    "methods": {},
    "version": 1
  }
}