{
  "contractName": "DefiWallie",
  "abi": [
    {
      "inputs": [
        {
          "internalType": "string",
          "name": "_walletName",
          "type": "string"
        },
        {
          "internalType": "address",
          "name": "_creator",
          "type": "address"
        },
        {
          "internalType": "address",
          "name": "_comptroller",
          "type": "address"
        },
        {
          "internalType": "address",
          "name": "_cEthAddress",
          "type": "address"
        }
      ],
      "stateMutability": "nonpayable",
      "type": "constructor"
    },
    {
      "inputs": [],
      "name": "admin",
      "outputs": [
        {
          "internalType": "address",
          "name": "",
          "type": "address"
        }
      ],
      "stateMutability": "view",
      "type": "function"
    },
    {
      "inputs": [],
      "name": "cEth",
      "outputs": [
        {
          "internalType": "contract CEthInterface",
          "name": "",
          "type": "address"
        }
      ],
      "stateMutability": "view",
      "type": "function"
    },
    {
      "inputs": [],
      "name": "comptroller",
      "outputs": [
        {
          "internalType": "contract ComptrollerInterface",
          "name": "",
          "type": "address"
        }
      ],
      "stateMutability": "view",
      "type": "function"
    },
    {
      "inputs": [
        {
          "internalType": "address",
          "name": "cTokenAddress",
          "type": "address"
        }
      ],
      "name": "getUnderlyingBalance",
      "outputs": [
        {
          "internalType": "uint256",
          "name": "",
          "type": "uint256"
        }
      ],
      "stateMutability": "nonpayable",
      "type": "function"
    },
    {
      "inputs": [],
      "name": "getUnderlyingEthBalance",
      "outputs": [
        {
          "internalType": "uint256",
          "name": "",
          "type": "uint256"
        }
      ],
      "stateMutability": "nonpayable",
      "type": "function"
    },
    {
      "inputs": [
        {
          "internalType": "address",
          "name": "cTokenAddress",
          "type": "address"
        }
      ],
      "name": "getcTokenBalance",
      "outputs": [
        {
          "internalType": "uint256",
          "name": "",
          "type": "uint256"
        }
      ],
      "stateMutability": "view",
      "type": "function"
    },
    {
      "inputs": [],
      "name": "walletName",
      "outputs": [
        {
          "internalType": "string",
          "name": "",
          "type": "string"
        }
      ],
      "stateMutability": "view",
      "type": "function"
    },
    {
      "inputs": [
        {
          "internalType": "address",
          "name": "tokAddress",
          "type": "address"
        },
        {
          "internalType": "uint256",
          "name": "amount",
          "type": "uint256"
        }
      ],
      "name": "deposit",
      "outputs": [],
      "stateMutability": "nonpayable",
      "type": "function"
    },
    {
      "inputs": [],
      "name": "receive",
      "outputs": [],
      "stateMutability": "payable",
      "type": "function"
    },
    {
      "inputs": [
        {
          "internalType": "address",
          "name": "tokAddress",
          "type": "address"
        },
        {
          "internalType": "uint256",
          "name": "amount",
          "type": "uint256"
        },
        {
          "internalType": "address",
          "name": "recipient",
          "type": "address"
        }
      ],
      "name": "withdraw",
      "outputs": [],
      "stateMutability": "nonpayable",
      "type": "function"
    },
    {
      "inputs": [
        {
          "internalType": "uint256",
          "name": "amount",
          "type": "uint256"
        },
        {
          "internalType": "address payable",
          "name": "recipient",
          "type": "address"
        }
      ],
      "name": "withdrawEth",
      "outputs": [],
      "stateMutability": "nonpayable",
      "type": "function"
    },
    {
      "inputs": [
        {
          "internalType": "address",
          "name": "tokAddress",
          "type": "address"
        }
      ],
      "name": "getBalance",
      "outputs": [
        {
          "internalType": "uint256",
          "name": "",
          "type": "uint256"
        }
      ],
      "stateMutability": "view",
      "type": "function"
    },
    {
      "inputs": [
        {
          "internalType": "address",
          "name": "toAddress",
          "type": "address"
        }
      ],
      "name": "payBill",
      "outputs": [],
      "stateMutability": "payable",
      "type": "function"
    },
    {
      "inputs": [
        {
          "internalType": "address",
          "name": "fromTokenAddress",
          "type": "address"
        },
        {
          "internalType": "address",
          "name": "toTokenAddress",
          "type": "address"
        },
        {
          "internalType": "uint256",
          "name": "amount",
          "type": "uint256"
        }
      ],
      "name": "swap",
      "outputs": [],
      "stateMutability": "payable",
      "type": "function"
    },
    {
      "inputs": [
        {
          "internalType": "address",
          "name": "fromTokenAddress",
          "type": "address"
        },
        {
          "internalType": "address",
          "name": "toTokenAddress",
          "type": "address"
        },
        {
          "internalType": "uint256",
          "name": "amount",
          "type": "uint256"
        }
      ],
      "name": "twapSwap",
      "outputs": [],
      "stateMutability": "payable",
      "type": "function"
    }
  ],
  "bytecode": "0x60806040523480156200001157600080fd5b50604051620010d5380380620010d5833981810160405281019062000037919062000261565b8181816000806101000a81548173ffffffffffffffffffffffffffffffffffffffff021916908373ffffffffffffffffffffffffffffffffffffffff16021790555080600160006101000a81548173ffffffffffffffffffffffffffffffffffffffff021916908373ffffffffffffffffffffffffffffffffffffffff16021790555050508360039080519060200190620000d492919062000128565b5082600260006101000a81548173ffffffffffffffffffffffffffffffffffffffff021916908373ffffffffffffffffffffffffffffffffffffffff16021790555060006004819055505050505062000465565b8280546200013690620003b7565b90600052602060002090601f0160209004810192826200015a5760008555620001a6565b82601f106200017557805160ff1916838001178555620001a6565b82800160010185558215620001a6579182015b82811115620001a557825182559160200191906001019062000188565b5b509050620001b59190620001b9565b5090565b5b80821115620001d4576000816000905550600101620001ba565b5090565b6000620001ef620001e9846200031a565b620002e6565b9050828152602081018484840111156200020857600080fd5b6200021584828562000381565b509392505050565b6000815190506200022e816200044b565b92915050565b600082601f8301126200024657600080fd5b815162000258848260208601620001d8565b91505092915050565b600080600080608085870312156200027857600080fd5b600085015167ffffffffffffffff8111156200029357600080fd5b620002a18782880162000234565b9450506020620002b4878288016200021d565b9350506040620002c7878288016200021d565b9250506060620002da878288016200021d565b91505092959194509250565b6000604051905081810181811067ffffffffffffffff8211171562000310576200030f6200041c565b5b8060405250919050565b600067ffffffffffffffff8211156200033857620003376200041c565b5b601f19601f8301169050602081019050919050565b60006200035a8262000361565b9050919050565b600073ffffffffffffffffffffffffffffffffffffffff82169050919050565b60005b83811015620003a157808201518184015260208101905062000384565b83811115620003b1576000848401525b50505050565b60006002820490506001821680620003d057607f821691505b60208210811415620003e757620003e6620003ed565b5b50919050565b7f4e487b7100000000000000000000000000000000000000000000000000000000600052602260045260246000fd5b7f4e487b7100000000000000000000000000000000000000000000000000000000600052604160045260246000fd5b62000456816200034d565b81146200046257600080fd5b50565b610c6080620004756000396000f3fe6080604052600436106100e85760003560e01c8063a44026a31161008a578063f0d23e8f11610059578063f0d23e8f14610293578063f851a440146102d0578063f8b2cb4f146102fb578063ff4472c614610338576100e8565b8063a44026a314610205578063cf8d8ca014610230578063dc87c3af1461025b578063df791e5014610277576100e8565b806369328dec116100c657806369328dec1461017e578063703d795c146101a7578063a158657c146101d2578063a3e76c0f146101fb576100e8565b80631031cb5f146100ed57806347e7ef241461012a5780635fe3b56714610153575b600080fd5b3480156100f957600080fd5b50610114600480360381019061010f91906107c3565b610354565b6040516101219190610a73565b60405180910390f35b34801561013657600080fd5b50610151600480360381019061014c919061083b565b6103e6565b005b34801561015f57600080fd5b506101686103ea565b6040516101759190610a16565b60405180910390f35b34801561018a57600080fd5b506101a560048036038101906101a09190610877565b61040e565b005b3480156101b357600080fd5b506101bc6104a3565b6040516101c99190610a73565b60405180910390f35b3480156101de57600080fd5b506101f960048036038101906101f491906108ef565b610557565b005b6102036105eb565b005b34801561021157600080fd5b5061021a6105ed565b60405161022791906109fb565b60405180910390f35b34801561023c57600080fd5b50610245610613565b6040516102529190610a31565b60405180910390f35b610275600480360381019061027091906107ec565b6106a1565b005b610291600480360381019061028c91906107ec565b6106a6565b005b34801561029f57600080fd5b506102ba60048036038101906102b591906107c3565b6106ab565b6040516102c79190610a73565b60405180910390f35b3480156102dc57600080fd5b506102e561073f565b6040516102f291906109e0565b60405180910390f35b34801561030757600080fd5b50610322600480360381019061031d91906107c3565b610765565b60405161032f9190610a73565b60405180910390f35b610352600480360381019061034d91906107c3565b61076c565b005b60008173ffffffffffffffffffffffffffffffffffffffff166370a08231306040518263ffffffff1660e01b815260040161038f91906109e0565b60206040518083038186803b1580156103a757600080fd5b505afa1580156103bb573d6000803e3d6000fd5b505050506040513d601f19601f820116820180604052508101906103df91906108c6565b9050919050565b5050565b60008054906101000a900473ffffffffffffffffffffffffffffffffffffffff1681565b600260009054906101000a900473ffffffffffffffffffffffffffffffffffffffff1673ffffffffffffffffffffffffffffffffffffffff163373ffffffffffffffffffffffffffffffffffffffff161461049e576040517f08c379a000000000000000000000000000000000000000000000000000000000815260040161049590610a53565b60405180910390fd5b505050565b6000600160009054906101000a900473ffffffffffffffffffffffffffffffffffffffff1673ffffffffffffffffffffffffffffffffffffffff16633af9e669306040518263ffffffff1660e01b815260040161050091906109e0565b602060405180830381600087803b15801561051a57600080fd5b505af115801561052e573d6000803e3d6000fd5b505050506040513d601f19601f8201168201806040525081019061055291906108c6565b905090565b600260009054906101000a900473ffffffffffffffffffffffffffffffffffffffff1673ffffffffffffffffffffffffffffffffffffffff163373ffffffffffffffffffffffffffffffffffffffff16146105e7576040517f08c379a00000000000000000000000000000000000000000000000000000000081526004016105de90610a53565b60405180910390fd5b5050565b565b600160009054906101000a900473ffffffffffffffffffffffffffffffffffffffff1681565b6003805461062090610b73565b80601f016020809104026020016040519081016040528092919081815260200182805461064c90610b73565b80156106995780601f1061066e57610100808354040283529160200191610699565b820191906000526020600020905b81548152906001019060200180831161067c57829003601f168201915b505050505081565b505050565b505050565b60008173ffffffffffffffffffffffffffffffffffffffff16633af9e669306040518263ffffffff1660e01b81526004016106e691906109e0565b602060405180830381600087803b15801561070057600080fd5b505af1158015610714573d6000803e3d6000fd5b505050506040513d601f19601f8201168201806040525081019061073891906108c6565b9050919050565b600260009054906101000a900473ffffffffffffffffffffffffffffffffffffffff1681565b6000919050565b50565b60008135905061077e81610be5565b92915050565b60008135905061079381610bfc565b92915050565b6000813590506107a881610c13565b92915050565b6000815190506107bd81610c13565b92915050565b6000602082840312156107d557600080fd5b60006107e38482850161076f565b91505092915050565b60008060006060848603121561080157600080fd5b600061080f8682870161076f565b93505060206108208682870161076f565b925050604061083186828701610799565b9150509250925092565b6000806040838503121561084e57600080fd5b600061085c8582860161076f565b925050602061086d85828601610799565b9150509250929050565b60008060006060848603121561088c57600080fd5b600061089a8682870161076f565b93505060206108ab86828701610799565b92505060406108bc8682870161076f565b9150509250925092565b6000602082840312156108d857600080fd5b60006108e6848285016107ae565b91505092915050565b6000806040838503121561090257600080fd5b600061091085828601610799565b925050602061092185828601610784565b9150509250929050565b61093481610aaa565b82525050565b61094381610af8565b82525050565b61095281610b1c565b82525050565b600061096382610a8e565b61096d8185610a99565b935061097d818560208601610b40565b61098681610bd4565b840191505092915050565b600061099e600a83610a99565b91507f6f6e6c792061646d696e000000000000000000000000000000000000000000006000830152602082019050919050565b6109da81610aee565b82525050565b60006020820190506109f5600083018461092b565b92915050565b6000602082019050610a10600083018461093a565b92915050565b6000602082019050610a2b6000830184610949565b92915050565b60006020820190508181036000830152610a4b8184610958565b905092915050565b60006020820190508181036000830152610a6c81610991565b9050919050565b6000602082019050610a8860008301846109d1565b92915050565b600081519050919050565b600082825260208201905092915050565b6000610ab582610ace565b9050919050565b6000610ac782610ace565b9050919050565b600073ffffffffffffffffffffffffffffffffffffffff82169050919050565b6000819050919050565b6000610b0382610b0a565b9050919050565b6000610b1582610ace565b9050919050565b6000610b2782610b2e565b9050919050565b6000610b3982610ace565b9050919050565b60005b83811015610b5e578082015181840152602081019050610b43565b83811115610b6d576000848401525b50505050565b60006002820490506001821680610b8b57607f821691505b60208210811415610b9f57610b9e610ba5565b5b50919050565b7f4e487b7100000000000000000000000000000000000000000000000000000000600052602260045260246000fd5b6000601f19601f8301169050919050565b610bee81610aaa565b8114610bf957600080fd5b50565b610c0581610abc565b8114610c1057600080fd5b50565b610c1c81610aee565b8114610c2757600080fd5b5056fea26469706673582212200546fbae874972fec0d8020fa8c49dc888349d0bdaca573412f816623137150f64736f6c63430008000033",
  "immutableReferences": {},
  "source": "pragma solidity ^0.8.0;\nimport \"@openzeppelin/contracts/token/ERC20/IERC20.sol\";\n//import 'https://github.com/OpenZeppelin/openzeppelin-contracts/blob/release-v4.1/contracts/token/ERC20/IERC20.sol';\nimport './Compound.sol';\n\n    //'0x3d9819210a31b4961b30ef54be2aed79b9c9cd3b', //comptroller\n    //'0x4ddc2d193948926d02f9b1fe9e1daa0718270ed5'  //ceth\n\n//DefiWallie is a Wallet helper contract based on Compound - that helps a user deposit, save, pay, swap funds\n//Phase 2 will also build out common useful featues such as Order Routing, TWAP best price execution and flash loan arb\n\n//contract -- DefiWallie Wallet factory - creates and deploys a new DefiWallie contract which holds assets\ncontract DefiWallieFactory {\n\n    mapping(address => address[]) public allWallets;\n    //Compound specifics\n    address public comptroller;\n    address public cEth;\n\n    constructor(address _comptroller, address _cEthAddress) {\n        comptroller = _comptroller;\n        cEth = _cEthAddress;\n    }\n    //Create a DefiWallie wallet\n    function createWallie(string memory walletName) public returns (address) {\n        DefiWallie newWallie = new DefiWallie(walletName, msg.sender, comptroller, cEth );\n        allWallets[msg.sender].push(address(newWallie));\n        return address(newWallie);\n    }\n\n    //Gets a list of DefiWallie's that exist\n    function getWallies(address ownerAddress) public view returns (address[] memory){\n        return allWallets[ownerAddress];\n    }\n}\n\n//contract -- DefiWallie is a Wallet helper contract based on Compound - that helps a user deposit, save, pay, swap funds\ncontract DefiWallie is Compound {\n  address public admin;\n  string public walletName;\n\n  //DefiWallie holds a list of assets\n  struct Asset {\n        string description;\n        uint value;\n        address tokAddress;\n    }\n\n    //List of Assets held by DefiWallie contract\n    uint numAssets;\n    mapping (uint => Asset) assets;\n\n  //Restricted to admin only modifier\n  modifier restricted(){\n    require(msg.sender == admin,'only admin');\n    _;\n  }\n\n  //Construct a DefiWallie address - backed by Compound\n  constructor(\n    string memory _walletName,\n    address _creator,\n    address _comptroller,\n    address _cEthAddress\n    ) Compound(_comptroller, _cEthAddress)\n    {\n      walletName = _walletName;\n      admin = _creator;\n      numAssets = 0;\n    }\n\n  //Deposit funds\n  function deposit(\n    address tokAddress,\n    uint amount\n    ) external\n    {\n    }\n\n  //Recieve funds\n  function receive() external payable\n  {\n  }\n\n  //Withdraw funds\n  function withdraw(\n    address tokAddress,\n    uint amount,\n    address recipient\n    )\n    restricted() external\n  {\n  }\n\n   //Withdraw Eth\n   function withdrawEth(\n      uint amount,\n      address payable recipient\n      )\n      restricted() external\n    {\n    }\n\n    //Get Balance\n    function getBalance(address tokAddress) public view returns (uint) {\n\n    }\n\n    //Pay Bill\n    function payBill(address toAddress) external payable {\n    }\n\n    //Swap a token\n    function swap(address fromTokenAddress,address toTokenAddress,uint amount) external payable {\n    }\n\n    //Execute a TWAP executed token swap\n    function twapSwap(address fromTokenAddress,address toTokenAddress,uint amount) external payable {\n    }\n}\n",
  "sourcePath": "/Users/jcooper/py/crypto/consensys/blockchain-developer-bootcamp-final-project/eth/contracts/DefiWallieFactory.sol",
  "compiler": {
    "name": "solc",
    "version": "0.8.0+commit.c7dfd78e.Emscripten.clang"
  },
  "schemaVersion": "3.4.3",
  "updatedAt": "2021-11-09T22:48:29.961Z",
  "devdoc": {
    "kind": "dev",
    "methods": {},
    "version": 1
  },
  "userdoc": {
    "kind": "user",
    "methods": {},
    "version": 1
  }
}