{
  "_format": "hh-sol-artifact-1",
  "contractName": "DaoPayTreasury",
  "sourceName": "contracts/DaoPayTreasury.sol",
  "abi": [
    {
      "inputs": [
        {
          "internalType": "uint256",
          "name": "_supplyDaoToken",
          "type": "uint256"
        }
      ],
      "stateMutability": "nonpayable",
      "type": "constructor"
    },
    {
      "anonymous": false,
      "inputs": [
        {
          "indexed": false,
          "internalType": "string",
          "name": "str",
          "type": "string"
        }
      ],
      "name": "NewWorkstream",
      "type": "event"
    },
    {
      "anonymous": false,
      "inputs": [
        {
          "indexed": false,
          "internalType": "address",
          "name": "rcp",
          "type": "address"
        },
        {
          "indexed": false,
          "internalType": "uint256",
          "name": "amount",
          "type": "uint256"
        }
      ],
      "name": "PaidContributor",
      "type": "event"
    },
    {
      "inputs": [
        {
          "internalType": "string",
          "name": "_workstreamName",
          "type": "string"
        },
        {
          "internalType": "address",
          "name": "_workstreamOwner",
          "type": "address"
        }
      ],
      "name": "createDaoWorkstream",
      "outputs": [
        {
          "internalType": "address",
          "name": "",
          "type": "address"
        }
      ],
      "stateMutability": "nonpayable",
      "type": "function"
    },
    {
      "inputs": [],
      "name": "daoToken",
      "outputs": [
        {
          "internalType": "contract DAOToken",
          "name": "",
          "type": "address"
        }
      ],
      "stateMutability": "view",
      "type": "function"
    },
    {
      "inputs": [],
      "name": "getDaoToken",
      "outputs": [
        {
          "internalType": "address",
          "name": "",
          "type": "address"
        }
      ],
      "stateMutability": "view",
      "type": "function"
    },
    {
      "inputs": [],
      "name": "getDaoTokenOwnerBalance",
      "outputs": [
        {
          "internalType": "address",
          "name": "",
          "type": "address"
        },
        {
          "internalType": "address",
          "name": "",
          "type": "address"
        },
        {
          "internalType": "uint256",
          "name": "",
          "type": "uint256"
        }
      ],
      "stateMutability": "view",
      "type": "function"
    },
    {
      "inputs": [],
      "name": "getDaoWorkstreamNames",
      "outputs": [
        {
          "internalType": "string[]",
          "name": "",
          "type": "string[]"
        }
      ],
      "stateMutability": "view",
      "type": "function"
    },
    {
      "inputs": [],
      "name": "getDaoWorkstreams",
      "outputs": [
        {
          "internalType": "address[]",
          "name": "",
          "type": "address[]"
        }
      ],
      "stateMutability": "view",
      "type": "function"
    },
    {
      "inputs": [
        {
          "internalType": "uint256",
          "name": "",
          "type": "uint256"
        }
      ],
      "name": "listDaoWorkstreamNames",
      "outputs": [
        {
          "internalType": "string",
          "name": "",
          "type": "string"
        }
      ],
      "stateMutability": "view",
      "type": "function"
    },
    {
      "inputs": [
        {
          "internalType": "uint256",
          "name": "",
          "type": "uint256"
        }
      ],
      "name": "listDaoWorkstreams",
      "outputs": [
        {
          "internalType": "address",
          "name": "",
          "type": "address"
        }
      ],
      "stateMutability": "view",
      "type": "function"
    },
    {
      "inputs": [],
      "name": "owner",
      "outputs": [
        {
          "internalType": "address",
          "name": "",
          "type": "address"
        }
      ],
      "stateMutability": "view",
      "type": "function"
    },
    {
      "inputs": [
        {
          "internalType": "address payable",
          "name": "to",
          "type": "address"
        },
        {
          "internalType": "uint256",
          "name": "amount",
          "type": "uint256"
        }
      ],
      "name": "payContributor",
      "outputs": [],
      "stateMutability": "nonpayable",
      "type": "function"
    },
    {
      "inputs": [
        {
          "internalType": "address",
          "name": "workstreamAddr",
          "type": "address"
        },
        {
          "internalType": "uint256",
          "name": "index",
          "type": "uint256"
        }
      ],
      "name": "payContributorRequest",
      "outputs": [],
      "stateMutability": "nonpayable",
      "type": "function"
    },
    {
      "inputs": [],
      "name": "supplyDaoToken",
      "outputs": [
        {
          "internalType": "uint256",
          "name": "",
          "type": "uint256"
        }
      ],
      "stateMutability": "view",
      "type": "function"
    }
  ],
  "bytecode": "0x60806040523480156200001157600080fd5b50604051620056e4380380620056e48339818101604052810190620000379190620001cb565b336000806101000a81548173ffffffffffffffffffffffffffffffffffffffff021916908373ffffffffffffffffffffffffffffffffffffffff160217905550806001819055506040516200008c90620001a6565b604051809103906000f080158015620000a9573d6000803e3d6000fd5b50600260006101000a81548173ffffffffffffffffffffffffffffffffffffffff021916908373ffffffffffffffffffffffffffffffffffffffff160217905550600260009054906101000a900473ffffffffffffffffffffffffffffffffffffffff1673ffffffffffffffffffffffffffffffffffffffff166340c10f1960008054906101000a900473ffffffffffffffffffffffffffffffffffffffff166001546040518363ffffffff1660e01b81526004016200016b92919062000219565b600060405180830381600087803b1580156200018657600080fd5b505af11580156200019b573d6000803e3d6000fd5b50505050506200029e565b6118cd8062003e1783390190565b600081519050620001c58162000284565b92915050565b600060208284031215620001de57600080fd5b6000620001ee84828501620001b4565b91505092915050565b620002028162000246565b82525050565b62000213816200027a565b82525050565b6000604082019050620002306000830185620001f7565b6200023f602083018462000208565b9392505050565b600062000253826200025a565b9050919050565b600073ffffffffffffffffffffffffffffffffffffffff82169050919050565b6000819050919050565b6200028f816200027a565b81146200029b57600080fd5b50565b613b6980620002ae6000396000f3fe60806040523480156200001157600080fd5b5060043610620000c45760003560e01c8063780f9540116200007b578063780f954014620001bf5780638da5cb5b14620001df578063a024e1371462000201578063aace96891462000223578063f80817ef1462000259578063ff468aa9146200027b57620000c4565b80634914b03014620000c95780634c60220714620000eb5780635dc26cb114620001215780635e31d9cd14620001575780636c8c3499146200017957806372ce25f2146200019b575b600080fd5b620000d36200029b565b604051620000e2919062001633565b60405180910390f35b6200010960048036038101906200010391906200121b565b620002c1565b60405162000118919062001650565b60405180910390f35b6200013f60048036038101906200013991906200121b565b62000376565b6040516200014e9190620014fa565b60405180910390f35b62000161620003b6565b6040516200017091906200170c565b60405180910390f35b62000183620003bc565b604051620001929190620014fa565b60405180910390f35b620001a5620003e6565b604051620001b69392919062001581565b60405180910390f35b620001dd6004803603810190620001d7919062001154565b620004eb565b005b620001e9620009aa565b604051620001f89190620014fa565b60405180910390f35b6200020b620009ce565b6040516200021a9190620015eb565b60405180910390f35b6200024160048036038101906200023b9190620011c1565b62000a5e565b604051620002509190620014fa565b60405180910390f35b6200026362000c5b565b6040516200027291906200160f565b60405180910390f35b62000299600480360381019062000293919062001113565b62000d3e565b005b600260009054906101000a900473ffffffffffffffffffffffffffffffffffffffff1681565b60048181548110620002d257600080fd5b906000526020600020016000915090508054620002ef9062001936565b80601f01602080910402602001604051908101604052809291908181526020018280546200031d9062001936565b80156200036e5780601f1062000342576101008083540402835291602001916200036e565b820191906000526020600020905b8154815290600101906020018083116200035057829003601f168201915b505050505081565b600381815481106200038757600080fd5b906000526020600020016000915054906101000a900473ffffffffffffffffffffffffffffffffffffffff1681565b60015481565b6000600260009054906101000a900473ffffffffffffffffffffffffffffffffffffffff16905090565b6000806000600260009054906101000a900473ffffffffffffffffffffffffffffffffffffffff1630600260009054906101000a900473ffffffffffffffffffffffffffffffffffffffff1673ffffffffffffffffffffffffffffffffffffffff166370a0823160008054906101000a900473ffffffffffffffffffffffffffffffffffffffff166040518263ffffffff1660e01b81526004016200048c9190620014fa565b60206040518083038186803b158015620004a557600080fd5b505afa158015620004ba573d6000803e3d6000fd5b505050506040513d601f19601f82011682018060405250810190620004e0919062001247565b925092509250909192565b60008054906101000a900473ffffffffffffffffffffffffffffffffffffffff1673ffffffffffffffffffffffffffffffffffffffff163373ffffffffffffffffffffffffffffffffffffffff16146200057c576040517f08c379a00000000000000000000000000000000000000000000000000000000081526004016200057390620016c8565b60405180910390fd5b60008290506000600260009054906101000a900473ffffffffffffffffffffffffffffffffffffffff1673ffffffffffffffffffffffffffffffffffffffff166323b872dd60008054906101000a900473ffffffffffffffffffffffffffffffffffffffff168473ffffffffffffffffffffffffffffffffffffffff16635b8575a9876040518263ffffffff1660e01b81526004016200061d91906200170c565b60206040518083038186803b1580156200063657600080fd5b505afa1580156200064b573d6000803e3d6000fd5b505050506040513d601f19601f82011682018060405250810190620006719190620010e7565b8573ffffffffffffffffffffffffffffffffffffffff1663519198ca886040518263ffffffff1660e01b8152600401620006ac91906200170c565b60206040518083038186803b158015620006c557600080fd5b505afa158015620006da573d6000803e3d6000fd5b505050506040513d601f19601f8201168201806040525081019062000700919062001247565b6040518463ffffffff1660e01b8152600401620007209392919062001581565b602060405180830381600087803b1580156200073b57600080fd5b505af115801562000750573d6000803e3d6000fd5b505050506040513d601f19601f8201168201806040525081019062000776919062001195565b905080620007bb576040517f08c379a0000000000000000000000000000000000000000000000000000000008152600401620007b290620016ea565b60405180910390fd5b8173ffffffffffffffffffffffffffffffffffffffff166363d4dd3b846040518263ffffffff1660e01b8152600401620007f691906200170c565b602060405180830381600087803b1580156200081157600080fd5b505af115801562000826573d6000803e3d6000fd5b505050506040513d601f19601f820116820180604052508101906200084c919062001195565b507fcac214c4e0fc2cbf96740a92f9c1eb42a96ce1ac9f89d46000db1c2afa03e1ad8273ffffffffffffffffffffffffffffffffffffffff16635b8575a9856040518263ffffffff1660e01b8152600401620008a991906200170c565b60206040518083038186803b158015620008c257600080fd5b505afa158015620008d7573d6000803e3d6000fd5b505050506040513d601f19601f82011682018060405250810190620008fd9190620010e7565b8373ffffffffffffffffffffffffffffffffffffffff1663519198ca866040518263ffffffff1660e01b81526004016200093891906200170c565b60206040518083038186803b1580156200095157600080fd5b505afa15801562000966573d6000803e3d6000fd5b505050506040513d601f19601f820116820180604052508101906200098c919062001247565b6040516200099c929190620015be565b60405180910390a150505050565b60008054906101000a900473ffffffffffffffffffffffffffffffffffffffff1681565b6060600380548060200260200160405190810160405280929190818152602001828054801562000a5457602002820191906000526020600020905b8160009054906101000a900473ffffffffffffffffffffffffffffffffffffffff1673ffffffffffffffffffffffffffffffffffffffff168152602001906001019080831162000a09575b5050505050905090565b60008060009054906101000a900473ffffffffffffffffffffffffffffffffffffffff1673ffffffffffffffffffffffffffffffffffffffff163373ffffffffffffffffffffffffffffffffffffffff161462000af2576040517f08c379a000000000000000000000000000000000000000000000000000000000815260040162000ae990620016c8565b60405180910390fd5b60008360008054906101000a900473ffffffffffffffffffffffffffffffffffffffff1684600260009054906101000a900473ffffffffffffffffffffffffffffffffffffffff1660405162000b489062000f2d565b62000b57949392919062001674565b604051809103906000f08015801562000b74573d6000803e3d6000fd5b5090506003819080600181540180825580915050600190039060005260206000200160009091909190916101000a81548173ffffffffffffffffffffffffffffffffffffffff021916908373ffffffffffffffffffffffffffffffffffffffff16021790555060048490806001815401808255809150506001900390600052602060002001600090919091909150908051906020019062000c1792919062000f3b565b507ff9a26503f5b8958d0e8ff9f9465f5c440007a7819f62cb679dafa07ab3195a928460405162000c49919062001650565b60405180910390a18091505092915050565b60606004805480602002602001604051908101604052809291908181526020016000905b8282101562000d3557838290600052602060002001805462000ca19062001936565b80601f016020809104026020016040519081016040528092919081815260200182805462000ccf9062001936565b801562000d205780601f1062000cf45761010080835404028352916020019162000d20565b820191906000526020600020905b81548152906001019060200180831162000d0257829003601f168201915b50505050508152602001906001019062000c7f565b50505050905090565b60008054906101000a900473ffffffffffffffffffffffffffffffffffffffff1673ffffffffffffffffffffffffffffffffffffffff163373ffffffffffffffffffffffffffffffffffffffff161462000dcf576040517f08c379a000000000000000000000000000000000000000000000000000000000815260040162000dc690620016c8565b60405180910390fd5b6000600260009054906101000a900473ffffffffffffffffffffffffffffffffffffffff1673ffffffffffffffffffffffffffffffffffffffff166323b872dd60008054906101000a900473ffffffffffffffffffffffffffffffffffffffff1685856040518463ffffffff1660e01b815260040162000e529392919062001544565b602060405180830381600087803b15801562000e6d57600080fd5b505af115801562000e82573d6000803e3d6000fd5b505050506040513d601f19601f8201168201806040525081019062000ea8919062001195565b90508062000eed576040517f08c379a000000000000000000000000000000000000000000000000000000000815260040162000ee490620016ea565b60405180910390fd5b7fcac214c4e0fc2cbf96740a92f9c1eb42a96ce1ac9f89d46000db1c2afa03e1ad838360405162000f2092919062001517565b60405180910390a1505050565b6120f08062001a4483390190565b82805462000f499062001936565b90600052602060002090601f01602090048101928262000f6d576000855562000fb9565b82601f1062000f8857805160ff191683800117855562000fb9565b8280016001018555821562000fb9579182015b8281111562000fb857825182559160200191906001019062000f9b565b5b50905062000fc8919062000fcc565b5090565b5b8082111562000fe757600081600090555060010162000fcd565b5090565b60006200100262000ffc846200175d565b62001729565b9050828152602081018484840111156200101b57600080fd5b62001028848285620018f1565b509392505050565b6000813590506200104181620019db565b92915050565b6000815190506200105881620019db565b92915050565b6000813590506200106f81620019f5565b92915050565b600081519050620010868162001a0f565b92915050565b600082601f8301126200109e57600080fd5b8135620010b084826020860162000feb565b91505092915050565b600081359050620010ca8162001a29565b92915050565b600081519050620010e18162001a29565b92915050565b600060208284031215620010fa57600080fd5b60006200110a8482850162001047565b91505092915050565b600080604083850312156200112757600080fd5b600062001137858286016200105e565b92505060206200114a85828601620010b9565b9150509250929050565b600080604083850312156200116857600080fd5b6000620011788582860162001030565b92505060206200118b85828601620010b9565b9150509250929050565b600060208284031215620011a857600080fd5b6000620011b88482850162001075565b91505092915050565b60008060408385031215620011d557600080fd5b600083013567ffffffffffffffff811115620011f057600080fd5b620011fe858286016200108c565b9250506020620012118582860162001030565b9150509250929050565b6000602082840312156200122e57600080fd5b60006200123e84828501620010b9565b91505092915050565b6000602082840312156200125a57600080fd5b60006200126a84828501620010d0565b91505092915050565b6000620012818383620012c5565b60208301905092915050565b60006200129b8383620013e3565b905092915050565b620012ae816200188d565b82525050565b620012bf8162001843565b82525050565b620012d0816200182f565b82525050565b620012e1816200182f565b82525050565b6000620012f482620017b0565b620013008185620017eb565b93506200130d8362001790565b8060005b838110156200134457815162001328888262001273565b97506200133583620017d1565b92505060018101905062001311565b5085935050505092915050565b60006200135e82620017bb565b6200136a8185620017fc565b9350836020820285016200137e85620017a0565b8060005b85811015620013c057848403895281516200139e85826200128d565b9450620013ab83620017de565b925060208a0199505060018101905062001382565b50829750879550505050505092915050565b620013dd81620018a1565b82525050565b6000620013f082620017c6565b620013fc81856200180d565b93506200140e81856020860162001900565b6200141981620019ca565b840191505092915050565b60006200143182620017c6565b6200143d81856200181e565b93506200144f81856020860162001900565b6200145a81620019ca565b840191505092915050565b600062001474600a836200181e565b91507f6f6e6c792061646d696e000000000000000000000000000000000000000000006000830152602082019050919050565b6000620014b66015836200181e565b91507f546f6b656e207472616e73666572206661696c656400000000000000000000006000830152602082019050919050565b620014f48162001883565b82525050565b6000602082019050620015116000830184620012d6565b92915050565b60006040820190506200152e6000830185620012a3565b6200153d6020830184620014e9565b9392505050565b60006060820190506200155b6000830186620012d6565b6200156a6020830185620012a3565b620015796040830184620014e9565b949350505050565b6000606082019050620015986000830186620012d6565b620015a76020830185620012d6565b620015b66040830184620014e9565b949350505050565b6000604082019050620015d56000830185620012d6565b620015e46020830184620014e9565b9392505050565b60006020820190508181036000830152620016078184620012e7565b905092915050565b600060208201905081810360008301526200162b818462001351565b905092915050565b60006020820190506200164a6000830184620013d2565b92915050565b600060208201905081810360008301526200166c818462001424565b905092915050565b6000608082019050818103600083015262001690818762001424565b9050620016a16020830186620012d6565b620016b06040830185620012d6565b620016bf6060830184620012b4565b95945050505050565b60006020820190508181036000830152620016e38162001465565b9050919050565b600060208201905081810360008301526200170581620014a7565b9050919050565b6000602082019050620017236000830184620014e9565b92915050565b6000604051905081810181811067ffffffffffffffff821117156200175357620017526200199b565b5b8060405250919050565b600067ffffffffffffffff8211156200177b576200177a6200199b565b5b601f19601f8301169050602081019050919050565b6000819050602082019050919050565b6000819050602082019050919050565b600081519050919050565b600081519050919050565b600081519050919050565b6000602082019050919050565b6000602082019050919050565b600082825260208201905092915050565b600082825260208201905092915050565b600082825260208201905092915050565b600082825260208201905092915050565b60006200183c8262001863565b9050919050565b6000620018508262001863565b9050919050565b60008115159050919050565b600073ffffffffffffffffffffffffffffffffffffffff82169050919050565b6000819050919050565b60006200189a82620018c9565b9050919050565b6000620018ae82620018b5565b9050919050565b6000620018c28262001863565b9050919050565b6000620018d682620018dd565b9050919050565b6000620018ea8262001863565b9050919050565b82818337600083830152505050565b60005b838110156200192057808201518184015260208101905062001903565b8381111562001930576000848401525b50505050565b600060028204905060018216806200194f57607f821691505b602082108114156200196657620019656200196c565b5b50919050565b7f4e487b7100000000000000000000000000000000000000000000000000000000600052602260045260246000fd5b7f4e487b7100000000000000000000000000000000000000000000000000000000600052604160045260246000fd5b6000601f19601f8301169050919050565b620019e6816200182f565b8114620019f257600080fd5b50565b62001a008162001843565b811462001a0c57600080fd5b50565b62001a1a8162001857565b811462001a2657600080fd5b50565b62001a348162001883565b811462001a4057600080fd5b5056fe60806040523480156200001157600080fd5b50604051620020f0380380620020f083398181016040528101906200003791906200026c565b82600160006101000a81548173ffffffffffffffffffffffffffffffffffffffff021916908373ffffffffffffffffffffffffffffffffffffffff1602179055508360029080519060200190620000909291906200011c565b5080600360006101000a81548173ffffffffffffffffffffffffffffffffffffffff021916908373ffffffffffffffffffffffffffffffffffffffff160217905550816000806101000a81548173ffffffffffffffffffffffffffffffffffffffff021916908373ffffffffffffffffffffffffffffffffffffffff160217905550505050506200049e565b8280546200012a90620003d6565b90600052602060002090601f0160209004810192826200014e57600085556200019a565b82601f106200016957805160ff19168380011785556200019a565b828001600101855582156200019a579182015b82811115620001995782518255916020019190600101906200017c565b5b509050620001a99190620001ad565b5090565b5b80821115620001c8576000816000905550600101620001ae565b5090565b6000620001e3620001dd8462000325565b620002f1565b905082815260208101848484011115620001fc57600080fd5b62000209848285620003a0565b509392505050565b60008151905062000222816200046a565b92915050565b600081519050620002398162000484565b92915050565b600082601f8301126200025157600080fd5b815162000263848260208601620001cc565b91505092915050565b600080600080608085870312156200028357600080fd5b600085015167ffffffffffffffff8111156200029e57600080fd5b620002ac878288016200023f565b9450506020620002bf8782880162000211565b9350506040620002d28782880162000211565b9250506060620002e58782880162000228565b91505092959194509250565b6000604051905081810181811067ffffffffffffffff821117156200031b576200031a6200043b565b5b8060405250919050565b600067ffffffffffffffff8211156200034357620003426200043b565b5b601f19601f8301169050602081019050919050565b6000620003658262000380565b9050919050565b6000620003798262000380565b9050919050565b600073ffffffffffffffffffffffffffffffffffffffff82169050919050565b60005b83811015620003c0578082015181840152602081019050620003a3565b83811115620003d0576000848401525b50505050565b60006002820490506001821680620003ef57607f821691505b602082108114156200040657620004056200040c565b5b50919050565b7f4e487b7100000000000000000000000000000000000000000000000000000000600052602260045260246000fd5b7f4e487b7100000000000000000000000000000000000000000000000000000000600052604160045260246000fd5b620004758162000358565b81146200048157600080fd5b50565b6200048f816200036c565b81146200049b57600080fd5b50565b611c4280620004ae6000396000f3fe608060405234801561001057600080fd5b50600436106101215760003560e01c806363d4dd3b116100ad578063c11c4cfc11610071578063c11c4cfc1461031a578063c58343ef14610338578063d7d1bbdb1461036d578063dd71e3ac14610389578063e0abba57146103a557610121565b806363d4dd3b1461025d57806381d12c581461028d5780638a9cfd55146102c2578063ad7a672f146102de578063b69ef8a8146102fc57610121565b80634914b030116100f45780634914b030146101a3578063519198ca146101c157806353bf1de0146101f157806357b4d18e1461020f5780635b8575a91461022d57610121565b80632a881d6414610126578063319befc71461014457806340059bd7146101625780634051ddac14610180575b600080fd5b61012e6103c3565b60405161013b919061166c565b60405180910390f35b61014c6103ed565b604051610159919061166c565b60405180910390f35b61016a610416565b60405161017791906116f4565b60405180910390f35b6101886104a4565b60405161019a96959493929190611716565b60405180910390f35b6101ab610580565b6040516101b89190611687565b60405180910390f35b6101db60048036038101906101d69190611496565b6105a6565b6040516101e8919061181e565b60405180910390f35b6101f96105fb565b604051610206919061181e565b60405180910390f35b610217610608565b604051610224919061181e565b60405180910390f35b61024760048036038101906102429190611496565b61060e565b604051610254919061166c565b60405180910390f35b61027760048036038101906102729190611496565b610683565b60405161028491906116d9565b60405180910390f35b6102a760048036038101906102a29190611496565b6108c5565b6040516102b9969594939291906118a1565b60405180910390f35b6102dc60048036038101906102d7919061142f565b6109d3565b005b6102e6610b96565b6040516102f3919061181e565b60405180910390f35b610304610b9c565b604051610311919061181e565b60405180910390f35b610322610c70565b60405161032f91906116f4565b60405180910390f35b610352600480360381019061034d9190611496565b610d02565b60405161036496959493929190611839565b60405180910390f35b61038760048036038101906103829190611496565b610fae565b005b6103a3600480360381019061039e91906113ca565b61118d565b005b6103ad611265565b6040516103ba919061181e565b60405180910390f35b6000600160009054906101000a900473ffffffffffffffffffffffffffffffffffffffff16905090565b60008060009054906101000a900473ffffffffffffffffffffffffffffffffffffffff16905090565b6002805461042390611af7565b80601f016020809104026020016040519081016040528092919081815260200182805461044f90611af7565b801561049c5780601f106104715761010080835404028352916020019161049c565b820191906000526020600020905b81548152906001019060200180831161047f57829003601f168201915b505050505081565b60606000806000806000600260008054906101000a900473ffffffffffffffffffffffffffffffffffffffff166007546004805490506006546005548580546104ec90611af7565b80601f016020809104026020016040519081016040528092919081815260200182805461051890611af7565b80156105655780601f1061053a57610100808354040283529160200191610565565b820191906000526020600020905b81548152906001019060200180831161054857829003601f168201915b50505050509550955095509550955095509550909192939495565b600360009054906101000a900473ffffffffffffffffffffffffffffffffffffffff1681565b6000600482815481106105e2577f4e487b7100000000000000000000000000000000000000000000000000000000600052603260045260246000fd5b9060005260206000209060040201600201549050919050565b6000600480549050905090565b60065481565b60006004828154811061064a577f4e487b7100000000000000000000000000000000000000000000000000000000600052603260045260246000fd5b906000526020600020906004020160030160009054906101000a900473ffffffffffffffffffffffffffffffffffffffff169050919050565b6000600482815481106106bf577f4e487b7100000000000000000000000000000000000000000000000000000000600052603260045260246000fd5b906000526020600020906004020160030160149054906101000a900460ff166001151581151514610725576040517f08c379a000000000000000000000000000000000000000000000000000000000815260040161071c906117de565b60405180910390fd5b600160048481548110610761577f4e487b7100000000000000000000000000000000000000000000000000000000600052603260045260246000fd5b906000526020600020906004020160030160156101000a81548160ff021916908315150217905550600483815481106107c3577f4e487b7100000000000000000000000000000000000000000000000000000000600052603260045260246000fd5b906000526020600020906004020160020154600660008282546107e691906119f1565b925050819055507fe5cb0de7ffb63d788eceaabfe89c9e0f284c05dcfc5a672837508cc8b8da9c1d60048481548110610848577f4e487b7100000000000000000000000000000000000000000000000000000000600052603260045260246000fd5b906000526020600020906004020160010160048581548110610893577f4e487b7100000000000000000000000000000000000000000000000000000000600052603260045260246000fd5b9060005260206000209060040201600201546040516108b39291906117ae565b60405180910390a16001915050919050565b600481815481106108d557600080fd5b90600052602060002090600402016000915090508060000154908060010180546108fe90611af7565b80601f016020809104026020016040519081016040528092919081815260200182805461092a90611af7565b80156109775780601f1061094c57610100808354040283529160200191610977565b820191906000526020600020905b81548152906001019060200180831161095a57829003601f168201915b5050505050908060020154908060030160009054906101000a900473ffffffffffffffffffffffffffffffffffffffff16908060030160149054906101000a900460ff16908060030160159054906101000a900460ff16905086565b60006040518060c0016040528060048054905081526020018581526020018481526020018373ffffffffffffffffffffffffffffffffffffffff1681526020016000151581526020016000151581525090508260056000828254610a37919061199b565b925050819055508260066000828254610a50919061199b565b92505081905550600160076000828254610a6a919061199b565b925050819055506004819080600181540180825580915050600190039060005260206000209060040201600090919091909150600082015181600001556020820151816001019080519060200190610ac392919061126b565b506040820151816002015560608201518160030160006101000a81548173ffffffffffffffffffffffffffffffffffffffff021916908373ffffffffffffffffffffffffffffffffffffffff16021790555060808201518160030160146101000a81548160ff02191690831515021790555060a08201518160030160156101000a81548160ff02191690831515021790555050507f83d9cf902acb7b02aa62f18822d92bb65d3ecf930d0e3b98c6575a0e8dc542948484604051610b8892919061177e565b60405180910390a150505050565b60055481565b6000600360009054906101000a900473ffffffffffffffffffffffffffffffffffffffff1673ffffffffffffffffffffffffffffffffffffffff166370a08231600160009054906101000a900473ffffffffffffffffffffffffffffffffffffffff166040518263ffffffff1660e01b8152600401610c1b919061166c565b60206040518083038186803b158015610c3357600080fd5b505afa158015610c47573d6000803e3d6000fd5b505050506040513d601f19601f82011682018060405250810190610c6b91906114bf565b905090565b606060028054610c7f90611af7565b80601f0160208091040260200160405190810160405280929190818152602001828054610cab90611af7565b8015610cf85780601f10610ccd57610100808354040283529160200191610cf8565b820191906000526020600020905b815481529060010190602001808311610cdb57829003601f168201915b5050505050905090565b6000606060008060008060048781548110610d46577f4e487b7100000000000000000000000000000000000000000000000000000000600052603260045260246000fd5b90600052602060002090600402016000015460048881548110610d92577f4e487b7100000000000000000000000000000000000000000000000000000000600052603260045260246000fd5b906000526020600020906004020160010160048981548110610ddd577f4e487b7100000000000000000000000000000000000000000000000000000000600052603260045260246000fd5b906000526020600020906004020160030160009054906101000a900473ffffffffffffffffffffffffffffffffffffffff1660048a81548110610e49577f4e487b7100000000000000000000000000000000000000000000000000000000600052603260045260246000fd5b90600052602060002090600402016002015460048b81548110610e95577f4e487b7100000000000000000000000000000000000000000000000000000000600052603260045260246000fd5b906000526020600020906004020160030160149054906101000a900460ff1660048c81548110610eee577f4e487b7100000000000000000000000000000000000000000000000000000000600052603260045260246000fd5b906000526020600020906004020160030160159054906101000a900460ff16848054610f1990611af7565b80601f0160208091040260200160405190810160405280929190818152602001828054610f4590611af7565b8015610f925780601f10610f6757610100808354040283529160200191610f92565b820191906000526020600020905b815481529060010190602001808311610f7557829003601f168201915b5050505050945095509550955095509550955091939550919395565b600160009054906101000a900473ffffffffffffffffffffffffffffffffffffffff1673ffffffffffffffffffffffffffffffffffffffff163373ffffffffffffffffffffffffffffffffffffffff161461103e576040517f08c379a0000000000000000000000000000000000000000000000000000000008152600401611035906117fe565b60405180910390fd5b60016004828154811061107a577f4e487b7100000000000000000000000000000000000000000000000000000000600052603260045260246000fd5b906000526020600020906004020160030160146101000a81548160ff0219169083151502179055506001600760008282546110b591906119f1565b925050819055507f692b1741b55de15ddb2f2d0705372b4c5036e08678ecc135972ecfbd83bd453b60048281548110611117577f4e487b7100000000000000000000000000000000000000000000000000000000600052603260045260246000fd5b906000526020600020906004020160010160048381548110611162577f4e487b7100000000000000000000000000000000000000000000000000000000600052603260045260246000fd5b9060005260206000209060040201600201546040516111829291906117ae565b60405180910390a150565b600360009054906101000a900473ffffffffffffffffffffffffffffffffffffffff1673ffffffffffffffffffffffffffffffffffffffff166323b872dd600160009054906101000a900473ffffffffffffffffffffffffffffffffffffffff1684846040518463ffffffff1660e01b815260040161120e939291906116a2565b602060405180830381600087803b15801561122857600080fd5b505af115801561123c573d6000803e3d6000fd5b505050506040513d601f19601f820116820180604052508101906112609190611406565b505050565b60075481565b82805461127790611af7565b90600052602060002090601f01602090048101928261129957600085556112e0565b82601f106112b257805160ff19168380011785556112e0565b828001600101855582156112e0579182015b828111156112df5782518255916020019190600101906112c4565b5b5090506112ed91906112f1565b5090565b5b8082111561130a5760008160009055506001016112f2565b5090565b600061132161131c8461193a565b611909565b90508281526020810184848401111561133957600080fd5b611344848285611ab5565b509392505050565b60008135905061135b81611bc7565b92915050565b60008151905061137081611bde565b92915050565b600082601f83011261138757600080fd5b813561139784826020860161130e565b91505092915050565b6000813590506113af81611bf5565b92915050565b6000815190506113c481611bf5565b92915050565b600080604083850312156113dd57600080fd5b60006113eb8582860161134c565b92505060206113fc858286016113a0565b9150509250929050565b60006020828403121561141857600080fd5b600061142684828501611361565b91505092915050565b60008060006060848603121561144457600080fd5b600084013567ffffffffffffffff81111561145e57600080fd5b61146a86828701611376565b935050602061147b868287016113a0565b925050604061148c8682870161134c565b9150509250925092565b6000602082840312156114a857600080fd5b60006114b6848285016113a0565b91505092915050565b6000602082840312156114d157600080fd5b60006114df848285016113b5565b91505092915050565b6114f181611a7f565b82525050565b61150081611a37565b82525050565b61150f81611a25565b82525050565b61151e81611a49565b82525050565b600061152f8261197f565b611539818561198a565b9350611549818560208601611ac4565b61155281611bb6565b840191505092915050565b6000815461156a81611af7565b611574818661198a565b9450600182166000811461158f57600181146115a1576115d4565b60ff19831686526020860193506115d4565b6115aa8561196a565b60005b838110156115cc578154818901526001820191506020810190506115ad565b808801955050505b50505092915050565b60006115ea600c8361198a565b91507f4e4f5420617070726f76656400000000000000000000000000000000000000006000830152602082019050919050565b600061162a600e8361198a565b91507f6f6e6c792064616f206f776e65720000000000000000000000000000000000006000830152602082019050919050565b61166681611a75565b82525050565b60006020820190506116816000830184611506565b92915050565b600060208201905061169c60008301846114f7565b92915050565b60006060820190506116b76000830186611506565b6116c460208301856114e8565b6116d1604083018461165d565b949350505050565b60006020820190506116ee6000830184611515565b92915050565b6000602082019050818103600083015261170e8184611524565b905092915050565b600060c08201905081810360008301526117308189611524565b905061173f6020830188611506565b61174c604083018761165d565b611759606083018661165d565b611766608083018561165d565b61177360a083018461165d565b979650505050505050565b600060408201905081810360008301526117988185611524565b90506117a7602083018461165d565b9392505050565b600060408201905081810360008301526117c8818561155d565b90506117d7602083018461165d565b9392505050565b600060208201905081810360008301526117f7816115dd565b9050919050565b600060208201905081810360008301526118178161161d565b9050919050565b6000602082019050611833600083018461165d565b92915050565b600060c08201905061184e600083018961165d565b81810360208301526118608188611524565b905061186f6040830187611506565b61187c606083018661165d565b6118896080830185611515565b61189660a0830184611515565b979650505050505050565b600060c0820190506118b6600083018961165d565b81810360208301526118c88188611524565b90506118d7604083018761165d565b6118e460608301866114f7565b6118f16080830185611515565b6118fe60a0830184611515565b979650505050505050565b6000604051905081810181811067ffffffffffffffff821117156119305761192f611b87565b5b8060405250919050565b600067ffffffffffffffff82111561195557611954611b87565b5b601f19601f8301169050602081019050919050565b60008190508160005260206000209050919050565b600081519050919050565b600082825260208201905092915050565b60006119a682611a75565b91506119b183611a75565b9250827fffffffffffffffffffffffffffffffffffffffffffffffffffffffffffffffff038211156119e6576119e5611b29565b5b828201905092915050565b60006119fc82611a75565b9150611a0783611a75565b925082821015611a1a57611a19611b29565b5b828203905092915050565b6000611a3082611a55565b9050919050565b6000611a4282611a55565b9050919050565b60008115159050919050565b600073ffffffffffffffffffffffffffffffffffffffff82169050919050565b6000819050919050565b6000611a8a82611a91565b9050919050565b6000611a9c82611aa3565b9050919050565b6000611aae82611a55565b9050919050565b82818337600083830152505050565b60005b83811015611ae2578082015181840152602081019050611ac7565b83811115611af1576000848401525b50505050565b60006002820490506001821680611b0f57607f821691505b60208210811415611b2357611b22611b58565b5b50919050565b7f4e487b7100000000000000000000000000000000000000000000000000000000600052601160045260246000fd5b7f4e487b7100000000000000000000000000000000000000000000000000000000600052602260045260246000fd5b7f4e487b7100000000000000000000000000000000000000000000000000000000600052604160045260246000fd5b6000601f19601f8301169050919050565b611bd081611a37565b8114611bdb57600080fd5b50565b611be781611a49565b8114611bf257600080fd5b50565b611bfe81611a75565b8114611c0957600080fd5b5056fea264697066735822122003ddf80360f3afa749db843551324c49d25a3ccabbd67a9b7eafd0570a51b7a664736f6c63430008000033a264697066735822122017c04d3b2b4618efbd83d89dc4bb3bb355fda1451467e616b13b829f8e58a2b764736f6c6343000800003360806040523480156200001157600080fd5b506040518060400160405280600981526020017f44414f20546f6b656e00000000000000000000000000000000000000000000008152506040518060400160405280600481526020017f44414f5400000000000000000000000000000000000000000000000000000000815250816003908051906020019062000096929190620000f9565b508060049080519060200190620000af929190620000f9565b50505033600560006101000a81548173ffffffffffffffffffffffffffffffffffffffff021916908373ffffffffffffffffffffffffffffffffffffffff1602179055506200020e565b8280546200010790620001a9565b90600052602060002090601f0160209004810192826200012b576000855562000177565b82601f106200014657805160ff191683800117855562000177565b8280016001018555821562000177579182015b828111156200017657825182559160200191906001019062000159565b5b5090506200018691906200018a565b5090565b5b80821115620001a55760008160009055506001016200018b565b5090565b60006002820490506001821680620001c257607f821691505b60208210811415620001d957620001d8620001df565b5b50919050565b7f4e487b7100000000000000000000000000000000000000000000000000000000600052602260045260246000fd5b6116af806200021e6000396000f3fe608060405234801561001057600080fd5b50600436106100cf5760003560e01c806340c10f191161008c578063a457c2d711610066578063a457c2d714610228578063a9059cbb14610258578063dd62ed3e14610288578063f851a440146102b8576100cf565b806340c10f19146101be57806370a08231146101da57806395d89b411461020a576100cf565b806306fdde03146100d4578063095ea7b3146100f257806318160ddd1461012257806323b872dd14610140578063313ce56714610170578063395093511461018e575b600080fd5b6100dc6102d6565b6040516100e99190611338565b60405180910390f35b61010c60048036038101906101079190610f07565b610368565b604051610119919061131d565b60405180910390f35b61012a610386565b604051610137919061147a565b60405180910390f35b61015a60048036038101906101559190610eb8565b610390565b604051610167919061131d565b60405180910390f35b610178610488565b6040516101859190611495565b60405180910390f35b6101a860048036038101906101a39190610f07565b610491565b6040516101b5919061131d565b60405180910390f35b6101d860048036038101906101d39190610f07565b61053d565b005b6101f460048036038101906101ef9190610e53565b6105db565b604051610201919061147a565b60405180910390f35b610212610623565b60405161021f9190611338565b60405180910390f35b610242600480360381019061023d9190610f07565b6106b5565b60405161024f919061131d565b60405180910390f35b610272600480360381019061026d9190610f07565b6107a0565b60405161027f919061131d565b60405180910390f35b6102a2600480360381019061029d9190610e7c565b6107be565b6040516102af919061147a565b60405180910390f35b6102c0610845565b6040516102cd9190611302565b60405180910390f35b6060600380546102e5906115aa565b80601f0160208091040260200160405190810160405280929190818152602001828054610311906115aa565b801561035e5780601f106103335761010080835404028352916020019161035e565b820191906000526020600020905b81548152906001019060200180831161034157829003601f168201915b5050505050905090565b600061037c61037561086b565b8484610873565b6001905092915050565b6000600254905090565b600061039d848484610a3e565b6000600160008673ffffffffffffffffffffffffffffffffffffffff1673ffffffffffffffffffffffffffffffffffffffff16815260200190815260200160002060006103e861086b565b73ffffffffffffffffffffffffffffffffffffffff1673ffffffffffffffffffffffffffffffffffffffff16815260200190815260200160002054905082811015610468576040517f08c379a000000000000000000000000000000000000000000000000000000000815260040161045f906113da565b60405180910390fd5b61047c8561047461086b565b858403610873565b60019150509392505050565b60006012905090565b600061053361049e61086b565b8484600160006104ac61086b565b73ffffffffffffffffffffffffffffffffffffffff1673ffffffffffffffffffffffffffffffffffffffff16815260200190815260200160002060008873ffffffffffffffffffffffffffffffffffffffff1673ffffffffffffffffffffffffffffffffffffffff1681526020019081526020016000205461052e91906114cc565b610873565b6001905092915050565b600560009054906101000a900473ffffffffffffffffffffffffffffffffffffffff1673ffffffffffffffffffffffffffffffffffffffff163373ffffffffffffffffffffffffffffffffffffffff16146105cd576040517f08c379a00000000000000000000000000000000000000000000000000000000081526004016105c4906113ba565b60405180910390fd5b6105d78282610cbf565b5050565b60008060008373ffffffffffffffffffffffffffffffffffffffff1673ffffffffffffffffffffffffffffffffffffffff168152602001908152602001600020549050919050565b606060048054610632906115aa565b80601f016020809104026020016040519081016040528092919081815260200182805461065e906115aa565b80156106ab5780601f10610680576101008083540402835291602001916106ab565b820191906000526020600020905b81548152906001019060200180831161068e57829003601f168201915b5050505050905090565b600080600160006106c461086b565b73ffffffffffffffffffffffffffffffffffffffff1673ffffffffffffffffffffffffffffffffffffffff16815260200190815260200160002060008573ffffffffffffffffffffffffffffffffffffffff1673ffffffffffffffffffffffffffffffffffffffff16815260200190815260200160002054905082811015610781576040517f08c379a00000000000000000000000000000000000000000000000000000000081526004016107789061143a565b60405180910390fd5b61079561078c61086b565b85858403610873565b600191505092915050565b60006107b46107ad61086b565b8484610a3e565b6001905092915050565b6000600160008473ffffffffffffffffffffffffffffffffffffffff1673ffffffffffffffffffffffffffffffffffffffff16815260200190815260200160002060008373ffffffffffffffffffffffffffffffffffffffff1673ffffffffffffffffffffffffffffffffffffffff16815260200190815260200160002054905092915050565b600560009054906101000a900473ffffffffffffffffffffffffffffffffffffffff1681565b600033905090565b600073ffffffffffffffffffffffffffffffffffffffff168373ffffffffffffffffffffffffffffffffffffffff1614156108e3576040517f08c379a00000000000000000000000000000000000000000000000000000000081526004016108da9061141a565b60405180910390fd5b600073ffffffffffffffffffffffffffffffffffffffff168273ffffffffffffffffffffffffffffffffffffffff161415610953576040517f08c379a000000000000000000000000000000000000000000000000000000000815260040161094a9061137a565b60405180910390fd5b80600160008573ffffffffffffffffffffffffffffffffffffffff1673ffffffffffffffffffffffffffffffffffffffff16815260200190815260200160002060008473ffffffffffffffffffffffffffffffffffffffff1673ffffffffffffffffffffffffffffffffffffffff168152602001908152602001600020819055508173ffffffffffffffffffffffffffffffffffffffff168373ffffffffffffffffffffffffffffffffffffffff167f8c5be1e5ebec7d5bd14f71427d1e84f3dd0314c0f7b2291e5b200ac8c7c3b92583604051610a31919061147a565b60405180910390a3505050565b600073ffffffffffffffffffffffffffffffffffffffff168373ffffffffffffffffffffffffffffffffffffffff161415610aae576040517f08c379a0000000000000000000000000000000000000000000000000000000008152600401610aa5906113fa565b60405180910390fd5b600073ffffffffffffffffffffffffffffffffffffffff168273ffffffffffffffffffffffffffffffffffffffff161415610b1e576040517f08c379a0000000000000000000000000000000000000000000000000000000008152600401610b159061135a565b60405180910390fd5b610b29838383610e1f565b60008060008573ffffffffffffffffffffffffffffffffffffffff1673ffffffffffffffffffffffffffffffffffffffff16815260200190815260200160002054905081811015610baf576040517f08c379a0000000000000000000000000000000000000000000000000000000008152600401610ba69061139a565b60405180910390fd5b8181036000808673ffffffffffffffffffffffffffffffffffffffff1673ffffffffffffffffffffffffffffffffffffffff16815260200190815260200160002081905550816000808573ffffffffffffffffffffffffffffffffffffffff1673ffffffffffffffffffffffffffffffffffffffff1681526020019081526020016000206000828254610c4291906114cc565b925050819055508273ffffffffffffffffffffffffffffffffffffffff168473ffffffffffffffffffffffffffffffffffffffff167fddf252ad1be2c89b69c2b068fc378daa952ba7f163c4a11628f55a4df523b3ef84604051610ca6919061147a565b60405180910390a3610cb9848484610e24565b50505050565b600073ffffffffffffffffffffffffffffffffffffffff168273ffffffffffffffffffffffffffffffffffffffff161415610d2f576040517f08c379a0000000000000000000000000000000000000000000000000000000008152600401610d269061145a565b60405180910390fd5b610d3b60008383610e1f565b8060026000828254610d4d91906114cc565b92505081905550806000808473ffffffffffffffffffffffffffffffffffffffff1673ffffffffffffffffffffffffffffffffffffffff1681526020019081526020016000206000828254610da291906114cc565b925050819055508173ffffffffffffffffffffffffffffffffffffffff16600073ffffffffffffffffffffffffffffffffffffffff167fddf252ad1be2c89b69c2b068fc378daa952ba7f163c4a11628f55a4df523b3ef83604051610e07919061147a565b60405180910390a3610e1b60008383610e24565b5050565b505050565b505050565b600081359050610e388161164b565b92915050565b600081359050610e4d81611662565b92915050565b600060208284031215610e6557600080fd5b6000610e7384828501610e29565b91505092915050565b60008060408385031215610e8f57600080fd5b6000610e9d85828601610e29565b9250506020610eae85828601610e29565b9150509250929050565b600080600060608486031215610ecd57600080fd5b6000610edb86828701610e29565b9350506020610eec86828701610e29565b9250506040610efd86828701610e3e565b9150509250925092565b60008060408385031215610f1a57600080fd5b6000610f2885828601610e29565b9250506020610f3985828601610e3e565b9150509250929050565b610f4c81611522565b82525050565b610f5b81611534565b82525050565b6000610f6c826114b0565b610f7681856114bb565b9350610f86818560208601611577565b610f8f8161163a565b840191505092915050565b6000610fa76023836114bb565b91507f45524332303a207472616e7366657220746f20746865207a65726f206164647260008301527f65737300000000000000000000000000000000000000000000000000000000006020830152604082019050919050565b600061100d6022836114bb565b91507f45524332303a20617070726f766520746f20746865207a65726f20616464726560008301527f73730000000000000000000000000000000000000000000000000000000000006020830152604082019050919050565b60006110736026836114bb565b91507f45524332303a207472616e7366657220616d6f756e742065786365656473206260008301527f616c616e636500000000000000000000000000000000000000000000000000006020830152604082019050919050565b60006110d9600a836114bb565b91507f6f6e6c792061646d696e000000000000000000000000000000000000000000006000830152602082019050919050565b60006111196028836114bb565b91507f45524332303a207472616e7366657220616d6f756e742065786365656473206160008301527f6c6c6f77616e63650000000000000000000000000000000000000000000000006020830152604082019050919050565b600061117f6025836114bb565b91507f45524332303a207472616e736665722066726f6d20746865207a65726f20616460008301527f64726573730000000000000000000000000000000000000000000000000000006020830152604082019050919050565b60006111e56024836114bb565b91507f45524332303a20617070726f76652066726f6d20746865207a65726f2061646460008301527f72657373000000000000000000000000000000000000000000000000000000006020830152604082019050919050565b600061124b6025836114bb565b91507f45524332303a2064656372656173656420616c6c6f77616e63652062656c6f7760008301527f207a65726f0000000000000000000000000000000000000000000000000000006020830152604082019050919050565b60006112b1601f836114bb565b91507f45524332303a206d696e7420746f20746865207a65726f2061646472657373006000830152602082019050919050565b6112ed81611560565b82525050565b6112fc8161156a565b82525050565b60006020820190506113176000830184610f43565b92915050565b60006020820190506113326000830184610f52565b92915050565b600060208201905081810360008301526113528184610f61565b905092915050565b6000602082019050818103600083015261137381610f9a565b9050919050565b6000602082019050818103600083015261139381611000565b9050919050565b600060208201905081810360008301526113b381611066565b9050919050565b600060208201905081810360008301526113d3816110cc565b9050919050565b600060208201905081810360008301526113f38161110c565b9050919050565b6000602082019050818103600083015261141381611172565b9050919050565b60006020820190508181036000830152611433816111d8565b9050919050565b600060208201905081810360008301526114538161123e565b9050919050565b60006020820190508181036000830152611473816112a4565b9050919050565b600060208201905061148f60008301846112e4565b92915050565b60006020820190506114aa60008301846112f3565b92915050565b600081519050919050565b600082825260208201905092915050565b60006114d782611560565b91506114e283611560565b9250827fffffffffffffffffffffffffffffffffffffffffffffffffffffffffffffffff03821115611517576115166115dc565b5b828201905092915050565b600061152d82611540565b9050919050565b60008115159050919050565b600073ffffffffffffffffffffffffffffffffffffffff82169050919050565b6000819050919050565b600060ff82169050919050565b60005b8381101561159557808201518184015260208101905061157a565b838111156115a4576000848401525b50505050565b600060028204905060018216806115c257607f821691505b602082108114156115d6576115d561160b565b5b50919050565b7f4e487b7100000000000000000000000000000000000000000000000000000000600052601160045260246000fd5b7f4e487b7100000000000000000000000000000000000000000000000000000000600052602260045260246000fd5b6000601f19601f8301169050919050565b61165481611522565b811461165f57600080fd5b50565b61166b81611560565b811461167657600080fd5b5056fea2646970667358221220df75d11ab305c283994a8bc98f78c6748a716bbbdde8fbae9c7c2ccc7d12570564736f6c63430008000033",
  "linkReferences": {},
  "deployedLinkReferences": {}
}