{
  "_format": "hh-sol-artifact-1",
  "contractName": "DaoWorkstream",
  "sourceName": "contracts/DaoPayTreasury.sol",
  "abi": [
    {
      "inputs": [
        {
          "internalType": "string",
          "name": "_workstreamName",
          "type": "string"
        },
        {
          "internalType": "address",
          "name": "_daoOwner",
          "type": "address"
        },
        {
          "internalType": "address",
          "name": "_workstreamOwner",
          "type": "address"
        },
        {
          "internalType": "address payable",
          "name": "_daoToken",
          "type": "address"
        }
      ],
      "stateMutability": "nonpayable",
      "type": "constructor"
    },
    {
      "inputs": [
        {
          "internalType": "uint256",
          "name": "index",
          "type": "uint256"
        }
      ],
      "name": "approveRequest",
      "outputs": [],
      "stateMutability": "nonpayable",
      "type": "function"
    },
    {
      "inputs": [],
      "name": "balance",
      "outputs": [
        {
          "internalType": "uint256",
          "name": "",
          "type": "uint256"
        }
      ],
      "stateMutability": "view",
      "type": "function"
    },
    {
      "inputs": [
        {
          "internalType": "string",
          "name": "description",
          "type": "string"
        },
        {
          "internalType": "uint256",
          "name": "value",
          "type": "uint256"
        },
        {
          "internalType": "address payable",
          "name": "recipient",
          "type": "address"
        }
      ],
      "name": "createRequest",
      "outputs": [],
      "stateMutability": "nonpayable",
      "type": "function"
    },
    {
      "inputs": [],
      "name": "daoToken",
      "outputs": [
        {
          "internalType": "address payable",
          "name": "",
          "type": "address"
        }
      ],
      "stateMutability": "view",
      "type": "function"
    },
    {
      "inputs": [
        {
          "internalType": "address payable",
          "name": "to",
          "type": "address"
        },
        {
          "internalType": "uint256",
          "name": "amount",
          "type": "uint256"
        }
      ],
      "name": "execPayment",
      "outputs": [],
      "stateMutability": "payable",
      "type": "function"
    },
    {
      "inputs": [],
      "name": "getDaoOwner",
      "outputs": [
        {
          "internalType": "address",
          "name": "",
          "type": "address"
        }
      ],
      "stateMutability": "view",
      "type": "function"
    },
    {
      "inputs": [
        {
          "internalType": "uint256",
          "name": "i",
          "type": "uint256"
        }
      ],
      "name": "getRequest",
      "outputs": [
        {
          "internalType": "uint256",
          "name": "id",
          "type": "uint256"
        },
        {
          "internalType": "string",
          "name": "",
          "type": "string"
        },
        {
          "internalType": "address",
          "name": "",
          "type": "address"
        },
        {
          "internalType": "uint256",
          "name": "",
          "type": "uint256"
        },
        {
          "internalType": "bool",
          "name": "",
          "type": "bool"
        },
        {
          "internalType": "bool",
          "name": "",
          "type": "bool"
        }
      ],
      "stateMutability": "view",
      "type": "function"
    },
    {
      "inputs": [],
      "name": "getRequestLength",
      "outputs": [
        {
          "internalType": "uint256",
          "name": "",
          "type": "uint256"
        }
      ],
      "stateMutability": "view",
      "type": "function"
    },
    {
      "inputs": [],
      "name": "getSummary",
      "outputs": [
        {
          "internalType": "string",
          "name": "",
          "type": "string"
        },
        {
          "internalType": "address",
          "name": "",
          "type": "address"
        },
        {
          "internalType": "uint256",
          "name": "",
          "type": "uint256"
        },
        {
          "internalType": "uint256",
          "name": "",
          "type": "uint256"
        },
        {
          "internalType": "uint256",
          "name": "",
          "type": "uint256"
        },
        {
          "internalType": "uint256",
          "name": "",
          "type": "uint256"
        }
      ],
      "stateMutability": "view",
      "type": "function"
    },
    {
      "inputs": [],
      "name": "getWorkstreamName",
      "outputs": [
        {
          "internalType": "string",
          "name": "",
          "type": "string"
        }
      ],
      "stateMutability": "view",
      "type": "function"
    },
    {
      "inputs": [],
      "name": "getWorkstreamOwner",
      "outputs": [
        {
          "internalType": "address",
          "name": "",
          "type": "address"
        }
      ],
      "stateMutability": "view",
      "type": "function"
    },
    {
      "inputs": [
        {
          "internalType": "uint256",
          "name": "index",
          "type": "uint256"
        }
      ],
      "name": "payRequest",
      "outputs": [],
      "stateMutability": "nonpayable",
      "type": "function"
    },
    {
      "inputs": [],
      "name": "pendingBalance",
      "outputs": [
        {
          "internalType": "uint256",
          "name": "",
          "type": "uint256"
        }
      ],
      "stateMutability": "view",
      "type": "function"
    },
    {
      "inputs": [],
      "name": "pendingRequestCount",
      "outputs": [
        {
          "internalType": "uint256",
          "name": "",
          "type": "uint256"
        }
      ],
      "stateMutability": "view",
      "type": "function"
    },
    {
      "inputs": [
        {
          "internalType": "uint256",
          "name": "",
          "type": "uint256"
        }
      ],
      "name": "requests",
      "outputs": [
        {
          "internalType": "uint256",
          "name": "id",
          "type": "uint256"
        },
        {
          "internalType": "string",
          "name": "description",
          "type": "string"
        },
        {
          "internalType": "uint256",
          "name": "value",
          "type": "uint256"
        },
        {
          "internalType": "address payable",
          "name": "recipient",
          "type": "address"
        },
        {
          "internalType": "bool",
          "name": "approved",
          "type": "bool"
        },
        {
          "internalType": "bool",
          "name": "paid",
          "type": "bool"
        }
      ],
      "stateMutability": "view",
      "type": "function"
    },
    {
      "inputs": [],
      "name": "totalBalance",
      "outputs": [
        {
          "internalType": "uint256",
          "name": "",
          "type": "uint256"
        }
      ],
      "stateMutability": "view",
      "type": "function"
    },
    {
      "inputs": [],
      "name": "workstreamName",
      "outputs": [
        {
          "internalType": "string",
          "name": "",
          "type": "string"
        }
      ],
      "stateMutability": "view",
      "type": "function"
    }
  ],
  "bytecode": "0x60806040523480156200001157600080fd5b5060405162001f5238038062001f5283398181016040528101906200003791906200026c565b82600160006101000a81548173ffffffffffffffffffffffffffffffffffffffff021916908373ffffffffffffffffffffffffffffffffffffffff1602179055508360029080519060200190620000909291906200011c565b5080600360006101000a81548173ffffffffffffffffffffffffffffffffffffffff021916908373ffffffffffffffffffffffffffffffffffffffff160217905550816000806101000a81548173ffffffffffffffffffffffffffffffffffffffff021916908373ffffffffffffffffffffffffffffffffffffffff160217905550505050506200049e565b8280546200012a90620003d6565b90600052602060002090601f0160209004810192826200014e57600085556200019a565b82601f106200016957805160ff19168380011785556200019a565b828001600101855582156200019a579182015b82811115620001995782518255916020019190600101906200017c565b5b509050620001a99190620001ad565b5090565b5b80821115620001c8576000816000905550600101620001ae565b5090565b6000620001e3620001dd8462000325565b620002f1565b905082815260208101848484011115620001fc57600080fd5b62000209848285620003a0565b509392505050565b60008151905062000222816200046a565b92915050565b600081519050620002398162000484565b92915050565b600082601f8301126200025157600080fd5b815162000263848260208601620001cc565b91505092915050565b600080600080608085870312156200028357600080fd5b600085015167ffffffffffffffff8111156200029e57600080fd5b620002ac878288016200023f565b9450506020620002bf8782880162000211565b9350506040620002d28782880162000211565b9250506060620002e58782880162000228565b91505092959194509250565b6000604051905081810181811067ffffffffffffffff821117156200031b576200031a6200043b565b5b8060405250919050565b600067ffffffffffffffff8211156200034357620003426200043b565b5b601f19601f8301169050602081019050919050565b6000620003658262000380565b9050919050565b6000620003798262000380565b9050919050565b600073ffffffffffffffffffffffffffffffffffffffff82169050919050565b60005b83811015620003c0578082015181840152602081019050620003a3565b83811115620003d0576000848401525b50505050565b60006002820490506001821680620003ef57607f821691505b602082108114156200040657620004056200040c565b5b50919050565b7f4e487b7100000000000000000000000000000000000000000000000000000000600052602260045260246000fd5b7f4e487b7100000000000000000000000000000000000000000000000000000000600052604160045260246000fd5b620004758162000358565b81146200048157600080fd5b50565b6200048f816200036c565b81146200049b57600080fd5b50565b611aa480620004ae6000396000f3fe6080604052600436106100fe5760003560e01c806381d12c5811610095578063c11c4cfc11610064578063c11c4cfc1461031f578063c58343ef1461034a578063d7d1bbdb1461038c578063dd71e3ac146103b5578063e0abba57146103d1576100fe565b806381d12c581461025e5780638a9cfd55146102a0578063ad7a672f146102c9578063b69ef8a8146102f4576100fe565b80634914b030116100d15780634914b030146101b457806353bf1de0146101df57806357b4d18e1461020a57806363d4dd3b14610235576100fe565b80632a881d6414610103578063319befc71461012e57806340059bd7146101595780634051ddac14610184575b600080fd5b34801561010f57600080fd5b506101186103fc565b604051610125919061155e565b60405180910390f35b34801561013a57600080fd5b50610143610426565b604051610150919061155e565b60405180910390f35b34801561016557600080fd5b5061016e61044f565b60405161017b91906115cb565b60405180910390f35b34801561019057600080fd5b506101996104dd565b6040516101ab969594939291906115ed565b60405180910390f35b3480156101c057600080fd5b506101c96105b9565b6040516101d69190611579565b60405180910390f35b3480156101eb57600080fd5b506101f46105df565b6040516102019190611695565b60405180910390f35b34801561021657600080fd5b5061021f6105ec565b60405161022c9190611695565b60405180910390f35b34801561024157600080fd5b5061025c60048036038101906102579190611408565b6105f2565b005b34801561026a57600080fd5b5061028560048036038101906102809190611408565b6108ae565b60405161029796959493929190611718565b60405180910390f35b3480156102ac57600080fd5b506102c760048036038101906102c291906113a1565b6109bc565b005b3480156102d557600080fd5b506102de610b46565b6040516102eb9190611695565b60405180910390f35b34801561030057600080fd5b50610309610b4c565b6040516103169190611695565b60405180910390f35b34801561032b57600080fd5b50610334610c20565b60405161034191906115cb565b60405180910390f35b34801561035657600080fd5b50610371600480360381019061036c9190611408565b610cb2565b604051610383969594939291906116b0565b60405180910390f35b34801561039857600080fd5b506103b360048036038101906103ae9190611408565b610f5e565b005b6103cf60048036038101906103ca919061133c565b61106f565b005b3480156103dd57600080fd5b506103e66111d7565b6040516103f39190611695565b60405180910390f35b6000600160009054906101000a900473ffffffffffffffffffffffffffffffffffffffff16905090565b60008060009054906101000a900473ffffffffffffffffffffffffffffffffffffffff16905090565b6002805461045c90611959565b80601f016020809104026020016040519081016040528092919081815260200182805461048890611959565b80156104d55780601f106104aa576101008083540402835291602001916104d5565b820191906000526020600020905b8154815290600101906020018083116104b857829003601f168201915b505050505081565b60606000806000806000600260008054906101000a900473ffffffffffffffffffffffffffffffffffffffff1660075460048054905060065460055485805461052590611959565b80601f016020809104026020016040519081016040528092919081815260200182805461055190611959565b801561059e5780601f106105735761010080835404028352916020019161059e565b820191906000526020600020905b81548152906001019060200180831161058157829003601f168201915b50505050509550955095509550955095509550909192939495565b600360009054906101000a900473ffffffffffffffffffffffffffffffffffffffff1681565b6000600480549050905090565b60065481565b600160009054906101000a900473ffffffffffffffffffffffffffffffffffffffff1673ffffffffffffffffffffffffffffffffffffffff163373ffffffffffffffffffffffffffffffffffffffff1614610682576040517f08c379a000000000000000000000000000000000000000000000000000000000815260040161067990611675565b60405180910390fd5b600481815481106106bc577f4e487b7100000000000000000000000000000000000000000000000000000000600052603260045260246000fd5b906000526020600020906004020160030160149054906101000a900460ff166001151581151514610722576040517f08c379a000000000000000000000000000000000000000000000000000000000815260040161071990611655565b60405180910390fd5b60016004838154811061075e577f4e487b7100000000000000000000000000000000000000000000000000000000600052603260045260246000fd5b906000526020600020906004020160030160156101000a81548160ff021916908315150217905550610846600483815481106107c3577f4e487b7100000000000000000000000000000000000000000000000000000000600052603260045260246000fd5b906000526020600020906004020160030160009054906101000a900473ffffffffffffffffffffffffffffffffffffffff166004848154811061082f577f4e487b7100000000000000000000000000000000000000000000000000000000600052603260045260246000fd5b90600052602060002090600402016002015461106f565b60048281548110610880577f4e487b7100000000000000000000000000000000000000000000000000000000600052603260045260246000fd5b906000526020600020906004020160020154600660008282546108a39190611853565b925050819055505050565b600481815481106108be57600080fd5b90600052602060002090600402016000915090508060000154908060010180546108e790611959565b80601f016020809104026020016040519081016040528092919081815260200182805461091390611959565b80156109605780601f1061093557610100808354040283529160200191610960565b820191906000526020600020905b81548152906001019060200180831161094357829003601f168201915b5050505050908060020154908060030160009054906101000a900473ffffffffffffffffffffffffffffffffffffffff16908060030160149054906101000a900460ff16908060030160159054906101000a900460ff16905086565b60006040518060c0016040528060048054905081526020018581526020018481526020018373ffffffffffffffffffffffffffffffffffffffff1681526020016000151581526020016000151581525090508260056000828254610a2091906117fd565b925050819055508260066000828254610a3991906117fd565b92505081905550600160076000828254610a5391906117fd565b925050819055506004819080600181540180825580915050600190039060005260206000209060040201600090919091909150600082015181600001556020820151816001019080519060200190610aac9291906111dd565b506040820151816002015560608201518160030160006101000a81548173ffffffffffffffffffffffffffffffffffffffff021916908373ffffffffffffffffffffffffffffffffffffffff16021790555060808201518160030160146101000a81548160ff02191690831515021790555060a08201518160030160156101000a81548160ff021916908315150217905550505050505050565b60055481565b6000600360009054906101000a900473ffffffffffffffffffffffffffffffffffffffff1673ffffffffffffffffffffffffffffffffffffffff166370a08231600160009054906101000a900473ffffffffffffffffffffffffffffffffffffffff166040518263ffffffff1660e01b8152600401610bcb919061155e565b60206040518083038186803b158015610be357600080fd5b505afa158015610bf7573d6000803e3d6000fd5b505050506040513d601f19601f82011682018060405250810190610c1b9190611431565b905090565b606060028054610c2f90611959565b80601f0160208091040260200160405190810160405280929190818152602001828054610c5b90611959565b8015610ca85780601f10610c7d57610100808354040283529160200191610ca8565b820191906000526020600020905b815481529060010190602001808311610c8b57829003601f168201915b5050505050905090565b6000606060008060008060048781548110610cf6577f4e487b7100000000000000000000000000000000000000000000000000000000600052603260045260246000fd5b90600052602060002090600402016000015460048881548110610d42577f4e487b7100000000000000000000000000000000000000000000000000000000600052603260045260246000fd5b906000526020600020906004020160010160048981548110610d8d577f4e487b7100000000000000000000000000000000000000000000000000000000600052603260045260246000fd5b906000526020600020906004020160030160009054906101000a900473ffffffffffffffffffffffffffffffffffffffff1660048a81548110610df9577f4e487b7100000000000000000000000000000000000000000000000000000000600052603260045260246000fd5b90600052602060002090600402016002015460048b81548110610e45577f4e487b7100000000000000000000000000000000000000000000000000000000600052603260045260246000fd5b906000526020600020906004020160030160149054906101000a900460ff1660048c81548110610e9e577f4e487b7100000000000000000000000000000000000000000000000000000000600052603260045260246000fd5b906000526020600020906004020160030160159054906101000a900460ff16848054610ec990611959565b80601f0160208091040260200160405190810160405280929190818152602001828054610ef590611959565b8015610f425780601f10610f1757610100808354040283529160200191610f42565b820191906000526020600020905b815481529060010190602001808311610f2557829003601f168201915b5050505050945095509550955095509550955091939550919395565b600160009054906101000a900473ffffffffffffffffffffffffffffffffffffffff1673ffffffffffffffffffffffffffffffffffffffff163373ffffffffffffffffffffffffffffffffffffffff1614610fee576040517f08c379a0000000000000000000000000000000000000000000000000000000008152600401610fe590611675565b60405180910390fd5b60016004828154811061102a577f4e487b7100000000000000000000000000000000000000000000000000000000600052603260045260246000fd5b906000526020600020906004020160030160146101000a81548160ff0219169083151502179055506001600760008282546110659190611853565b9250508190555050565b600160009054906101000a900473ffffffffffffffffffffffffffffffffffffffff1673ffffffffffffffffffffffffffffffffffffffff163373ffffffffffffffffffffffffffffffffffffffff16146110ff576040517f08c379a00000000000000000000000000000000000000000000000000000000081526004016110f690611675565b60405180910390fd5b600360009054906101000a900473ffffffffffffffffffffffffffffffffffffffff1673ffffffffffffffffffffffffffffffffffffffff166323b872dd600160009054906101000a900473ffffffffffffffffffffffffffffffffffffffff1684846040518463ffffffff1660e01b815260040161118093929190611594565b602060405180830381600087803b15801561119a57600080fd5b505af11580156111ae573d6000803e3d6000fd5b505050506040513d601f19601f820116820180604052508101906111d29190611378565b505050565b60075481565b8280546111e990611959565b90600052602060002090601f01602090048101928261120b5760008555611252565b82601f1061122457805160ff1916838001178555611252565b82800160010185558215611252579182015b82811115611251578251825591602001919060010190611236565b5b50905061125f9190611263565b5090565b5b8082111561127c576000816000905550600101611264565b5090565b600061129361128e846117b1565b611780565b9050828152602081018484840111156112ab57600080fd5b6112b6848285611917565b509392505050565b6000813590506112cd81611a29565b92915050565b6000815190506112e281611a40565b92915050565b600082601f8301126112f957600080fd5b8135611309848260208601611280565b91505092915050565b60008135905061132181611a57565b92915050565b60008151905061133681611a57565b92915050565b6000806040838503121561134f57600080fd5b600061135d858286016112be565b925050602061136e85828601611312565b9150509250929050565b60006020828403121561138a57600080fd5b6000611398848285016112d3565b91505092915050565b6000806000606084860312156113b657600080fd5b600084013567ffffffffffffffff8111156113d057600080fd5b6113dc868287016112e8565b93505060206113ed86828701611312565b92505060406113fe868287016112be565b9150509250925092565b60006020828403121561141a57600080fd5b600061142884828501611312565b91505092915050565b60006020828403121561144357600080fd5b600061145184828501611327565b91505092915050565b611463816118e1565b82525050565b61147281611899565b82525050565b61148181611887565b82525050565b611490816118ab565b82525050565b60006114a1826117e1565b6114ab81856117ec565b93506114bb818560208601611926565b6114c481611a18565b840191505092915050565b60006114dc600c836117ec565b91507f4e4f5420617070726f76656400000000000000000000000000000000000000006000830152602082019050919050565b600061151c600e836117ec565b91507f6f6e6c792064616f206f776e65720000000000000000000000000000000000006000830152602082019050919050565b611558816118d7565b82525050565b60006020820190506115736000830184611478565b92915050565b600060208201905061158e6000830184611469565b92915050565b60006060820190506115a96000830186611478565b6115b6602083018561145a565b6115c3604083018461154f565b949350505050565b600060208201905081810360008301526115e58184611496565b905092915050565b600060c08201905081810360008301526116078189611496565b90506116166020830188611478565b611623604083018761154f565b611630606083018661154f565b61163d608083018561154f565b61164a60a083018461154f565b979650505050505050565b6000602082019050818103600083015261166e816114cf565b9050919050565b6000602082019050818103600083015261168e8161150f565b9050919050565b60006020820190506116aa600083018461154f565b92915050565b600060c0820190506116c5600083018961154f565b81810360208301526116d78188611496565b90506116e66040830187611478565b6116f3606083018661154f565b6117006080830185611487565b61170d60a0830184611487565b979650505050505050565b600060c08201905061172d600083018961154f565b818103602083015261173f8188611496565b905061174e604083018761154f565b61175b6060830186611469565b6117686080830185611487565b61177560a0830184611487565b979650505050505050565b6000604051905081810181811067ffffffffffffffff821117156117a7576117a66119e9565b5b8060405250919050565b600067ffffffffffffffff8211156117cc576117cb6119e9565b5b601f19601f8301169050602081019050919050565b600081519050919050565b600082825260208201905092915050565b6000611808826118d7565b9150611813836118d7565b9250827fffffffffffffffffffffffffffffffffffffffffffffffffffffffffffffffff038211156118485761184761198b565b5b828201905092915050565b600061185e826118d7565b9150611869836118d7565b92508282101561187c5761187b61198b565b5b828203905092915050565b6000611892826118b7565b9050919050565b60006118a4826118b7565b9050919050565b60008115159050919050565b600073ffffffffffffffffffffffffffffffffffffffff82169050919050565b6000819050919050565b60006118ec826118f3565b9050919050565b60006118fe82611905565b9050919050565b6000611910826118b7565b9050919050565b82818337600083830152505050565b60005b83811015611944578082015181840152602081019050611929565b83811115611953576000848401525b50505050565b6000600282049050600182168061197157607f821691505b60208210811415611985576119846119ba565b5b50919050565b7f4e487b7100000000000000000000000000000000000000000000000000000000600052601160045260246000fd5b7f4e487b7100000000000000000000000000000000000000000000000000000000600052602260045260246000fd5b7f4e487b7100000000000000000000000000000000000000000000000000000000600052604160045260246000fd5b6000601f19601f8301169050919050565b611a3281611899565b8114611a3d57600080fd5b50565b611a49816118ab565b8114611a5457600080fd5b50565b611a60816118d7565b8114611a6b57600080fd5b5056fea26469706673582212208b0a405e6700b4ff84ceeb9b30efbe38289ae4b86bf637957ed39445fafea7bc64736f6c63430008000033",
  "linkReferences": {},
  "deployedLinkReferences": {}
}