{
  "contractName": "DaoPayTreasury",
  "abi": [
    {
      "inputs": [
        {
          "internalType": "uint256",
          "name": "_supplyDaoToken",
          "type": "uint256"
        }
      ],
      "stateMutability": "nonpayable",
      "type": "constructor"
    },
    {
      "inputs": [],
      "name": "daoToken",
      "outputs": [
        {
          "internalType": "contract DAOToken",
          "name": "",
          "type": "address"
        }
      ],
      "stateMutability": "view",
      "type": "function",
      "constant": true
    },
    {
      "inputs": [
        {
          "internalType": "uint256",
          "name": "",
          "type": "uint256"
        }
      ],
      "name": "listDaoWorkstreamNames",
      "outputs": [
        {
          "internalType": "string",
          "name": "",
          "type": "string"
        }
      ],
      "stateMutability": "view",
      "type": "function",
      "constant": true
    },
    {
      "inputs": [
        {
          "internalType": "uint256",
          "name": "",
          "type": "uint256"
        }
      ],
      "name": "listDaoWorkstreams",
      "outputs": [
        {
          "internalType": "address",
          "name": "",
          "type": "address"
        }
      ],
      "stateMutability": "view",
      "type": "function",
      "constant": true
    },
    {
      "inputs": [],
      "name": "owner",
      "outputs": [
        {
          "internalType": "address",
          "name": "",
          "type": "address"
        }
      ],
      "stateMutability": "view",
      "type": "function",
      "constant": true
    },
    {
      "inputs": [],
      "name": "supplyDaoToken",
      "outputs": [
        {
          "internalType": "uint256",
          "name": "",
          "type": "uint256"
        }
      ],
      "stateMutability": "view",
      "type": "function",
      "constant": true
    },
    {
      "inputs": [
        {
          "internalType": "string",
          "name": "_workstreamName",
          "type": "string"
        },
        {
          "internalType": "address",
          "name": "_workstreamOwner",
          "type": "address"
        }
      ],
      "name": "createDaoWorkstream",
      "outputs": [
        {
          "internalType": "address",
          "name": "",
          "type": "address"
        }
      ],
      "stateMutability": "nonpayable",
      "type": "function"
    },
    {
      "inputs": [],
      "name": "getDaoWorkstreams",
      "outputs": [
        {
          "internalType": "address[]",
          "name": "",
          "type": "address[]"
        }
      ],
      "stateMutability": "view",
      "type": "function",
      "constant": true
    },
    {
      "inputs": [],
      "name": "getDaoWorkstreamNames",
      "outputs": [
        {
          "internalType": "string[]",
          "name": "",
          "type": "string[]"
        }
      ],
      "stateMutability": "view",
      "type": "function",
      "constant": true
    },
    {
      "inputs": [],
      "name": "getDaoToken",
      "outputs": [
        {
          "internalType": "address",
          "name": "",
          "type": "address"
        }
      ],
      "stateMutability": "view",
      "type": "function",
      "constant": true
    },
    {
      "inputs": [],
      "name": "getDaoTokenOwnerBalance",
      "outputs": [
        {
          "internalType": "address",
          "name": "",
          "type": "address"
        },
        {
          "internalType": "uint256",
          "name": "",
          "type": "uint256"
        }
      ],
      "stateMutability": "view",
      "type": "function",
      "constant": true
    },
    {
      "inputs": [
        {
          "internalType": "address payable",
          "name": "to",
          "type": "address"
        },
        {
          "internalType": "uint256",
          "name": "amount",
          "type": "uint256"
        }
      ],
      "name": "payContributor",
      "outputs": [],
      "stateMutability": "payable",
      "type": "function",
      "payable": true
    }
  ],
  "bytecode": "0x60806040523480156200001157600080fd5b50604051620049cd380380620049cd8339818101604052810190620000379190620001cb565b336000806101000a81548173ffffffffffffffffffffffffffffffffffffffff021916908373ffffffffffffffffffffffffffffffffffffffff160217905550806001819055506040516200008c90620001a6565b604051809103906000f080158015620000a9573d6000803e3d6000fd5b50600260006101000a81548173ffffffffffffffffffffffffffffffffffffffff021916908373ffffffffffffffffffffffffffffffffffffffff160217905550600260009054906101000a900473ffffffffffffffffffffffffffffffffffffffff1673ffffffffffffffffffffffffffffffffffffffff166340c10f1960008054906101000a900473ffffffffffffffffffffffffffffffffffffffff166001546040518363ffffffff1660e01b81526004016200016b92919062000219565b600060405180830381600087803b1580156200018657600080fd5b505af11580156200019b573d6000803e3d6000fd5b50505050506200029e565b6118cd806200310083390190565b600081519050620001c58162000284565b92915050565b600060208284031215620001de57600080fd5b6000620001ee84828501620001b4565b91505092915050565b620002028162000246565b82525050565b62000213816200027a565b82525050565b6000604082019050620002306000830185620001f7565b6200023f602083018462000208565b9392505050565b600062000253826200025a565b9050919050565b600073ffffffffffffffffffffffffffffffffffffffff82169050919050565b6000819050919050565b6200028f816200027a565b81146200029b57600080fd5b50565b612e5280620002ae6000396000f3fe608060405260043610620000aa5760003560e01c806372ce25f2116200006d57806372ce25f214620001c75780638da5cb5b14620001f8578063a024e1371462000228578063aace96891462000258578063f80817ef146200029c578063ff468aa914620002cc57620000aa565b80634914b03014620000af5780634c60220714620000df5780635dc26cb114620001235780635e31d9cd14620001675780636c8c34991462000197575b600080fd5b348015620000bc57600080fd5b50620000c7620002ec565b604051620000d6919062000e22565b60405180910390f35b348015620000ec57600080fd5b506200010b600480360381019062000105919062000b04565b62000312565b6040516200011a919062000e3f565b60405180910390f35b3480156200013057600080fd5b506200014f600480360381019062000149919062000b04565b620003c7565b6040516200015e919062000d90565b60405180910390f35b3480156200017457600080fd5b506200017f62000407565b6040516200018e919062000ed9565b60405180910390f35b348015620001a457600080fd5b50620001af6200040d565b604051620001be919062000d90565b60405180910390f35b348015620001d457600080fd5b50620001df62000437565b604051620001ef92919062000dad565b60405180910390f35b3480156200020557600080fd5b506200021062000536565b6040516200021f919062000d90565b60405180910390f35b3480156200023557600080fd5b50620002406200055a565b6040516200024f919062000dda565b60405180910390f35b3480156200026557600080fd5b506200028460048036038101906200027e919062000aaa565b620005ea565b60405162000293919062000d90565b60405180910390f35b348015620002a957600080fd5b50620002b4620007ae565b604051620002c3919062000dfe565b60405180910390f35b620002ea6004803603810190620002e4919062000a69565b62000891565b005b600260009054906101000a900473ffffffffffffffffffffffffffffffffffffffff1681565b600481815481106200032357600080fd5b9060005260206000200160009150905080546200034090620010bb565b80601f01602080910402602001604051908101604052809291908181526020018280546200036e90620010bb565b8015620003bf5780601f106200039357610100808354040283529160200191620003bf565b820191906000526020600020905b815481529060010190602001808311620003a157829003601f168201915b505050505081565b60038181548110620003d857600080fd5b906000526020600020016000915054906101000a900473ffffffffffffffffffffffffffffffffffffffff1681565b60015481565b6000600260009054906101000a900473ffffffffffffffffffffffffffffffffffffffff16905090565b600080600260009054906101000a900473ffffffffffffffffffffffffffffffffffffffff16600260009054906101000a900473ffffffffffffffffffffffffffffffffffffffff1673ffffffffffffffffffffffffffffffffffffffff166370a0823160008054906101000a900473ffffffffffffffffffffffffffffffffffffffff166040518263ffffffff1660e01b8152600401620004da919062000d90565b60206040518083038186803b158015620004f357600080fd5b505afa15801562000508573d6000803e3d6000fd5b505050506040513d601f19601f820116820180604052508101906200052e919062000b30565b915091509091565b60008054906101000a900473ffffffffffffffffffffffffffffffffffffffff1681565b60606003805480602002602001604051908101604052809291908181526020018280548015620005e057602002820191906000526020600020905b8160009054906101000a900473ffffffffffffffffffffffffffffffffffffffff1673ffffffffffffffffffffffffffffffffffffffff168152602001906001019080831162000595575b5050505050905090565b60008060009054906101000a900473ffffffffffffffffffffffffffffffffffffffff1673ffffffffffffffffffffffffffffffffffffffff163373ffffffffffffffffffffffffffffffffffffffff16146200067e576040517f08c379a0000000000000000000000000000000000000000000000000000000008152600401620006759062000eb7565b60405180910390fd5b60008360008054906101000a900473ffffffffffffffffffffffffffffffffffffffff1684600260009054906101000a900473ffffffffffffffffffffffffffffffffffffffff16604051620006d490620008dd565b620006e3949392919062000e63565b604051809103906000f08015801562000700573d6000803e3d6000fd5b5090506003819080600181540180825580915050600190039060005260206000200160009091909190916101000a81548173ffffffffffffffffffffffffffffffffffffffff021916908373ffffffffffffffffffffffffffffffffffffffff160217905550600484908060018154018082558091505060019003906000526020600020016000909190919091509080519060200190620007a3929190620008eb565b508091505092915050565b60606004805480602002602001604051908101604052809291908181526020016000905b8282101562000888578382906000526020600020018054620007f490620010bb565b80601f01602080910402602001604051908101604052809291908181526020018280546200082290620010bb565b8015620008735780601f10620008475761010080835404028352916020019162000873565b820191906000526020600020905b8154815290600101906020018083116200085557829003601f168201915b505050505081526020019060010190620007d2565b50505050905090565b8173ffffffffffffffffffffffffffffffffffffffff166108fc829081150290604051600060405180830381858888f19350505050158015620008d8573d6000803e3d6000fd5b505050565b611c6e80620011af83390190565b828054620008f990620010bb565b90600052602060002090601f0160209004810192826200091d576000855562000969565b82601f106200093857805160ff191683800117855562000969565b8280016001018555821562000969579182015b82811115620009685782518255916020019190600101906200094b565b5b5090506200097891906200097c565b5090565b5b80821115620009975760008160009055506001016200097d565b5090565b6000620009b2620009ac8462000f2a565b62000ef6565b905082815260208101848484011115620009cb57600080fd5b620009d884828562001076565b509392505050565b600081359050620009f18162001160565b92915050565b60008135905062000a08816200117a565b92915050565b600082601f83011262000a2057600080fd5b813562000a328482602086016200099b565b91505092915050565b60008135905062000a4c8162001194565b92915050565b60008151905062000a638162001194565b92915050565b6000806040838503121562000a7d57600080fd5b600062000a8d85828601620009f7565b925050602062000aa08582860162000a3b565b9150509250929050565b6000806040838503121562000abe57600080fd5b600083013567ffffffffffffffff81111562000ad957600080fd5b62000ae78582860162000a0e565b925050602062000afa85828601620009e0565b9150509250929050565b60006020828403121562000b1757600080fd5b600062000b278482850162000a3b565b91505092915050565b60006020828403121562000b4357600080fd5b600062000b538482850162000a52565b91505092915050565b600062000b6a838362000b9d565b60208301905092915050565b600062000b84838362000cbb565b905092915050565b62000b978162001010565b82525050565b62000ba88162000ffc565b82525050565b62000bb98162000ffc565b82525050565b600062000bcc8262000f7d565b62000bd8818562000fb8565b935062000be58362000f5d565b8060005b8381101562000c1c57815162000c00888262000b5c565b975062000c0d8362000f9e565b92505060018101905062000be9565b5085935050505092915050565b600062000c368262000f88565b62000c42818562000fc9565b93508360208202850162000c568562000f6d565b8060005b8581101562000c98578484038952815162000c76858262000b76565b945062000c838362000fab565b925060208a0199505060018101905062000c5a565b50829750879550505050505092915050565b62000cb5816200104e565b82525050565b600062000cc88262000f93565b62000cd4818562000fda565b935062000ce681856020860162001085565b62000cf1816200114f565b840191505092915050565b600062000d098262000f93565b62000d15818562000feb565b935062000d2781856020860162001085565b62000d32816200114f565b840191505092915050565b600062000d4c600a8362000feb565b91507f6f6e6c792061646d696e000000000000000000000000000000000000000000006000830152602082019050919050565b62000d8a8162001044565b82525050565b600060208201905062000da7600083018462000bae565b92915050565b600060408201905062000dc4600083018562000bae565b62000dd3602083018462000d7f565b9392505050565b6000602082019050818103600083015262000df6818462000bbf565b905092915050565b6000602082019050818103600083015262000e1a818462000c29565b905092915050565b600060208201905062000e39600083018462000caa565b92915050565b6000602082019050818103600083015262000e5b818462000cfc565b905092915050565b6000608082019050818103600083015262000e7f818762000cfc565b905062000e90602083018662000bae565b62000e9f604083018562000bae565b62000eae606083018462000b8c565b95945050505050565b6000602082019050818103600083015262000ed28162000d3d565b9050919050565b600060208201905062000ef0600083018462000d7f565b92915050565b6000604051905081810181811067ffffffffffffffff8211171562000f205762000f1f62001120565b5b8060405250919050565b600067ffffffffffffffff82111562000f485762000f4762001120565b5b601f19601f8301169050602081019050919050565b6000819050602082019050919050565b6000819050602082019050919050565b600081519050919050565b600081519050919050565b600081519050919050565b6000602082019050919050565b6000602082019050919050565b600082825260208201905092915050565b600082825260208201905092915050565b600082825260208201905092915050565b600082825260208201905092915050565b6000620010098262001024565b9050919050565b60006200101d8262001024565b9050919050565b600073ffffffffffffffffffffffffffffffffffffffff82169050919050565b6000819050919050565b60006200105b8262001062565b9050919050565b60006200106f8262001024565b9050919050565b82818337600083830152505050565b60005b83811015620010a557808201518184015260208101905062001088565b83811115620010b5576000848401525b50505050565b60006002820490506001821680620010d457607f821691505b60208210811415620010eb57620010ea620010f1565b5b50919050565b7f4e487b7100000000000000000000000000000000000000000000000000000000600052602260045260246000fd5b7f4e487b7100000000000000000000000000000000000000000000000000000000600052604160045260246000fd5b6000601f19601f8301169050919050565b6200116b8162000ffc565b81146200117757600080fd5b50565b620011858162001010565b81146200119157600080fd5b50565b6200119f8162001044565b8114620011ab57600080fd5b5056fe60806040523480156200001157600080fd5b5060405162001c6e38038062001c6e83398181016040528101906200003791906200026c565b82600160006101000a81548173ffffffffffffffffffffffffffffffffffffffff021916908373ffffffffffffffffffffffffffffffffffffffff1602179055508360029080519060200190620000909291906200011c565b5080600360006101000a81548173ffffffffffffffffffffffffffffffffffffffff021916908373ffffffffffffffffffffffffffffffffffffffff160217905550816000806101000a81548173ffffffffffffffffffffffffffffffffffffffff021916908373ffffffffffffffffffffffffffffffffffffffff160217905550505050506200049e565b8280546200012a90620003d6565b90600052602060002090601f0160209004810192826200014e57600085556200019a565b82601f106200016957805160ff19168380011785556200019a565b828001600101855582156200019a579182015b82811115620001995782518255916020019190600101906200017c565b5b509050620001a99190620001ad565b5090565b5b80821115620001c8576000816000905550600101620001ae565b5090565b6000620001e3620001dd8462000325565b620002f1565b905082815260208101848484011115620001fc57600080fd5b62000209848285620003a0565b509392505050565b60008151905062000222816200046a565b92915050565b600081519050620002398162000484565b92915050565b600082601f8301126200025157600080fd5b815162000263848260208601620001cc565b91505092915050565b600080600080608085870312156200028357600080fd5b600085015167ffffffffffffffff8111156200029e57600080fd5b620002ac878288016200023f565b9450506020620002bf8782880162000211565b9350506040620002d28782880162000211565b9250506060620002e58782880162000228565b91505092959194509250565b6000604051905081810181811067ffffffffffffffff821117156200031b576200031a6200043b565b5b8060405250919050565b600067ffffffffffffffff8211156200034357620003426200043b565b5b601f19601f8301169050602081019050919050565b6000620003658262000380565b9050919050565b6000620003798262000380565b9050919050565b600073ffffffffffffffffffffffffffffffffffffffff82169050919050565b60005b83811015620003c0578082015181840152602081019050620003a3565b83811115620003d0576000848401525b50505050565b60006002820490506001821680620003ef57607f821691505b602082108114156200040657620004056200040c565b5b50919050565b7f4e487b7100000000000000000000000000000000000000000000000000000000600052602260045260246000fd5b7f4e487b7100000000000000000000000000000000000000000000000000000000600052604160045260246000fd5b620004758162000358565b81146200048157600080fd5b50565b6200048f816200036c565b81146200049b57600080fd5b50565b6117c080620004ae6000396000f3fe608060405234801561001057600080fd5b506004361061010b5760003560e01c806381d12c58116100a2578063c11c4cfc11610071578063c11c4cfc14610290578063c58343ef146102ae578063d7d1bbdb146102e3578063dd71e3ac146102ff578063e0abba571461031b5761010b565b806381d12c58146102035780638a9cfd5514610238578063ad7a672f14610254578063b69ef8a8146102725761010b565b80634914b030116100de5780634914b0301461018d57806353bf1de0146101ab57806357b4d18e146101c957806363d4dd3b146101e75761010b565b80632a881d6414610110578063319befc71461012e57806340059bd71461014c5780634051ddac1461016a575b600080fd5b610118610339565b604051610125919061129a565b60405180910390f35b610136610363565b604051610143919061129a565b60405180910390f35b61015461038c565b6040516101619190611307565b60405180910390f35b61017261041a565b60405161018496959493929190611329565b60405180910390f35b6101956104f6565b6040516101a291906112b5565b60405180910390f35b6101b361051c565b6040516101c091906113b1565b60405180910390f35b6101d1610529565b6040516101de91906113b1565b60405180910390f35b61020160048036038101906101fc9190611184565b61052f565b005b61021d60048036038101906102189190611184565b6106ba565b60405161022f96959493929190611434565b60405180910390f35b610252600480360381019061024d919061111d565b6107c8565b005b61025c610952565b60405161026991906113b1565b60405180910390f35b61027a610958565b60405161028791906113b1565b60405180910390f35b610298610a2c565b6040516102a59190611307565b60405180910390f35b6102c860048036038101906102c39190611184565b610abe565b6040516102da969594939291906113cc565b60405180910390f35b6102fd60048036038101906102f89190611184565b610d6a565b005b610319600480360381019061031491906110b8565b610e7b565b005b610323610f53565b60405161033091906113b1565b60405180910390f35b6000600160009054906101000a900473ffffffffffffffffffffffffffffffffffffffff16905090565b60008060009054906101000a900473ffffffffffffffffffffffffffffffffffffffff16905090565b6002805461039990611675565b80601f01602080910402602001604051908101604052809291908181526020018280546103c590611675565b80156104125780601f106103e757610100808354040283529160200191610412565b820191906000526020600020905b8154815290600101906020018083116103f557829003601f168201915b505050505081565b60606000806000806000600260008054906101000a900473ffffffffffffffffffffffffffffffffffffffff1660075460048054905060065460055485805461046290611675565b80601f016020809104026020016040519081016040528092919081815260200182805461048e90611675565b80156104db5780601f106104b0576101008083540402835291602001916104db565b820191906000526020600020905b8154815290600101906020018083116104be57829003601f168201915b50505050509550955095509550955095509550909192939495565b600360009054906101000a900473ffffffffffffffffffffffffffffffffffffffff1681565b6000600480549050905090565b60065481565b60016004828154811061056b577f4e487b7100000000000000000000000000000000000000000000000000000000600052603260045260246000fd5b906000526020600020906004020160030160156101000a81548160ff021916908315150217905550610653600482815481106105d0577f4e487b7100000000000000000000000000000000000000000000000000000000600052603260045260246000fd5b906000526020600020906004020160030160009054906101000a900473ffffffffffffffffffffffffffffffffffffffff166004838154811061063c577f4e487b7100000000000000000000000000000000000000000000000000000000600052603260045260246000fd5b906000526020600020906004020160020154610e7b565b6004818154811061068d577f4e487b7100000000000000000000000000000000000000000000000000000000600052603260045260246000fd5b906000526020600020906004020160020154600660008282546106b0919061156f565b9250508190555050565b600481815481106106ca57600080fd5b90600052602060002090600402016000915090508060000154908060010180546106f390611675565b80601f016020809104026020016040519081016040528092919081815260200182805461071f90611675565b801561076c5780601f106107415761010080835404028352916020019161076c565b820191906000526020600020905b81548152906001019060200180831161074f57829003601f168201915b5050505050908060020154908060030160009054906101000a900473ffffffffffffffffffffffffffffffffffffffff16908060030160149054906101000a900460ff16908060030160159054906101000a900460ff16905086565b60006040518060c0016040528060048054905081526020018581526020018481526020018373ffffffffffffffffffffffffffffffffffffffff168152602001600015158152602001600015158152509050826005600082825461082c9190611519565b9250508190555082600660008282546108459190611519565b9250508190555060016007600082825461085f9190611519565b9250508190555060048190806001815401808255809150506001900390600052602060002090600402016000909190919091506000820151816000015560208201518160010190805190602001906108b8929190610f59565b506040820151816002015560608201518160030160006101000a81548173ffffffffffffffffffffffffffffffffffffffff021916908373ffffffffffffffffffffffffffffffffffffffff16021790555060808201518160030160146101000a81548160ff02191690831515021790555060a08201518160030160156101000a81548160ff021916908315150217905550505050505050565b60055481565b6000600360009054906101000a900473ffffffffffffffffffffffffffffffffffffffff1673ffffffffffffffffffffffffffffffffffffffff166370a08231600160009054906101000a900473ffffffffffffffffffffffffffffffffffffffff166040518263ffffffff1660e01b81526004016109d7919061129a565b60206040518083038186803b1580156109ef57600080fd5b505afa158015610a03573d6000803e3d6000fd5b505050506040513d601f19601f82011682018060405250810190610a2791906111ad565b905090565b606060028054610a3b90611675565b80601f0160208091040260200160405190810160405280929190818152602001828054610a6790611675565b8015610ab45780601f10610a8957610100808354040283529160200191610ab4565b820191906000526020600020905b815481529060010190602001808311610a9757829003601f168201915b5050505050905090565b6000606060008060008060048781548110610b02577f4e487b7100000000000000000000000000000000000000000000000000000000600052603260045260246000fd5b90600052602060002090600402016000015460048881548110610b4e577f4e487b7100000000000000000000000000000000000000000000000000000000600052603260045260246000fd5b906000526020600020906004020160010160048981548110610b99577f4e487b7100000000000000000000000000000000000000000000000000000000600052603260045260246000fd5b906000526020600020906004020160030160009054906101000a900473ffffffffffffffffffffffffffffffffffffffff1660048a81548110610c05577f4e487b7100000000000000000000000000000000000000000000000000000000600052603260045260246000fd5b90600052602060002090600402016002015460048b81548110610c51577f4e487b7100000000000000000000000000000000000000000000000000000000600052603260045260246000fd5b906000526020600020906004020160030160149054906101000a900460ff1660048c81548110610caa577f4e487b7100000000000000000000000000000000000000000000000000000000600052603260045260246000fd5b906000526020600020906004020160030160159054906101000a900460ff16848054610cd590611675565b80601f0160208091040260200160405190810160405280929190818152602001828054610d0190611675565b8015610d4e5780601f10610d2357610100808354040283529160200191610d4e565b820191906000526020600020905b815481529060010190602001808311610d3157829003601f168201915b5050505050945095509550955095509550955091939550919395565b600160009054906101000a900473ffffffffffffffffffffffffffffffffffffffff1673ffffffffffffffffffffffffffffffffffffffff163373ffffffffffffffffffffffffffffffffffffffff1614610dfa576040517f08c379a0000000000000000000000000000000000000000000000000000000008152600401610df190611391565b60405180910390fd5b600160048281548110610e36577f4e487b7100000000000000000000000000000000000000000000000000000000600052603260045260246000fd5b906000526020600020906004020160030160146101000a81548160ff021916908315150217905550600160076000828254610e71919061156f565b9250508190555050565b600360009054906101000a900473ffffffffffffffffffffffffffffffffffffffff1673ffffffffffffffffffffffffffffffffffffffff166323b872dd600160009054906101000a900473ffffffffffffffffffffffffffffffffffffffff1684846040518463ffffffff1660e01b8152600401610efc939291906112d0565b602060405180830381600087803b158015610f1657600080fd5b505af1158015610f2a573d6000803e3d6000fd5b505050506040513d601f19601f82011682018060405250810190610f4e91906110f4565b505050565b60075481565b828054610f6590611675565b90600052602060002090601f016020900481019282610f875760008555610fce565b82601f10610fa057805160ff1916838001178555610fce565b82800160010185558215610fce579182015b82811115610fcd578251825591602001919060010190610fb2565b5b509050610fdb9190610fdf565b5090565b5b80821115610ff8576000816000905550600101610fe0565b5090565b600061100f61100a846114cd565b61149c565b90508281526020810184848401111561102757600080fd5b611032848285611633565b509392505050565b60008135905061104981611745565b92915050565b60008151905061105e8161175c565b92915050565b600082601f83011261107557600080fd5b8135611085848260208601610ffc565b91505092915050565b60008135905061109d81611773565b92915050565b6000815190506110b281611773565b92915050565b600080604083850312156110cb57600080fd5b60006110d98582860161103a565b92505060206110ea8582860161108e565b9150509250929050565b60006020828403121561110657600080fd5b60006111148482850161104f565b91505092915050565b60008060006060848603121561113257600080fd5b600084013567ffffffffffffffff81111561114c57600080fd5b61115886828701611064565b93505060206111698682870161108e565b925050604061117a8682870161103a565b9150509250925092565b60006020828403121561119657600080fd5b60006111a48482850161108e565b91505092915050565b6000602082840312156111bf57600080fd5b60006111cd848285016110a3565b91505092915050565b6111df816115fd565b82525050565b6111ee816115b5565b82525050565b6111fd816115a3565b82525050565b61120c816115c7565b82525050565b600061121d826114fd565b6112278185611508565b9350611237818560208601611642565b61124081611734565b840191505092915050565b6000611258600e83611508565b91507f6f6e6c792064616f206f776e65720000000000000000000000000000000000006000830152602082019050919050565b611294816115f3565b82525050565b60006020820190506112af60008301846111f4565b92915050565b60006020820190506112ca60008301846111e5565b92915050565b60006060820190506112e560008301866111f4565b6112f260208301856111d6565b6112ff604083018461128b565b949350505050565b600060208201905081810360008301526113218184611212565b905092915050565b600060c08201905081810360008301526113438189611212565b905061135260208301886111f4565b61135f604083018761128b565b61136c606083018661128b565b611379608083018561128b565b61138660a083018461128b565b979650505050505050565b600060208201905081810360008301526113aa8161124b565b9050919050565b60006020820190506113c6600083018461128b565b92915050565b600060c0820190506113e1600083018961128b565b81810360208301526113f38188611212565b905061140260408301876111f4565b61140f606083018661128b565b61141c6080830185611203565b61142960a0830184611203565b979650505050505050565b600060c082019050611449600083018961128b565b818103602083015261145b8188611212565b905061146a604083018761128b565b61147760608301866111e5565b6114846080830185611203565b61149160a0830184611203565b979650505050505050565b6000604051905081810181811067ffffffffffffffff821117156114c3576114c2611705565b5b8060405250919050565b600067ffffffffffffffff8211156114e8576114e7611705565b5b601f19601f8301169050602081019050919050565b600081519050919050565b600082825260208201905092915050565b6000611524826115f3565b915061152f836115f3565b9250827fffffffffffffffffffffffffffffffffffffffffffffffffffffffffffffffff03821115611564576115636116a7565b5b828201905092915050565b600061157a826115f3565b9150611585836115f3565b925082821015611598576115976116a7565b5b828203905092915050565b60006115ae826115d3565b9050919050565b60006115c0826115d3565b9050919050565b60008115159050919050565b600073ffffffffffffffffffffffffffffffffffffffff82169050919050565b6000819050919050565b60006116088261160f565b9050919050565b600061161a82611621565b9050919050565b600061162c826115d3565b9050919050565b82818337600083830152505050565b60005b83811015611660578082015181840152602081019050611645565b8381111561166f576000848401525b50505050565b6000600282049050600182168061168d57607f821691505b602082108114156116a1576116a06116d6565b5b50919050565b7f4e487b7100000000000000000000000000000000000000000000000000000000600052601160045260246000fd5b7f4e487b7100000000000000000000000000000000000000000000000000000000600052602260045260246000fd5b7f4e487b7100000000000000000000000000000000000000000000000000000000600052604160045260246000fd5b6000601f19601f8301169050919050565b61174e816115b5565b811461175957600080fd5b50565b611765816115c7565b811461177057600080fd5b50565b61177c816115f3565b811461178757600080fd5b5056fea2646970667358221220e14a254fc8f34f9601f2900e8d14d1e2bc2def3972e1a6f97373e6f7b08beedb64736f6c63430008000033a2646970667358221220ff8d0864eb1e12e7a59d7417a9d754923a76cf4c6ac6207261ccbe963b021f8d64736f6c6343000800003360806040523480156200001157600080fd5b506040518060400160405280600981526020017f44414f20546f6b656e00000000000000000000000000000000000000000000008152506040518060400160405280600481526020017f44414f5400000000000000000000000000000000000000000000000000000000815250816003908051906020019062000096929190620000f9565b508060049080519060200190620000af929190620000f9565b50505033600560006101000a81548173ffffffffffffffffffffffffffffffffffffffff021916908373ffffffffffffffffffffffffffffffffffffffff1602179055506200020e565b8280546200010790620001a9565b90600052602060002090601f0160209004810192826200012b576000855562000177565b82601f106200014657805160ff191683800117855562000177565b8280016001018555821562000177579182015b828111156200017657825182559160200191906001019062000159565b5b5090506200018691906200018a565b5090565b5b80821115620001a55760008160009055506001016200018b565b5090565b60006002820490506001821680620001c257607f821691505b60208210811415620001d957620001d8620001df565b5b50919050565b7f4e487b7100000000000000000000000000000000000000000000000000000000600052602260045260246000fd5b6116af806200021e6000396000f3fe608060405234801561001057600080fd5b50600436106100cf5760003560e01c806340c10f191161008c578063a457c2d711610066578063a457c2d714610228578063a9059cbb14610258578063dd62ed3e14610288578063f851a440146102b8576100cf565b806340c10f19146101be57806370a08231146101da57806395d89b411461020a576100cf565b806306fdde03146100d4578063095ea7b3146100f257806318160ddd1461012257806323b872dd14610140578063313ce56714610170578063395093511461018e575b600080fd5b6100dc6102d6565b6040516100e99190611338565b60405180910390f35b61010c60048036038101906101079190610f07565b610368565b604051610119919061131d565b60405180910390f35b61012a610386565b604051610137919061147a565b60405180910390f35b61015a60048036038101906101559190610eb8565b610390565b604051610167919061131d565b60405180910390f35b610178610488565b6040516101859190611495565b60405180910390f35b6101a860048036038101906101a39190610f07565b610491565b6040516101b5919061131d565b60405180910390f35b6101d860048036038101906101d39190610f07565b61053d565b005b6101f460048036038101906101ef9190610e53565b6105db565b604051610201919061147a565b60405180910390f35b610212610623565b60405161021f9190611338565b60405180910390f35b610242600480360381019061023d9190610f07565b6106b5565b60405161024f919061131d565b60405180910390f35b610272600480360381019061026d9190610f07565b6107a0565b60405161027f919061131d565b60405180910390f35b6102a2600480360381019061029d9190610e7c565b6107be565b6040516102af919061147a565b60405180910390f35b6102c0610845565b6040516102cd9190611302565b60405180910390f35b6060600380546102e5906115aa565b80601f0160208091040260200160405190810160405280929190818152602001828054610311906115aa565b801561035e5780601f106103335761010080835404028352916020019161035e565b820191906000526020600020905b81548152906001019060200180831161034157829003601f168201915b5050505050905090565b600061037c61037561086b565b8484610873565b6001905092915050565b6000600254905090565b600061039d848484610a3e565b6000600160008673ffffffffffffffffffffffffffffffffffffffff1673ffffffffffffffffffffffffffffffffffffffff16815260200190815260200160002060006103e861086b565b73ffffffffffffffffffffffffffffffffffffffff1673ffffffffffffffffffffffffffffffffffffffff16815260200190815260200160002054905082811015610468576040517f08c379a000000000000000000000000000000000000000000000000000000000815260040161045f906113da565b60405180910390fd5b61047c8561047461086b565b858403610873565b60019150509392505050565b60006012905090565b600061053361049e61086b565b8484600160006104ac61086b565b73ffffffffffffffffffffffffffffffffffffffff1673ffffffffffffffffffffffffffffffffffffffff16815260200190815260200160002060008873ffffffffffffffffffffffffffffffffffffffff1673ffffffffffffffffffffffffffffffffffffffff1681526020019081526020016000205461052e91906114cc565b610873565b6001905092915050565b600560009054906101000a900473ffffffffffffffffffffffffffffffffffffffff1673ffffffffffffffffffffffffffffffffffffffff163373ffffffffffffffffffffffffffffffffffffffff16146105cd576040517f08c379a00000000000000000000000000000000000000000000000000000000081526004016105c4906113ba565b60405180910390fd5b6105d78282610cbf565b5050565b60008060008373ffffffffffffffffffffffffffffffffffffffff1673ffffffffffffffffffffffffffffffffffffffff168152602001908152602001600020549050919050565b606060048054610632906115aa565b80601f016020809104026020016040519081016040528092919081815260200182805461065e906115aa565b80156106ab5780601f10610680576101008083540402835291602001916106ab565b820191906000526020600020905b81548152906001019060200180831161068e57829003601f168201915b5050505050905090565b600080600160006106c461086b565b73ffffffffffffffffffffffffffffffffffffffff1673ffffffffffffffffffffffffffffffffffffffff16815260200190815260200160002060008573ffffffffffffffffffffffffffffffffffffffff1673ffffffffffffffffffffffffffffffffffffffff16815260200190815260200160002054905082811015610781576040517f08c379a00000000000000000000000000000000000000000000000000000000081526004016107789061143a565b60405180910390fd5b61079561078c61086b565b85858403610873565b600191505092915050565b60006107b46107ad61086b565b8484610a3e565b6001905092915050565b6000600160008473ffffffffffffffffffffffffffffffffffffffff1673ffffffffffffffffffffffffffffffffffffffff16815260200190815260200160002060008373ffffffffffffffffffffffffffffffffffffffff1673ffffffffffffffffffffffffffffffffffffffff16815260200190815260200160002054905092915050565b600560009054906101000a900473ffffffffffffffffffffffffffffffffffffffff1681565b600033905090565b600073ffffffffffffffffffffffffffffffffffffffff168373ffffffffffffffffffffffffffffffffffffffff1614156108e3576040517f08c379a00000000000000000000000000000000000000000000000000000000081526004016108da9061141a565b60405180910390fd5b600073ffffffffffffffffffffffffffffffffffffffff168273ffffffffffffffffffffffffffffffffffffffff161415610953576040517f08c379a000000000000000000000000000000000000000000000000000000000815260040161094a9061137a565b60405180910390fd5b80600160008573ffffffffffffffffffffffffffffffffffffffff1673ffffffffffffffffffffffffffffffffffffffff16815260200190815260200160002060008473ffffffffffffffffffffffffffffffffffffffff1673ffffffffffffffffffffffffffffffffffffffff168152602001908152602001600020819055508173ffffffffffffffffffffffffffffffffffffffff168373ffffffffffffffffffffffffffffffffffffffff167f8c5be1e5ebec7d5bd14f71427d1e84f3dd0314c0f7b2291e5b200ac8c7c3b92583604051610a31919061147a565b60405180910390a3505050565b600073ffffffffffffffffffffffffffffffffffffffff168373ffffffffffffffffffffffffffffffffffffffff161415610aae576040517f08c379a0000000000000000000000000000000000000000000000000000000008152600401610aa5906113fa565b60405180910390fd5b600073ffffffffffffffffffffffffffffffffffffffff168273ffffffffffffffffffffffffffffffffffffffff161415610b1e576040517f08c379a0000000000000000000000000000000000000000000000000000000008152600401610b159061135a565b60405180910390fd5b610b29838383610e1f565b60008060008573ffffffffffffffffffffffffffffffffffffffff1673ffffffffffffffffffffffffffffffffffffffff16815260200190815260200160002054905081811015610baf576040517f08c379a0000000000000000000000000000000000000000000000000000000008152600401610ba69061139a565b60405180910390fd5b8181036000808673ffffffffffffffffffffffffffffffffffffffff1673ffffffffffffffffffffffffffffffffffffffff16815260200190815260200160002081905550816000808573ffffffffffffffffffffffffffffffffffffffff1673ffffffffffffffffffffffffffffffffffffffff1681526020019081526020016000206000828254610c4291906114cc565b925050819055508273ffffffffffffffffffffffffffffffffffffffff168473ffffffffffffffffffffffffffffffffffffffff167fddf252ad1be2c89b69c2b068fc378daa952ba7f163c4a11628f55a4df523b3ef84604051610ca6919061147a565b60405180910390a3610cb9848484610e24565b50505050565b600073ffffffffffffffffffffffffffffffffffffffff168273ffffffffffffffffffffffffffffffffffffffff161415610d2f576040517f08c379a0000000000000000000000000000000000000000000000000000000008152600401610d269061145a565b60405180910390fd5b610d3b60008383610e1f565b8060026000828254610d4d91906114cc565b92505081905550806000808473ffffffffffffffffffffffffffffffffffffffff1673ffffffffffffffffffffffffffffffffffffffff1681526020019081526020016000206000828254610da291906114cc565b925050819055508173ffffffffffffffffffffffffffffffffffffffff16600073ffffffffffffffffffffffffffffffffffffffff167fddf252ad1be2c89b69c2b068fc378daa952ba7f163c4a11628f55a4df523b3ef83604051610e07919061147a565b60405180910390a3610e1b60008383610e24565b5050565b505050565b505050565b600081359050610e388161164b565b92915050565b600081359050610e4d81611662565b92915050565b600060208284031215610e6557600080fd5b6000610e7384828501610e29565b91505092915050565b60008060408385031215610e8f57600080fd5b6000610e9d85828601610e29565b9250506020610eae85828601610e29565b9150509250929050565b600080600060608486031215610ecd57600080fd5b6000610edb86828701610e29565b9350506020610eec86828701610e29565b9250506040610efd86828701610e3e565b9150509250925092565b60008060408385031215610f1a57600080fd5b6000610f2885828601610e29565b9250506020610f3985828601610e3e565b9150509250929050565b610f4c81611522565b82525050565b610f5b81611534565b82525050565b6000610f6c826114b0565b610f7681856114bb565b9350610f86818560208601611577565b610f8f8161163a565b840191505092915050565b6000610fa76023836114bb565b91507f45524332303a207472616e7366657220746f20746865207a65726f206164647260008301527f65737300000000000000000000000000000000000000000000000000000000006020830152604082019050919050565b600061100d6022836114bb565b91507f45524332303a20617070726f766520746f20746865207a65726f20616464726560008301527f73730000000000000000000000000000000000000000000000000000000000006020830152604082019050919050565b60006110736026836114bb565b91507f45524332303a207472616e7366657220616d6f756e742065786365656473206260008301527f616c616e636500000000000000000000000000000000000000000000000000006020830152604082019050919050565b60006110d9600a836114bb565b91507f6f6e6c792061646d696e000000000000000000000000000000000000000000006000830152602082019050919050565b60006111196028836114bb565b91507f45524332303a207472616e7366657220616d6f756e742065786365656473206160008301527f6c6c6f77616e63650000000000000000000000000000000000000000000000006020830152604082019050919050565b600061117f6025836114bb565b91507f45524332303a207472616e736665722066726f6d20746865207a65726f20616460008301527f64726573730000000000000000000000000000000000000000000000000000006020830152604082019050919050565b60006111e56024836114bb565b91507f45524332303a20617070726f76652066726f6d20746865207a65726f2061646460008301527f72657373000000000000000000000000000000000000000000000000000000006020830152604082019050919050565b600061124b6025836114bb565b91507f45524332303a2064656372656173656420616c6c6f77616e63652062656c6f7760008301527f207a65726f0000000000000000000000000000000000000000000000000000006020830152604082019050919050565b60006112b1601f836114bb565b91507f45524332303a206d696e7420746f20746865207a65726f2061646472657373006000830152602082019050919050565b6112ed81611560565b82525050565b6112fc8161156a565b82525050565b60006020820190506113176000830184610f43565b92915050565b60006020820190506113326000830184610f52565b92915050565b600060208201905081810360008301526113528184610f61565b905092915050565b6000602082019050818103600083015261137381610f9a565b9050919050565b6000602082019050818103600083015261139381611000565b9050919050565b600060208201905081810360008301526113b381611066565b9050919050565b600060208201905081810360008301526113d3816110cc565b9050919050565b600060208201905081810360008301526113f38161110c565b9050919050565b6000602082019050818103600083015261141381611172565b9050919050565b60006020820190508181036000830152611433816111d8565b9050919050565b600060208201905081810360008301526114538161123e565b9050919050565b60006020820190508181036000830152611473816112a4565b9050919050565b600060208201905061148f60008301846112e4565b92915050565b60006020820190506114aa60008301846112f3565b92915050565b600081519050919050565b600082825260208201905092915050565b60006114d782611560565b91506114e283611560565b9250827fffffffffffffffffffffffffffffffffffffffffffffffffffffffffffffffff03821115611517576115166115dc565b5b828201905092915050565b600061152d82611540565b9050919050565b60008115159050919050565b600073ffffffffffffffffffffffffffffffffffffffff82169050919050565b6000819050919050565b600060ff82169050919050565b60005b8381101561159557808201518184015260208101905061157a565b838111156115a4576000848401525b50505050565b600060028204905060018216806115c257607f821691505b602082108114156115d6576115d561160b565b5b50919050565b7f4e487b7100000000000000000000000000000000000000000000000000000000600052601160045260246000fd5b7f4e487b7100000000000000000000000000000000000000000000000000000000600052602260045260246000fd5b6000601f19601f8301169050919050565b61165481611522565b811461165f57600080fd5b50565b61166b81611560565b811461167657600080fd5b5056fea2646970667358221220f518c5b9850ebd295e52a52d64d9a20e5c06a4d8b80a9dbb00db55d4aa6be60364736f6c63430008000033",
  "immutableReferences": {},
  "source": "pragma solidity ^0.8.0;\nimport \"@openzeppelin/contracts/token/ERC20/IERC20.sol\";\nimport '@openzeppelin/contracts/token/ERC20/ERC20.sol';\nimport \"hardhat/console.sol\";\n\n\n\n//The DAO Token ERC20 contract (DAOT) which will be used to pay contributors and suppliers of the DAO\ncontract DAOToken is ERC20 {\n  address public admin;\n\n  constructor() ERC20('DAO Token', 'DAOT'){\n    admin = msg.sender;\n  }\n\n  function mint(address to, uint amount) external{\n    require(msg.sender == admin, 'only admin');\n    _mint(to, amount);\n  }\n}\n\n//The DaoPayTreasury Factory which is able to create DaoWorkstreams and authorize payment to contributors from the community Treasury in DAOToken (DAOT)\ncontract DaoPayTreasury {\n    address public owner;\n    uint public supplyDaoToken;\n    DAOToken public daoToken;\n    address [] public listDaoWorkstreams;\n    string  [] public listDaoWorkstreamNames;\n\n    modifier restricted(){\n        require(msg.sender == owner,'only admin');\n        _;\n    }\n\n    constructor(uint _supplyDaoToken) {\n        owner = msg.sender;\n        supplyDaoToken = _supplyDaoToken;\n        daoToken = new DAOToken();\n        daoToken.mint(owner, supplyDaoToken);\n    }\n    //Create a DaoWorkstream\n    function createDaoWorkstream(string memory _workstreamName, address _workstreamOwner) restricted() external returns (address) {\n        DaoWorkstream newWk = new DaoWorkstream(_workstreamName, owner, _workstreamOwner, payable(address(daoToken)));\n        listDaoWorkstreams.push(address(newWk));\n        listDaoWorkstreamNames.push(_workstreamName);\n\n        return address(newWk);\n    }\n\n    function getDaoWorkstreams() public view returns (address[] memory){\n        return listDaoWorkstreams;\n    }\n    function getDaoWorkstreamNames() public view returns (string[] memory){\n        return listDaoWorkstreamNames;\n    }\n    function getDaoToken()  external view returns (address){\n        return (address(daoToken));\n    }\n    function getDaoTokenOwnerBalance()  external view returns (address, uint){\n        return (address(daoToken), daoToken.balanceOf(owner));\n    }\n\n    function payContributor(address payable to, uint amount) external payable {\n      to.transfer(amount);\n    }\n}\n\n//DaoWorkstream is the contract which holds the requests from contributors for payment and approves them to be paid from community treasury in DAOToken (DAOT)\ncontract DaoWorkstream {\n    address workstreamOwner;\n    address daoOwner;\n    string public workstreamName;\n    address payable public daoToken;\n\n    struct Request {\n        uint id;\n        string description;\n        uint value;\n        address payable recipient;\n        bool approved;\n        bool paid;\n    }\n    Request[] public requests;\n    uint public totalBalance;\n    uint public pendingBalance;\n    uint public pendingRequestCount;\n\n    modifier restricted(){\n        require(msg.sender == daoOwner,'only dao owner');\n        _;\n    }\n    modifier owner(){\n      require(msg.sender == workstreamOwner, 'only workstream owner');\n      _;\n    }\n    modifier isApproved(bool _approved){\n      require(_approved == true, 'NOT approved');\n      _;\n    }\n\n    constructor(string memory _workstreamName, address _daoOwner, address _workstreamOwner, address payable _daoToken){\n        daoOwner = _daoOwner;\n        workstreamName = _workstreamName;\n        daoToken = _daoToken;\n        workstreamOwner = _workstreamOwner;\n    }\n    function getWorkstreamOwner() external view returns(address)\n    {\n        return workstreamOwner;\n    }\n    function getDaoOwner() external view returns(address)\n    {\n        return daoOwner;\n    }\n    function getWorkstreamName() external view returns(string memory){\n      return workstreamName;\n    }\n\n    function execPayment(address payable to, uint amount)  public\n    {\n        IERC20(daoToken).transferFrom(daoOwner, to, amount);\n    }\n    function balance() external view returns(uint){\n      return (IERC20(daoToken).balanceOf(daoOwner));\n    }\n    function getSummary() external view returns (string memory, address, uint, uint, uint, uint) {\n      return (\n        workstreamName, workstreamOwner, pendingRequestCount, requests.length, pendingBalance, totalBalance\n      );\n    }\n    function getRequest(uint i) external view returns (uint id, string memory, address, uint, bool, bool) {\n      return (\n        requests[i].id, requests[i].description, requests[i].recipient, requests[i].value, requests[i].approved, requests[i].paid\n      );\n    }\n    function getRequestLength() external view returns (uint){\n      return(requests.length);\n    }\n    function createRequest(string memory description, uint value, address payable recipient) public  {\n        Request memory newReq = Request({\n           id: requests.length,\n           description: description,\n           value: value,\n           recipient: recipient,\n           approved: false,\n           paid: false\n        });\n        totalBalance += value;\n        pendingBalance += value;\n        pendingRequestCount += 1;\n        requests.push(newReq);\n    }\n    function approveRequest(uint index) restricted() external {\n        requests[index].approved = true;\n        //pay the recipeient\n        //Upon success\n        //pendingBalance -= requests[index].value;\n        pendingRequestCount -= 1;\n    }\n    function payRequest(uint index) external {\n        requests[index].paid = true;\n        //pay the recipeient\n        execPayment(requests[index].recipient, requests[index].value);\n        //Upon success\n        pendingBalance -= requests[index].value;\n    }\n}\n",
  "sourcePath": "/Users/jcooper/py/crypto/consensys/blockchain-developer-bootcamp-final-project/eth/contracts/DaoPayTreasury.sol",
  "compiler": {
    "name": "solc",
    "version": "0.8.0+commit.c7dfd78e.Emscripten.clang"
  },
  "schemaVersion": "3.4.3",
  "updatedAt": "2021-12-10T18:33:46.076Z",
  "networkType": "ethereum",
  "devdoc": {
    "kind": "dev",
    "methods": {},
    "version": 1
  },
  "userdoc": {
    "kind": "user",
    "methods": {},
    "version": 1
  }
}