{
  "contractName": "DaoWorkstream",
  "abi": [
    {
      "inputs": [
        {
          "internalType": "string",
          "name": "_workstreamName",
          "type": "string"
        },
        {
          "internalType": "address",
          "name": "_daoOwner",
          "type": "address"
        },
        {
          "internalType": "address",
          "name": "_workstreamOwner",
          "type": "address"
        },
        {
          "internalType": "address payable",
          "name": "_daoToken",
          "type": "address"
        }
      ],
      "stateMutability": "nonpayable",
      "type": "constructor"
    },
    {
      "inputs": [],
      "name": "daoToken",
      "outputs": [
        {
          "internalType": "address payable",
          "name": "",
          "type": "address"
        }
      ],
      "stateMutability": "view",
      "type": "function"
    },
    {
      "inputs": [],
      "name": "pendingBalance",
      "outputs": [
        {
          "internalType": "uint256",
          "name": "",
          "type": "uint256"
        }
      ],
      "stateMutability": "view",
      "type": "function"
    },
    {
      "inputs": [],
      "name": "pendingRequestCount",
      "outputs": [
        {
          "internalType": "uint256",
          "name": "",
          "type": "uint256"
        }
      ],
      "stateMutability": "view",
      "type": "function"
    },
    {
      "inputs": [
        {
          "internalType": "uint256",
          "name": "",
          "type": "uint256"
        }
      ],
      "name": "requests",
      "outputs": [
        {
          "internalType": "uint256",
          "name": "id",
          "type": "uint256"
        },
        {
          "internalType": "string",
          "name": "description",
          "type": "string"
        },
        {
          "internalType": "uint256",
          "name": "value",
          "type": "uint256"
        },
        {
          "internalType": "address payable",
          "name": "recipient",
          "type": "address"
        },
        {
          "internalType": "bool",
          "name": "approved",
          "type": "bool"
        },
        {
          "internalType": "bool",
          "name": "paid",
          "type": "bool"
        }
      ],
      "stateMutability": "view",
      "type": "function"
    },
    {
      "inputs": [],
      "name": "totalBalance",
      "outputs": [
        {
          "internalType": "uint256",
          "name": "",
          "type": "uint256"
        }
      ],
      "stateMutability": "view",
      "type": "function"
    },
    {
      "inputs": [],
      "name": "workstreamName",
      "outputs": [
        {
          "internalType": "string",
          "name": "",
          "type": "string"
        }
      ],
      "stateMutability": "view",
      "type": "function"
    },
    {
      "inputs": [],
      "name": "getWorkstreamOwner",
      "outputs": [
        {
          "internalType": "address",
          "name": "",
          "type": "address"
        }
      ],
      "stateMutability": "view",
      "type": "function"
    },
    {
      "inputs": [],
      "name": "getDaoOwner",
      "outputs": [
        {
          "internalType": "address",
          "name": "",
          "type": "address"
        }
      ],
      "stateMutability": "view",
      "type": "function"
    },
    {
      "inputs": [],
      "name": "getWorkstreamName",
      "outputs": [
        {
          "internalType": "string",
          "name": "",
          "type": "string"
        }
      ],
      "stateMutability": "view",
      "type": "function"
    },
    {
      "inputs": [
        {
          "internalType": "address payable",
          "name": "to",
          "type": "address"
        },
        {
          "internalType": "uint256",
          "name": "amount",
          "type": "uint256"
        }
      ],
      "name": "execPayment",
      "outputs": [],
      "stateMutability": "nonpayable",
      "type": "function"
    },
    {
      "inputs": [],
      "name": "balance",
      "outputs": [
        {
          "internalType": "uint256",
          "name": "",
          "type": "uint256"
        }
      ],
      "stateMutability": "view",
      "type": "function"
    },
    {
      "inputs": [],
      "name": "getSummary",
      "outputs": [
        {
          "internalType": "string",
          "name": "",
          "type": "string"
        },
        {
          "internalType": "address",
          "name": "",
          "type": "address"
        },
        {
          "internalType": "uint256",
          "name": "",
          "type": "uint256"
        },
        {
          "internalType": "uint256",
          "name": "",
          "type": "uint256"
        },
        {
          "internalType": "uint256",
          "name": "",
          "type": "uint256"
        },
        {
          "internalType": "uint256",
          "name": "",
          "type": "uint256"
        }
      ],
      "stateMutability": "view",
      "type": "function"
    },
    {
      "inputs": [
        {
          "internalType": "uint256",
          "name": "i",
          "type": "uint256"
        }
      ],
      "name": "getRequest",
      "outputs": [
        {
          "internalType": "uint256",
          "name": "id",
          "type": "uint256"
        },
        {
          "internalType": "string",
          "name": "",
          "type": "string"
        },
        {
          "internalType": "address",
          "name": "",
          "type": "address"
        },
        {
          "internalType": "uint256",
          "name": "",
          "type": "uint256"
        },
        {
          "internalType": "bool",
          "name": "",
          "type": "bool"
        },
        {
          "internalType": "bool",
          "name": "",
          "type": "bool"
        }
      ],
      "stateMutability": "view",
      "type": "function"
    },
    {
      "inputs": [],
      "name": "getRequestLength",
      "outputs": [
        {
          "internalType": "uint256",
          "name": "",
          "type": "uint256"
        }
      ],
      "stateMutability": "view",
      "type": "function"
    },
    {
      "inputs": [
        {
          "internalType": "string",
          "name": "description",
          "type": "string"
        },
        {
          "internalType": "uint256",
          "name": "value",
          "type": "uint256"
        },
        {
          "internalType": "address payable",
          "name": "recipient",
          "type": "address"
        }
      ],
      "name": "createRequest",
      "outputs": [],
      "stateMutability": "nonpayable",
      "type": "function"
    },
    {
      "inputs": [
        {
          "internalType": "uint256",
          "name": "index",
          "type": "uint256"
        }
      ],
      "name": "approveRequest",
      "outputs": [],
      "stateMutability": "nonpayable",
      "type": "function"
    },
    {
      "inputs": [
        {
          "internalType": "uint256",
          "name": "index",
          "type": "uint256"
        }
      ],
      "name": "payRequest",
      "outputs": [],
      "stateMutability": "nonpayable",
      "type": "function"
    }
  ],
  "bytecode": "0x60806040523480156200001157600080fd5b5060405162001c6e38038062001c6e83398181016040528101906200003791906200026c565b82600160006101000a81548173ffffffffffffffffffffffffffffffffffffffff021916908373ffffffffffffffffffffffffffffffffffffffff1602179055508360029080519060200190620000909291906200011c565b5080600360006101000a81548173ffffffffffffffffffffffffffffffffffffffff021916908373ffffffffffffffffffffffffffffffffffffffff160217905550816000806101000a81548173ffffffffffffffffffffffffffffffffffffffff021916908373ffffffffffffffffffffffffffffffffffffffff160217905550505050506200049e565b8280546200012a90620003d6565b90600052602060002090601f0160209004810192826200014e57600085556200019a565b82601f106200016957805160ff19168380011785556200019a565b828001600101855582156200019a579182015b82811115620001995782518255916020019190600101906200017c565b5b509050620001a99190620001ad565b5090565b5b80821115620001c8576000816000905550600101620001ae565b5090565b6000620001e3620001dd8462000325565b620002f1565b905082815260208101848484011115620001fc57600080fd5b62000209848285620003a0565b509392505050565b60008151905062000222816200046a565b92915050565b600081519050620002398162000484565b92915050565b600082601f8301126200025157600080fd5b815162000263848260208601620001cc565b91505092915050565b600080600080608085870312156200028357600080fd5b600085015167ffffffffffffffff8111156200029e57600080fd5b620002ac878288016200023f565b9450506020620002bf8782880162000211565b9350506040620002d28782880162000211565b9250506060620002e58782880162000228565b91505092959194509250565b6000604051905081810181811067ffffffffffffffff821117156200031b576200031a6200043b565b5b8060405250919050565b600067ffffffffffffffff8211156200034357620003426200043b565b5b601f19601f8301169050602081019050919050565b6000620003658262000380565b9050919050565b6000620003798262000380565b9050919050565b600073ffffffffffffffffffffffffffffffffffffffff82169050919050565b60005b83811015620003c0578082015181840152602081019050620003a3565b83811115620003d0576000848401525b50505050565b60006002820490506001821680620003ef57607f821691505b602082108114156200040657620004056200040c565b5b50919050565b7f4e487b7100000000000000000000000000000000000000000000000000000000600052602260045260246000fd5b7f4e487b7100000000000000000000000000000000000000000000000000000000600052604160045260246000fd5b620004758162000358565b81146200048157600080fd5b50565b6200048f816200036c565b81146200049b57600080fd5b50565b6117c080620004ae6000396000f3fe608060405234801561001057600080fd5b506004361061010b5760003560e01c806381d12c58116100a2578063c11c4cfc11610071578063c11c4cfc14610290578063c58343ef146102ae578063d7d1bbdb146102e3578063dd71e3ac146102ff578063e0abba571461031b5761010b565b806381d12c58146102035780638a9cfd5514610238578063ad7a672f14610254578063b69ef8a8146102725761010b565b80634914b030116100de5780634914b0301461018d57806353bf1de0146101ab57806357b4d18e146101c957806363d4dd3b146101e75761010b565b80632a881d6414610110578063319befc71461012e57806340059bd71461014c5780634051ddac1461016a575b600080fd5b610118610339565b604051610125919061129a565b60405180910390f35b610136610363565b604051610143919061129a565b60405180910390f35b61015461038c565b6040516101619190611307565b60405180910390f35b61017261041a565b60405161018496959493929190611329565b60405180910390f35b6101956104f6565b6040516101a291906112b5565b60405180910390f35b6101b361051c565b6040516101c091906113b1565b60405180910390f35b6101d1610529565b6040516101de91906113b1565b60405180910390f35b61020160048036038101906101fc9190611184565b61052f565b005b61021d60048036038101906102189190611184565b6106ba565b60405161022f96959493929190611434565b60405180910390f35b610252600480360381019061024d919061111d565b6107c8565b005b61025c610952565b60405161026991906113b1565b60405180910390f35b61027a610958565b60405161028791906113b1565b60405180910390f35b610298610a2c565b6040516102a59190611307565b60405180910390f35b6102c860048036038101906102c39190611184565b610abe565b6040516102da969594939291906113cc565b60405180910390f35b6102fd60048036038101906102f89190611184565b610d6a565b005b610319600480360381019061031491906110b8565b610e7b565b005b610323610f53565b60405161033091906113b1565b60405180910390f35b6000600160009054906101000a900473ffffffffffffffffffffffffffffffffffffffff16905090565b60008060009054906101000a900473ffffffffffffffffffffffffffffffffffffffff16905090565b6002805461039990611675565b80601f01602080910402602001604051908101604052809291908181526020018280546103c590611675565b80156104125780601f106103e757610100808354040283529160200191610412565b820191906000526020600020905b8154815290600101906020018083116103f557829003601f168201915b505050505081565b60606000806000806000600260008054906101000a900473ffffffffffffffffffffffffffffffffffffffff1660075460048054905060065460055485805461046290611675565b80601f016020809104026020016040519081016040528092919081815260200182805461048e90611675565b80156104db5780601f106104b0576101008083540402835291602001916104db565b820191906000526020600020905b8154815290600101906020018083116104be57829003601f168201915b50505050509550955095509550955095509550909192939495565b600360009054906101000a900473ffffffffffffffffffffffffffffffffffffffff1681565b6000600480549050905090565b60065481565b60016004828154811061056b577f4e487b7100000000000000000000000000000000000000000000000000000000600052603260045260246000fd5b906000526020600020906004020160030160156101000a81548160ff021916908315150217905550610653600482815481106105d0577f4e487b7100000000000000000000000000000000000000000000000000000000600052603260045260246000fd5b906000526020600020906004020160030160009054906101000a900473ffffffffffffffffffffffffffffffffffffffff166004838154811061063c577f4e487b7100000000000000000000000000000000000000000000000000000000600052603260045260246000fd5b906000526020600020906004020160020154610e7b565b6004818154811061068d577f4e487b7100000000000000000000000000000000000000000000000000000000600052603260045260246000fd5b906000526020600020906004020160020154600660008282546106b0919061156f565b9250508190555050565b600481815481106106ca57600080fd5b90600052602060002090600402016000915090508060000154908060010180546106f390611675565b80601f016020809104026020016040519081016040528092919081815260200182805461071f90611675565b801561076c5780601f106107415761010080835404028352916020019161076c565b820191906000526020600020905b81548152906001019060200180831161074f57829003601f168201915b5050505050908060020154908060030160009054906101000a900473ffffffffffffffffffffffffffffffffffffffff16908060030160149054906101000a900460ff16908060030160159054906101000a900460ff16905086565b60006040518060c0016040528060048054905081526020018581526020018481526020018373ffffffffffffffffffffffffffffffffffffffff168152602001600015158152602001600015158152509050826005600082825461082c9190611519565b9250508190555082600660008282546108459190611519565b9250508190555060016007600082825461085f9190611519565b9250508190555060048190806001815401808255809150506001900390600052602060002090600402016000909190919091506000820151816000015560208201518160010190805190602001906108b8929190610f59565b506040820151816002015560608201518160030160006101000a81548173ffffffffffffffffffffffffffffffffffffffff021916908373ffffffffffffffffffffffffffffffffffffffff16021790555060808201518160030160146101000a81548160ff02191690831515021790555060a08201518160030160156101000a81548160ff021916908315150217905550505050505050565b60055481565b6000600360009054906101000a900473ffffffffffffffffffffffffffffffffffffffff1673ffffffffffffffffffffffffffffffffffffffff166370a08231600160009054906101000a900473ffffffffffffffffffffffffffffffffffffffff166040518263ffffffff1660e01b81526004016109d7919061129a565b60206040518083038186803b1580156109ef57600080fd5b505afa158015610a03573d6000803e3d6000fd5b505050506040513d601f19601f82011682018060405250810190610a2791906111ad565b905090565b606060028054610a3b90611675565b80601f0160208091040260200160405190810160405280929190818152602001828054610a6790611675565b8015610ab45780601f10610a8957610100808354040283529160200191610ab4565b820191906000526020600020905b815481529060010190602001808311610a9757829003601f168201915b5050505050905090565b6000606060008060008060048781548110610b02577f4e487b7100000000000000000000000000000000000000000000000000000000600052603260045260246000fd5b90600052602060002090600402016000015460048881548110610b4e577f4e487b7100000000000000000000000000000000000000000000000000000000600052603260045260246000fd5b906000526020600020906004020160010160048981548110610b99577f4e487b7100000000000000000000000000000000000000000000000000000000600052603260045260246000fd5b906000526020600020906004020160030160009054906101000a900473ffffffffffffffffffffffffffffffffffffffff1660048a81548110610c05577f4e487b7100000000000000000000000000000000000000000000000000000000600052603260045260246000fd5b90600052602060002090600402016002015460048b81548110610c51577f4e487b7100000000000000000000000000000000000000000000000000000000600052603260045260246000fd5b906000526020600020906004020160030160149054906101000a900460ff1660048c81548110610caa577f4e487b7100000000000000000000000000000000000000000000000000000000600052603260045260246000fd5b906000526020600020906004020160030160159054906101000a900460ff16848054610cd590611675565b80601f0160208091040260200160405190810160405280929190818152602001828054610d0190611675565b8015610d4e5780601f10610d2357610100808354040283529160200191610d4e565b820191906000526020600020905b815481529060010190602001808311610d3157829003601f168201915b5050505050945095509550955095509550955091939550919395565b600160009054906101000a900473ffffffffffffffffffffffffffffffffffffffff1673ffffffffffffffffffffffffffffffffffffffff163373ffffffffffffffffffffffffffffffffffffffff1614610dfa576040517f08c379a0000000000000000000000000000000000000000000000000000000008152600401610df190611391565b60405180910390fd5b600160048281548110610e36577f4e487b7100000000000000000000000000000000000000000000000000000000600052603260045260246000fd5b906000526020600020906004020160030160146101000a81548160ff021916908315150217905550600160076000828254610e71919061156f565b9250508190555050565b600360009054906101000a900473ffffffffffffffffffffffffffffffffffffffff1673ffffffffffffffffffffffffffffffffffffffff166323b872dd600160009054906101000a900473ffffffffffffffffffffffffffffffffffffffff1684846040518463ffffffff1660e01b8152600401610efc939291906112d0565b602060405180830381600087803b158015610f1657600080fd5b505af1158015610f2a573d6000803e3d6000fd5b505050506040513d601f19601f82011682018060405250810190610f4e91906110f4565b505050565b60075481565b828054610f6590611675565b90600052602060002090601f016020900481019282610f875760008555610fce565b82601f10610fa057805160ff1916838001178555610fce565b82800160010185558215610fce579182015b82811115610fcd578251825591602001919060010190610fb2565b5b509050610fdb9190610fdf565b5090565b5b80821115610ff8576000816000905550600101610fe0565b5090565b600061100f61100a846114cd565b61149c565b90508281526020810184848401111561102757600080fd5b611032848285611633565b509392505050565b60008135905061104981611745565b92915050565b60008151905061105e8161175c565b92915050565b600082601f83011261107557600080fd5b8135611085848260208601610ffc565b91505092915050565b60008135905061109d81611773565b92915050565b6000815190506110b281611773565b92915050565b600080604083850312156110cb57600080fd5b60006110d98582860161103a565b92505060206110ea8582860161108e565b9150509250929050565b60006020828403121561110657600080fd5b60006111148482850161104f565b91505092915050565b60008060006060848603121561113257600080fd5b600084013567ffffffffffffffff81111561114c57600080fd5b61115886828701611064565b93505060206111698682870161108e565b925050604061117a8682870161103a565b9150509250925092565b60006020828403121561119657600080fd5b60006111a48482850161108e565b91505092915050565b6000602082840312156111bf57600080fd5b60006111cd848285016110a3565b91505092915050565b6111df816115fd565b82525050565b6111ee816115b5565b82525050565b6111fd816115a3565b82525050565b61120c816115c7565b82525050565b600061121d826114fd565b6112278185611508565b9350611237818560208601611642565b61124081611734565b840191505092915050565b6000611258600e83611508565b91507f6f6e6c792064616f206f776e65720000000000000000000000000000000000006000830152602082019050919050565b611294816115f3565b82525050565b60006020820190506112af60008301846111f4565b92915050565b60006020820190506112ca60008301846111e5565b92915050565b60006060820190506112e560008301866111f4565b6112f260208301856111d6565b6112ff604083018461128b565b949350505050565b600060208201905081810360008301526113218184611212565b905092915050565b600060c08201905081810360008301526113438189611212565b905061135260208301886111f4565b61135f604083018761128b565b61136c606083018661128b565b611379608083018561128b565b61138660a083018461128b565b979650505050505050565b600060208201905081810360008301526113aa8161124b565b9050919050565b60006020820190506113c6600083018461128b565b92915050565b600060c0820190506113e1600083018961128b565b81810360208301526113f38188611212565b905061140260408301876111f4565b61140f606083018661128b565b61141c6080830185611203565b61142960a0830184611203565b979650505050505050565b600060c082019050611449600083018961128b565b818103602083015261145b8188611212565b905061146a604083018761128b565b61147760608301866111e5565b6114846080830185611203565b61149160a0830184611203565b979650505050505050565b6000604051905081810181811067ffffffffffffffff821117156114c3576114c2611705565b5b8060405250919050565b600067ffffffffffffffff8211156114e8576114e7611705565b5b601f19601f8301169050602081019050919050565b600081519050919050565b600082825260208201905092915050565b6000611524826115f3565b915061152f836115f3565b9250827fffffffffffffffffffffffffffffffffffffffffffffffffffffffffffffffff03821115611564576115636116a7565b5b828201905092915050565b600061157a826115f3565b9150611585836115f3565b925082821015611598576115976116a7565b5b828203905092915050565b60006115ae826115d3565b9050919050565b60006115c0826115d3565b9050919050565b60008115159050919050565b600073ffffffffffffffffffffffffffffffffffffffff82169050919050565b6000819050919050565b60006116088261160f565b9050919050565b600061161a82611621565b9050919050565b600061162c826115d3565b9050919050565b82818337600083830152505050565b60005b83811015611660578082015181840152602081019050611645565b8381111561166f576000848401525b50505050565b6000600282049050600182168061168d57607f821691505b602082108114156116a1576116a06116d6565b5b50919050565b7f4e487b7100000000000000000000000000000000000000000000000000000000600052601160045260246000fd5b7f4e487b7100000000000000000000000000000000000000000000000000000000600052602260045260246000fd5b7f4e487b7100000000000000000000000000000000000000000000000000000000600052604160045260246000fd5b6000601f19601f8301169050919050565b61174e816115b5565b811461175957600080fd5b50565b611765816115c7565b811461177057600080fd5b50565b61177c816115f3565b811461178757600080fd5b5056fea2646970667358221220e14a254fc8f34f9601f2900e8d14d1e2bc2def3972e1a6f97373e6f7b08beedb64736f6c63430008000033",
  "immutableReferences": {},
  "source": "pragma solidity ^0.8.0;\nimport \"@openzeppelin/contracts/token/ERC20/IERC20.sol\";\nimport '@openzeppelin/contracts/token/ERC20/ERC20.sol';\nimport \"hardhat/console.sol\";\n\n\n\n//The DAO Token ERC20 contract (DAOT) which will be used to pay contributors and suppliers of the DAO\ncontract DAOToken is ERC20 {\n  address public admin;\n\n  constructor() ERC20('DAO Token', 'DAOT'){\n    admin = msg.sender;\n  }\n\n  function mint(address to, uint amount) external{\n    require(msg.sender == admin, 'only admin');\n    _mint(to, amount);\n  }\n}\n\n//The DaoPayTreasury Factory which is able to create DaoWorkstreams and authorize payment to contributors from the community Treasury in DAOToken (DAOT)\ncontract DaoPayTreasury {\n    address public owner;\n    uint public supplyDaoToken;\n    DAOToken public daoToken;\n    address [] public listDaoWorkstreams;\n    string  [] public listDaoWorkstreamNames;\n\n    modifier restricted(){\n        require(msg.sender == owner,'only admin');\n        _;\n    }\n\n    constructor(uint _supplyDaoToken) {\n        owner = msg.sender;\n        supplyDaoToken = _supplyDaoToken;\n        daoToken = new DAOToken();\n        daoToken.mint(owner, supplyDaoToken);\n    }\n    //Create a DaoWorkstream\n    function createDaoWorkstream(string memory _workstreamName, address _workstreamOwner) restricted() external returns (address) {\n        DaoWorkstream newWk = new DaoWorkstream(_workstreamName, owner, _workstreamOwner, payable(address(daoToken)));\n        listDaoWorkstreams.push(address(newWk));\n        listDaoWorkstreamNames.push(_workstreamName);\n\n        return address(newWk);\n    }\n\n    function getDaoWorkstreams() public view returns (address[] memory){\n        return listDaoWorkstreams;\n    }\n    function getDaoWorkstreamNames() public view returns (string[] memory){\n        return listDaoWorkstreamNames;\n    }\n    function getDaoToken()  external view returns (address){\n        return (address(daoToken));\n    }\n    function getDaoTokenOwnerBalance()  external view returns (address, uint){\n        return (address(daoToken), daoToken.balanceOf(owner));\n    }\n\n    function payContributor(address payable to, uint amount) external payable {\n      to.transfer(amount);\n    }\n}\n\n//DaoWorkstream is the contract which holds the requests from contributors for payment and approves them to be paid from community treasury in DAOToken (DAOT)\ncontract DaoWorkstream {\n    address workstreamOwner;\n    address daoOwner;\n    string public workstreamName;\n    address payable public daoToken;\n\n    struct Request {\n        uint id;\n        string description;\n        uint value;\n        address payable recipient;\n        bool approved;\n        bool paid;\n    }\n    Request[] public requests;\n    uint public totalBalance;\n    uint public pendingBalance;\n    uint public pendingRequestCount;\n\n    modifier restricted(){\n        require(msg.sender == daoOwner,'only dao owner');\n        _;\n    }\n    modifier owner(){\n      require(msg.sender == workstreamOwner, 'only workstream owner');\n      _;\n    }\n    modifier isApproved(bool _approved){\n      require(_approved == true, 'NOT approved');\n      _;\n    }\n\n    constructor(string memory _workstreamName, address _daoOwner, address _workstreamOwner, address payable _daoToken){\n        daoOwner = _daoOwner;\n        workstreamName = _workstreamName;\n        daoToken = _daoToken;\n        workstreamOwner = _workstreamOwner;\n    }\n    function getWorkstreamOwner() external view returns(address)\n    {\n        return workstreamOwner;\n    }\n    function getDaoOwner() external view returns(address)\n    {\n        return daoOwner;\n    }\n    function getWorkstreamName() external view returns(string memory){\n      return workstreamName;\n    }\n\n    function execPayment(address payable to, uint amount)  public\n    {\n        IERC20(daoToken).transferFrom(daoOwner, to, amount);\n    }\n    function balance() external view returns(uint){\n      return (IERC20(daoToken).balanceOf(daoOwner));\n    }\n    function getSummary() external view returns (string memory, address, uint, uint, uint, uint) {\n      return (\n        workstreamName, workstreamOwner, pendingRequestCount, requests.length, pendingBalance, totalBalance\n      );\n    }\n    function getRequest(uint i) external view returns (uint id, string memory, address, uint, bool, bool) {\n      return (\n        requests[i].id, requests[i].description, requests[i].recipient, requests[i].value, requests[i].approved, requests[i].paid\n      );\n    }\n    function getRequestLength() external view returns (uint){\n      return(requests.length);\n    }\n    function createRequest(string memory description, uint value, address payable recipient) public  {\n        Request memory newReq = Request({\n           id: requests.length,\n           description: description,\n           value: value,\n           recipient: recipient,\n           approved: false,\n           paid: false\n        });\n        totalBalance += value;\n        pendingBalance += value;\n        pendingRequestCount += 1;\n        requests.push(newReq);\n    }\n    function approveRequest(uint index) restricted() external {\n        requests[index].approved = true;\n        //pay the recipeient\n        //Upon success\n        //pendingBalance -= requests[index].value;\n        pendingRequestCount -= 1;\n    }\n    function payRequest(uint index) external {\n        requests[index].paid = true;\n        //pay the recipeient\n        execPayment(requests[index].recipient, requests[index].value);\n        //Upon success\n        pendingBalance -= requests[index].value;\n    }\n}\n",
  "sourcePath": "/Users/jcooper/py/crypto/consensys/blockchain-developer-bootcamp-final-project/eth/contracts/DaoPayTreasury.sol",
  "compiler": {
    "name": "solc",
    "version": "0.8.0+commit.c7dfd78e.Emscripten.clang"
  },
  "schemaVersion": "3.4.3",
  "updatedAt": "2021-12-10T18:28:00.195Z",
  "devdoc": {
    "kind": "dev",
    "methods": {},
    "version": 1
  },
  "userdoc": {
    "kind": "user",
    "methods": {},
    "version": 1
  }
}