{
  "_format": "hh-sol-artifact-1",
  "contractName": "DefiWallieFactory",
  "sourceName": "contracts/DefiWallieFactory.sol",
  "abi": [
    {
      "inputs": [
        {
          "internalType": "address",
          "name": "_comptroller",
          "type": "address"
        },
        {
          "internalType": "address",
          "name": "_cEthAddress",
          "type": "address"
        }
      ],
      "stateMutability": "nonpayable",
      "type": "constructor"
    },
    {
      "inputs": [
        {
          "internalType": "address",
          "name": "",
          "type": "address"
        },
        {
          "internalType": "uint256",
          "name": "",
          "type": "uint256"
        }
      ],
      "name": "allWallets",
      "outputs": [
        {
          "internalType": "address",
          "name": "",
          "type": "address"
        }
      ],
      "stateMutability": "view",
      "type": "function"
    },
    {
      "inputs": [],
      "name": "cEth",
      "outputs": [
        {
          "internalType": "address",
          "name": "",
          "type": "address"
        }
      ],
      "stateMutability": "view",
      "type": "function"
    },
    {
      "inputs": [],
      "name": "comptroller",
      "outputs": [
        {
          "internalType": "address",
          "name": "",
          "type": "address"
        }
      ],
      "stateMutability": "view",
      "type": "function"
    },
    {
      "inputs": [
        {
          "internalType": "string",
          "name": "walletName",
          "type": "string"
        }
      ],
      "name": "createWallie",
      "outputs": [
        {
          "internalType": "address",
          "name": "",
          "type": "address"
        }
      ],
      "stateMutability": "nonpayable",
      "type": "function"
    },
    {
      "inputs": [],
      "name": "getOwnerWallieAddress",
      "outputs": [
        {
          "internalType": "address",
          "name": "",
          "type": "address"
        }
      ],
      "stateMutability": "view",
      "type": "function"
    },
    {
      "inputs": [],
      "name": "getOwnerWallies",
      "outputs": [
        {
          "internalType": "address[]",
          "name": "",
          "type": "address[]"
        }
      ],
      "stateMutability": "view",
      "type": "function"
    },
    {
      "inputs": [
        {
          "internalType": "address",
          "name": "ownerAddress",
          "type": "address"
        }
      ],
      "name": "getWallies",
      "outputs": [
        {
          "internalType": "address[]",
          "name": "",
          "type": "address[]"
        }
      ],
      "stateMutability": "view",
      "type": "function"
    },
    {
      "inputs": [],
      "name": "owner",
      "outputs": [
        {
          "internalType": "address",
          "name": "",
          "type": "address"
        }
      ],
      "stateMutability": "view",
      "type": "function"
    }
  ],
  "bytecode": "0x60806040523480156200001157600080fd5b50604051620037ff380380620037ff833981810160405281019062000037919062000256565b81600160006101000a81548173ffffffffffffffffffffffffffffffffffffffff021916908373ffffffffffffffffffffffffffffffffffffffff16021790555080600260006101000a81548173ffffffffffffffffffffffffffffffffffffffff021916908373ffffffffffffffffffffffffffffffffffffffff16021790555033600360006101000a81548173ffffffffffffffffffffffffffffffffffffffff021916908373ffffffffffffffffffffffffffffffffffffffff160217905550620001686040518060400160405280601581526020017f63726561746564206e657720666163746f727920200000000000000000000000815250600360009054906101000a900473ffffffffffffffffffffffffffffffffffffffff166200017060201b6200069f1760201c565b5050620003ce565b62000212828260405160240162000189929190620002e9565b6040516020818303038152906040527f319af333000000000000000000000000000000000000000000000000000000007bffffffffffffffffffffffffffffffffffffffffffffffffffffffff19166020820180517bffffffffffffffffffffffffffffffffffffffffffffffffffffffff83818316178352505050506200021660201b60201c565b5050565b60008151905060006a636f6e736f6c652e6c6f679050602083016000808483855afa5050505050565b6000815190506200025081620003b4565b92915050565b600080604083850312156200026a57600080fd5b60006200027a858286016200023f565b92505060206200028d858286016200023f565b9150509250929050565b620002a28162000339565b82525050565b6000620002b5826200031d565b620002c1818562000328565b9350620002d38185602086016200036d565b620002de81620003a3565b840191505092915050565b60006040820190508181036000830152620003058185620002a8565b905062000316602083018462000297565b9392505050565b600081519050919050565b600082825260208201905092915050565b600062000346826200034d565b9050919050565b600073ffffffffffffffffffffffffffffffffffffffff82169050919050565b60005b838110156200038d57808201518184015260208101905062000370565b838111156200039d576000848401525b50505050565b6000601f19601f8301169050919050565b620003bf8162000339565b8114620003cb57600080fd5b50565b61342180620003de6000396000f3fe60806040523480156200001157600080fd5b5060043610620000945760003560e01c80638da5cb5b11620000635780638da5cb5b1462000149578063a44026a3146200016b578063aac9c283146200018d578063bb404be214620001c35762000094565b80635f735c3614620000995780635fe3b56714620000cf5780636f02520614620000f15780638a62e9ad1462000127575b600080fd5b620000b76004803603810190620000b1919062000816565b620001e5565b604051620000c69190620009cc565b60405180910390f35b620000d9620002b3565b604051620000e89190620009af565b60405180910390f35b6200010f600480360381019062000109919062000883565b620002d9565b6040516200011e9190620009af565b60405180910390f35b620001316200044a565b604051620001409190620009af565b60405180910390f35b6200015362000516565b604051620001629190620009af565b60405180910390f35b620001756200053c565b604051620001849190620009af565b60405180910390f35b620001ab6004803603810190620001a5919062000842565b62000562565b604051620001ba9190620009af565b60405180910390f35b620001cd620005b1565b604051620001dc9190620009cc565b60405180910390f35b60606000808373ffffffffffffffffffffffffffffffffffffffff1673ffffffffffffffffffffffffffffffffffffffff168152602001908152602001600020805480602002602001604051908101604052809291908181526020018280548015620002a757602002820191906000526020600020905b8160009054906101000a900473ffffffffffffffffffffffffffffffffffffffff1673ffffffffffffffffffffffffffffffffffffffff16815260200190600101908083116200025c575b50505050509050919050565b600160009054906101000a900473ffffffffffffffffffffffffffffffffffffffff1681565b6000808233600160009054906101000a900473ffffffffffffffffffffffffffffffffffffffff16600260009054906101000a900473ffffffffffffffffffffffffffffffffffffffff16604051620003329062000768565b62000341949392919062000a24565b604051809103906000f0801580156200035e573d6000803e3d6000fd5b5090506000803373ffffffffffffffffffffffffffffffffffffffff1673ffffffffffffffffffffffffffffffffffffffff168152602001908152602001600020819080600181540180825580915050600190039060005260206000200160009091909190916101000a81548173ffffffffffffffffffffffffffffffffffffffff021916908373ffffffffffffffffffffffffffffffffffffffff160217905550620004416040518060400160405280601381526020017f63726561746564206e65772057616c6c69652000000000000000000000000000815250826200069f565b80915050919050565b6000806000600360009054906101000a900473ffffffffffffffffffffffffffffffffffffffff1673ffffffffffffffffffffffffffffffffffffffff1673ffffffffffffffffffffffffffffffffffffffff168152602001908152602001600020600081548110620004e6577f4e487b7100000000000000000000000000000000000000000000000000000000600052603260045260246000fd5b9060005260206000200160009054906101000a900473ffffffffffffffffffffffffffffffffffffffff16905090565b600360009054906101000a900473ffffffffffffffffffffffffffffffffffffffff1681565b600260009054906101000a900473ffffffffffffffffffffffffffffffffffffffff1681565b600060205281600052604060002081815481106200057f57600080fd5b906000526020600020016000915091509054906101000a900473ffffffffffffffffffffffffffffffffffffffff1681565b6060600080600360009054906101000a900473ffffffffffffffffffffffffffffffffffffffff1673ffffffffffffffffffffffffffffffffffffffff1673ffffffffffffffffffffffffffffffffffffffff1681526020019081526020016000208054806020026020016040519081016040528092919081815260200182805480156200069557602002820191906000526020600020905b8160009054906101000a900473ffffffffffffffffffffffffffffffffffffffff1673ffffffffffffffffffffffffffffffffffffffff16815260200190600101908083116200064a575b5050505050905090565b6200073b8282604051602401620006b8929190620009f0565b6040516020818303038152906040527f319af333000000000000000000000000000000000000000000000000000000007bffffffffffffffffffffffffffffffffffffffffffffffffffffffff19166020820180517bffffffffffffffffffffffffffffffffffffffffffffffffffffffff83818316178352505050506200073f565b5050565b60008151905060006a636f6e736f6c652e6c6f679050602083016000808483855afa5050505050565b6127c08062000c2c83390190565b60006200078d620007878462000aac565b62000a78565b905082815260208101848484011115620007a657600080fd5b620007b384828562000b72565b509392505050565b600081359050620007cc8162000bf7565b92915050565b600082601f830112620007e457600080fd5b8135620007f684826020860162000776565b91505092915050565b600081359050620008108162000c11565b92915050565b6000602082840312156200082957600080fd5b60006200083984828501620007bb565b91505092915050565b600080604083850312156200085657600080fd5b60006200086685828601620007bb565b92505060206200087985828601620007ff565b9150509250929050565b6000602082840312156200089657600080fd5b600082013567ffffffffffffffff811115620008b157600080fd5b620008bf84828501620007d2565b91505092915050565b6000620008d68383620008e2565b60208301905092915050565b620008ed8162000b34565b82525050565b620008fe8162000b34565b82525050565b6000620009118262000aef565b6200091d818562000b12565b93506200092a8362000adf565b8060005b8381101562000961578151620009458882620008c8565b9750620009528362000b05565b9250506001810190506200092e565b5085935050505092915050565b60006200097b8262000afa565b62000987818562000b23565b93506200099981856020860162000b81565b620009a48162000be6565b840191505092915050565b6000602082019050620009c66000830184620008f3565b92915050565b60006020820190508181036000830152620009e8818462000904565b905092915050565b6000604082019050818103600083015262000a0c81856200096e565b905062000a1d6020830184620008f3565b9392505050565b6000608082019050818103600083015262000a4081876200096e565b905062000a516020830186620008f3565b62000a606040830185620008f3565b62000a6f6060830184620008f3565b95945050505050565b6000604051905081810181811067ffffffffffffffff8211171562000aa25762000aa162000bb7565b5b8060405250919050565b600067ffffffffffffffff82111562000aca5762000ac962000bb7565b5b601f19601f8301169050602081019050919050565b6000819050602082019050919050565b600081519050919050565b600081519050919050565b6000602082019050919050565b600082825260208201905092915050565b600082825260208201905092915050565b600062000b418262000b48565b9050919050565b600073ffffffffffffffffffffffffffffffffffffffff82169050919050565b6000819050919050565b82818337600083830152505050565b60005b8381101562000ba157808201518184015260208101905062000b84565b8381111562000bb1576000848401525b50505050565b7f4e487b7100000000000000000000000000000000000000000000000000000000600052604160045260246000fd5b6000601f19601f8301169050919050565b62000c028162000b34565b811462000c0e57600080fd5b50565b62000c1c8162000b68565b811462000c2857600080fd5b5056fe60806040523480156200001157600080fd5b50604051620027c0380380620027c0833981810160405281019062000037919062000380565b8181816000806101000a81548173ffffffffffffffffffffffffffffffffffffffff021916908373ffffffffffffffffffffffffffffffffffffffff16021790555080600160006101000a81548173ffffffffffffffffffffffffffffffffffffffff021916908373ffffffffffffffffffffffffffffffffffffffff16021790555050508360039080519060200190620000d492919062000247565b5082600260006101000a81548173ffffffffffffffffffffffffffffffffffffffff021916908373ffffffffffffffffffffffffffffffffffffffff16021790555060006004819055506200016b6040518060400160405280601481526020017f637265617465642077616c6c6574206e616d652000000000000000000000000081525085306200017560201b62000daa1760201c565b505050506200064e565b62000219838383604051602401620001909392919062000457565b6040516020818303038152906040527f95ed0195000000000000000000000000000000000000000000000000000000007bffffffffffffffffffffffffffffffffffffffffffffffffffffffff19166020820180517bffffffffffffffffffffffffffffffffffffffffffffffffffffffff83818316178352505050506200021e60201b60201c565b505050565b60008151905060006a636f6e736f6c652e6c6f679050602083016000808483855afa5050505050565b82805462000255906200058f565b90600052602060002090601f016020900481019282620002795760008555620002c5565b82601f106200029457805160ff1916838001178555620002c5565b82800160010185558215620002c5579182015b82811115620002c4578251825591602001919060010190620002a7565b5b509050620002d49190620002d8565b5090565b5b80821115620002f3576000816000905550600101620002d9565b5090565b60006200030e6200030884620004d6565b620004a2565b9050828152602081018484840111156200032757600080fd5b6200033484828562000559565b509392505050565b6000815190506200034d8162000634565b92915050565b600082601f8301126200036557600080fd5b815162000377848260208601620002f7565b91505092915050565b600080600080608085870312156200039757600080fd5b600085015167ffffffffffffffff811115620003b257600080fd5b620003c08782880162000353565b9450506020620003d3878288016200033c565b9350506040620003e6878288016200033c565b9250506060620003f9878288016200033c565b91505092959194509250565b620004108162000525565b82525050565b6000620004238262000509565b6200042f818562000514565b93506200044181856020860162000559565b6200044c8162000623565b840191505092915050565b6000606082019050818103600083015262000473818662000416565b9050818103602083015262000489818562000416565b90506200049a604083018462000405565b949350505050565b6000604051905081810181811067ffffffffffffffff82111715620004cc57620004cb620005f4565b5b8060405250919050565b600067ffffffffffffffff821115620004f457620004f3620005f4565b5b601f19601f8301169050602081019050919050565b600081519050919050565b600082825260208201905092915050565b6000620005328262000539565b9050919050565b600073ffffffffffffffffffffffffffffffffffffffff82169050919050565b60005b83811015620005795780820151818401526020810190506200055c565b8381111562000589576000848401525b50505050565b60006002820490506001821680620005a857607f821691505b60208210811415620005bf57620005be620005c5565b5b50919050565b7f4e487b7100000000000000000000000000000000000000000000000000000000600052602260045260246000fd5b7f4e487b7100000000000000000000000000000000000000000000000000000000600052604160045260246000fd5b6000601f19601f8301169050919050565b6200063f8162000525565b81146200064b57600080fd5b50565b612162806200065e6000396000f3fe6080604052600436106100f35760003560e01c8063cf8d8ca01161008a578063f0d23e8f11610059578063f0d23e8f146102ce578063f851a4401461030b578063f8b2cb4f14610336578063ff4472c614610373576100f3565b8063cf8d8ca014610240578063dc87c3af1461026b578063df791e5014610287578063f044882b146102a3576100f3565b806369328dec116100c657806369328dec14610198578063703d795c146101c1578063a158657c146101ec578063a44026a314610215576100f3565b80630f4d14e9146100f85780631031cb5f1461011457806347e7ef24146101515780635fe3b5671461016d575b600080fd5b610112600480360381019061010d91906118c5565b61038f565b005b34801561012057600080fd5b5061013b60048036038101906101369190611770565b61039b565b6040516101489190611f1c565b60405180910390f35b61016b60048036038101906101669190611811565b61042d565b005b34801561017957600080fd5b506101826105da565b60405161018f9190611cd4565b60405180910390f35b3480156101a457600080fd5b506101bf60048036038101906101ba919061184d565b6105fe565b005b3480156101cd57600080fd5b506101d66108ba565b6040516101e39190611f1c565b60405180910390f35b3480156101f857600080fd5b50610213600480360381019061020e9190611917565b61096e565b005b34801561022157600080fd5b5061022a610b8b565b6040516102379190611cb9565b60405180910390f35b34801561024c57600080fd5b50610255610bb1565b6040516102629190611cef565b60405180910390f35b610285600480360381019061028091906117c2565b610c3f565b005b6102a1600480360381019061029c91906117c2565b610c44565b005b3480156102af57600080fd5b506102b8610c49565b6040516102c59190611cef565b60405180910390f35b3480156102da57600080fd5b506102f560048036038101906102f09190611770565b610cdb565b6040516103029190611f1c565b60405180910390f35b34801561031757600080fd5b50610320610d6f565b60405161032d9190611c15565b60405180910390f35b34801561034257600080fd5b5061035d60048036038101906103589190611770565b610d95565b60405161036a9190611f1c565b60405180910390f35b61038d60048036038101906103889190611770565b610da7565b005b61039881610e49565b50565b60008173ffffffffffffffffffffffffffffffffffffffff166370a08231306040518263ffffffff1660e01b81526004016103d69190611c15565b60206040518083038186803b1580156103ee57600080fd5b505afa158015610402573d6000803e3d6000fd5b505050506040513d601f19601f8201168201806040525081019061042691906118ee565b9050919050565b61046e6040518060400160405280601181526020017f6465706f7369742063616c6c6564202d20000000000000000000000000000000815250838333610ecf565b600061047983610f71565b90506104ba6040518060400160405280601581526020017f6465706f73697420756e6465726c79696e67202d20000000000000000000000081525082610ff8565b8073ffffffffffffffffffffffffffffffffffffffff166323b872dd3330856040518463ffffffff1660e01b81526004016104f793929190611c59565b602060405180830381600087803b15801561051157600080fd5b505af1158015610525573d6000803e3d6000fd5b505050506040513d601f19601f82011682018060405250810190610549919061189c565b5061058b6040518060400160405280600e81526020017f7472616e736665722066726f6d20000000000000000000000000000000000000815250333085611094565b6105958383611136565b6105d56040518060400160405280600981526020017f737570706c6965642000000000000000000000000000000000000000000000008152508484611324565b505050565b60008054906101000a900473ffffffffffffffffffffffffffffffffffffffff1681565b600260009054906101000a900473ffffffffffffffffffffffffffffffffffffffff1673ffffffffffffffffffffffffffffffffffffffff163373ffffffffffffffffffffffffffffffffffffffff161461068e576040517f08c379a000000000000000000000000000000000000000000000000000000000815260040161068590611e5c565b60405180910390fd5b8161069884610cdb565b116106d8576040517f08c379a00000000000000000000000000000000000000000000000000000000081526004016106cf90611e7c565b60405180910390fd5b6106e06113c3565b6106ea8383611450565b60006106f584610f71565b90508073ffffffffffffffffffffffffffffffffffffffff1663a9059cbb83856040518363ffffffff1660e01b8152600401610732929190611c90565b602060405180830381600087803b15801561074c57600080fd5b505af1158015610760573d6000803e3d6000fd5b505050506040513d601f19601f82011682018060405250810190610784919061189c565b50600061078f61152d565b9050600081905060008173ffffffffffffffffffffffffffffffffffffffff166370a08231306040518263ffffffff1660e01b81526004016107d19190611c15565b60206040518083038186803b1580156107e957600080fd5b505afa1580156107fd573d6000803e3d6000fd5b505050506040513d601f19601f8201168201806040525081019061082191906118ee565b90508173ffffffffffffffffffffffffffffffffffffffff1663a9059cbb86836040518363ffffffff1660e01b815260040161085e929190611c90565b602060405180830381600087803b15801561087857600080fd5b505af115801561088c573d6000803e3d6000fd5b505050506040513d601f19601f820116820180604052508101906108b0919061189c565b5050505050505050565b6000600160009054906101000a900473ffffffffffffffffffffffffffffffffffffffff1673ffffffffffffffffffffffffffffffffffffffff16633af9e669306040518263ffffffff1660e01b81526004016109179190611c15565b602060405180830381600087803b15801561093157600080fd5b505af1158015610945573d6000803e3d6000fd5b505050506040513d601f19601f8201168201806040525081019061096991906118ee565b905090565b600260009054906101000a900473ffffffffffffffffffffffffffffffffffffffff1673ffffffffffffffffffffffffffffffffffffffff163373ffffffffffffffffffffffffffffffffffffffff16146109fe576040517f08c379a00000000000000000000000000000000000000000000000000000000081526004016109f590611e5c565b60405180910390fd5b81610a076108ba565b11610a47576040517f08c379a0000000000000000000000000000000000000000000000000000000008152600401610a3e90611e9c565b60405180910390fd5b610a4f6113c3565b610a58826115d3565b6000610a6261152d565b9050600081905060008173ffffffffffffffffffffffffffffffffffffffff166370a08231306040518263ffffffff1660e01b8152600401610aa49190611c15565b60206040518083038186803b158015610abc57600080fd5b505afa158015610ad0573d6000803e3d6000fd5b505050506040513d601f19601f82011682018060405250810190610af491906118ee565b90508173ffffffffffffffffffffffffffffffffffffffff1663a9059cbb85836040518363ffffffff1660e01b8152600401610b31929190611c30565b602060405180830381600087803b158015610b4b57600080fd5b505af1158015610b5f573d6000803e3d6000fd5b505050506040513d601f19601f82011682018060405250810190610b83919061189c565b505050505050565b600160009054906101000a900473ffffffffffffffffffffffffffffffffffffffff1681565b60038054610bbe9061205e565b80601f0160208091040260200160405190810160405280929190818152602001828054610bea9061205e565b8015610c375780601f10610c0c57610100808354040283529160200191610c37565b820191906000526020600020905b815481529060010190602001808311610c1a57829003601f168201915b505050505081565b505050565b505050565b606060038054610c589061205e565b80601f0160208091040260200160405190810160405280929190818152602001828054610c849061205e565b8015610cd15780601f10610ca657610100808354040283529160200191610cd1565b820191906000526020600020905b815481529060010190602001808311610cb457829003601f168201915b5050505050905090565b60008173ffffffffffffffffffffffffffffffffffffffff16633af9e669306040518263ffffffff1660e01b8152600401610d169190611c15565b602060405180830381600087803b158015610d3057600080fd5b505af1158015610d44573d6000803e3d6000fd5b505050506040513d601f19601f82011682018060405250810190610d6891906118ee565b9050919050565b600260009054906101000a900473ffffffffffffffffffffffffffffffffffffffff1681565b6000610da082610cdb565b9050919050565b50565b610e44838383604051602401610dc293929190611e17565b6040516020818303038152906040527f95ed0195000000000000000000000000000000000000000000000000000000007bffffffffffffffffffffffffffffffffffffffffffffffffffffffff19166020820180517bffffffffffffffffffffffffffffffffffffffffffffffffffffffff83818316178352505050506116c9565b505050565b600160009054906101000a900473ffffffffffffffffffffffffffffffffffffffff1673ffffffffffffffffffffffffffffffffffffffff16631249c58b826040518263ffffffff1660e01b81526004016000604051808303818588803b158015610eb357600080fd5b505af1158015610ec7573d6000803e3d6000fd5b505050505050565b610f6b84848484604051602401610ee99493929190611dcb565b6040516020818303038152906040527fa366ec80000000000000000000000000000000000000000000000000000000007bffffffffffffffffffffffffffffffffffffffffffffffffffffffff19166020820180517bffffffffffffffffffffffffffffffffffffffffffffffffffffffff83818316178352505050506116c9565b50505050565b60008173ffffffffffffffffffffffffffffffffffffffff16636f307dc36040518163ffffffff1660e01b815260040160206040518083038186803b158015610fb957600080fd5b505afa158015610fcd573d6000803e3d6000fd5b505050506040513d601f19601f82011682018060405250810190610ff19190611799565b9050919050565b611090828260405160240161100e929190611d11565b6040516020818303038152906040527f319af333000000000000000000000000000000000000000000000000000000007bffffffffffffffffffffffffffffffffffffffffffffffffffffffff19166020820180517bffffffffffffffffffffffffffffffffffffffffffffffffffffffff83818316178352505050506116c9565b5050565b611130848484846040516024016110ae9493929190611d41565b6040516020818303038152906040527f6eb7943d000000000000000000000000000000000000000000000000000000007bffffffffffffffffffffffffffffffffffffffffffffffffffffffff19166020820180517bffffffffffffffffffffffffffffffffffffffffffffffffffffffff83818316178352505050506116c9565b50505050565b600082905060008173ffffffffffffffffffffffffffffffffffffffff16636f307dc36040518163ffffffff1660e01b815260040160206040518083038186803b15801561118357600080fd5b505afa158015611197573d6000803e3d6000fd5b505050506040513d601f19601f820116820180604052508101906111bb9190611799565b90508073ffffffffffffffffffffffffffffffffffffffff1663095ea7b385856040518363ffffffff1660e01b81526004016111f8929190611c90565b602060405180830381600087803b15801561121257600080fd5b505af1158015611226573d6000803e3d6000fd5b505050506040513d601f19601f8201168201806040525081019061124a919061189c565b5060008273ffffffffffffffffffffffffffffffffffffffff1663a0712d68856040518263ffffffff1660e01b81526004016112869190611f1c565b602060405180830381600087803b1580156112a057600080fd5b505af11580156112b4573d6000803e3d6000fd5b505050506040513d601f19601f820116820180604052508101906112d891906118ee565b90506000811461131d576040517f08c379a000000000000000000000000000000000000000000000000000000000815260040161131490611edc565b60405180910390fd5b5050505050565b6113be83838360405160240161133c93929190611d8d565b6040516020818303038152906040527f07c81217000000000000000000000000000000000000000000000000000000007bffffffffffffffffffffffffffffffffffffffffffffffffffffffff19166020820180517bffffffffffffffffffffffffffffffffffffffffffffffffffffffff83818316178352505050506116c9565b505050565b60008054906101000a900473ffffffffffffffffffffffffffffffffffffffff1673ffffffffffffffffffffffffffffffffffffffff1663e9af0292306040518263ffffffff1660e01b815260040161141c9190611c15565b600060405180830381600087803b15801561143657600080fd5b505af115801561144a573d6000803e3d6000fd5b50505050565b600082905060008173ffffffffffffffffffffffffffffffffffffffff1663852a12e3846040518263ffffffff1660e01b81526004016114909190611f1c565b602060405180830381600087803b1580156114aa57600080fd5b505af11580156114be573d6000803e3d6000fd5b505050506040513d601f19601f820116820180604052508101906114e291906118ee565b905060008114611527576040517f08c379a000000000000000000000000000000000000000000000000000000000815260040161151e90611ebc565b60405180910390fd5b50505050565b60008060009054906101000a900473ffffffffffffffffffffffffffffffffffffffff1673ffffffffffffffffffffffffffffffffffffffff16639d1b5a0a6040518163ffffffff1660e01b815260040160206040518083038186803b15801561159657600080fd5b505afa1580156115aa573d6000803e3d6000fd5b505050506040513d601f19601f820116820180604052508101906115ce9190611799565b905090565b6000600160009054906101000a900473ffffffffffffffffffffffffffffffffffffffff1673ffffffffffffffffffffffffffffffffffffffff1663852a12e3836040518263ffffffff1660e01b81526004016116309190611f1c565b60206040518083038186803b15801561164857600080fd5b505afa15801561165c573d6000803e3d6000fd5b505050506040513d601f19601f8201168201806040525081019061168091906118ee565b9050600081146116c5576040517f08c379a00000000000000000000000000000000000000000000000000000000081526004016116bc90611efc565b60405180910390fd5b5050565b60008151905060006a636f6e736f6c652e6c6f679050602083016000808483855afa5050505050565b600081359050611701816120d0565b92915050565b600081519050611716816120d0565b92915050565b60008135905061172b816120e7565b92915050565b600081519050611740816120fe565b92915050565b60008135905061175581612115565b92915050565b60008151905061176a81612115565b92915050565b60006020828403121561178257600080fd5b6000611790848285016116f2565b91505092915050565b6000602082840312156117ab57600080fd5b60006117b984828501611707565b91505092915050565b6000806000606084860312156117d757600080fd5b60006117e5868287016116f2565b93505060206117f6868287016116f2565b925050604061180786828701611746565b9150509250925092565b6000806040838503121561182457600080fd5b6000611832858286016116f2565b925050602061184385828601611746565b9150509250929050565b60008060006060848603121561186257600080fd5b6000611870868287016116f2565b935050602061188186828701611746565b9250506040611892868287016116f2565b9150509250925092565b6000602082840312156118ae57600080fd5b60006118bc84828501611731565b91505092915050565b6000602082840312156118d757600080fd5b60006118e584828501611746565b91505092915050565b60006020828403121561190057600080fd5b600061190e8482850161175b565b91505092915050565b6000806040838503121561192a57600080fd5b600061193885828601611746565b92505060206119498582860161171c565b9150509250929050565b61195c81611fad565b82525050565b61196b81611f53565b82525050565b61197a81611fbf565b82525050565b61198981611fe3565b82525050565b600061199a82611f37565b6119a48185611f42565b93506119b481856020860161202b565b6119bd816120bf565b840191505092915050565b60006119d5600a83611f42565b91507f6f6e6c792061646d696e000000000000000000000000000000000000000000006000830152602082019050919050565b6000611a15600b83611f42565b91507f62616c20746f6f206c6f770000000000000000000000000000000000000000006000830152602082019050919050565b6000611a55600f83611f42565b91507f6574682062616c20746f6f206c6f7700000000000000000000000000000000006000830152602082019050919050565b6000611a95605183611f42565b91507f63546f6b656e2372656465656d556e6465726c79696e672829206661696c656460008301527f2e2073656520436f6d706f756e64204572726f725265706f727465722e736f6c60208301527f20666f72206d6f72652064657461696c730000000000000000000000000000006040830152606082019050919050565b6000611b21604083611f42565b91507f63546f6b656e236d696e742829206661696c65642e2073656520436f6d706f7560008301527f6e64204572726f725265706f727465722e736f6c20666f722064657461696c736020830152604082019050919050565b6000611b87604f83611f42565b91507f634574682372656465656d556e6465726c79696e672829206661696c65642e2060008301527f73656520436f6d706f756e64204572726f725265706f727465722e736f6c206660208301527f6f72206d6f72652064657461696c7300000000000000000000000000000000006040830152606082019050919050565b611c0f81611fa3565b82525050565b6000602082019050611c2a6000830184611962565b92915050565b6000604082019050611c456000830185611953565b611c526020830184611c06565b9392505050565b6000606082019050611c6e6000830186611962565b611c7b6020830185611962565b611c886040830184611c06565b949350505050565b6000604082019050611ca56000830185611962565b611cb26020830184611c06565b9392505050565b6000602082019050611cce6000830184611971565b92915050565b6000602082019050611ce96000830184611980565b92915050565b60006020820190508181036000830152611d09818461198f565b905092915050565b60006040820190508181036000830152611d2b818561198f565b9050611d3a6020830184611962565b9392505050565b60006080820190508181036000830152611d5b818761198f565b9050611d6a6020830186611962565b611d776040830185611962565b611d846060830184611c06565b95945050505050565b60006060820190508181036000830152611da7818661198f565b9050611db66020830185611962565b611dc36040830184611c06565b949350505050565b60006080820190508181036000830152611de5818761198f565b9050611df46020830186611962565b611e016040830185611c06565b611e0e6060830184611962565b95945050505050565b60006060820190508181036000830152611e31818661198f565b90508181036020830152611e45818561198f565b9050611e546040830184611962565b949350505050565b60006020820190508181036000830152611e75816119c8565b9050919050565b60006020820190508181036000830152611e9581611a08565b9050919050565b60006020820190508181036000830152611eb581611a48565b9050919050565b60006020820190508181036000830152611ed581611a88565b9050919050565b60006020820190508181036000830152611ef581611b14565b9050919050565b60006020820190508181036000830152611f1581611b7a565b9050919050565b6000602082019050611f316000830184611c06565b92915050565b600081519050919050565b600082825260208201905092915050565b6000611f5e82611f83565b9050919050565b6000611f7082611f83565b9050919050565b60008115159050919050565b600073ffffffffffffffffffffffffffffffffffffffff82169050919050565b6000819050919050565b6000611fb882612007565b9050919050565b6000611fca82611fd1565b9050919050565b6000611fdc82611f83565b9050919050565b6000611fee82611ff5565b9050919050565b600061200082611f83565b9050919050565b600061201282612019565b9050919050565b600061202482611f83565b9050919050565b60005b8381101561204957808201518184015260208101905061202e565b83811115612058576000848401525b50505050565b6000600282049050600182168061207657607f821691505b6020821081141561208a57612089612090565b5b50919050565b7f4e487b7100000000000000000000000000000000000000000000000000000000600052602260045260246000fd5b6000601f19601f8301169050919050565b6120d981611f53565b81146120e457600080fd5b50565b6120f081611f65565b81146120fb57600080fd5b50565b61210781611f77565b811461211257600080fd5b50565b61211e81611fa3565b811461212957600080fd5b5056fea2646970667358221220bc5e7bc62dc6cde60ee98e9f44bf4c332165fe69aa77e6162d7d0d88ef03070b64736f6c63430008000033a2646970667358221220798f8f0547e8c8e75411219fe0972f4094d8f38b7e1c02ab8f03be0f58e5f37364736f6c63430008000033",
  "linkReferences": {},
  "deployedLinkReferences": {}
}