{
  "_format": "hh-sol-artifact-1",
  "contractName": "DaoWorkstream",
  "sourceName": "contracts/DaoPayTreasury.sol",
  "abi": [
    {
      "inputs": [
        {
          "internalType": "string",
          "name": "_workstreamName",
          "type": "string"
        },
        {
          "internalType": "address",
          "name": "_daoOwner",
          "type": "address"
        },
        {
          "internalType": "address",
          "name": "_workstreamOwner",
          "type": "address"
        },
        {
          "internalType": "address payable",
          "name": "_daoToken",
          "type": "address"
        }
      ],
      "stateMutability": "nonpayable",
      "type": "constructor"
    },
    {
      "anonymous": false,
      "inputs": [
        {
          "indexed": false,
          "internalType": "string",
          "name": "str",
          "type": "string"
        },
        {
          "indexed": false,
          "internalType": "uint256",
          "name": "value",
          "type": "uint256"
        }
      ],
      "name": "ApprovedRequest",
      "type": "event"
    },
    {
      "anonymous": false,
      "inputs": [
        {
          "indexed": false,
          "internalType": "string",
          "name": "str",
          "type": "string"
        },
        {
          "indexed": false,
          "internalType": "uint256",
          "name": "value",
          "type": "uint256"
        }
      ],
      "name": "NewRequest",
      "type": "event"
    },
    {
      "anonymous": false,
      "inputs": [
        {
          "indexed": false,
          "internalType": "string",
          "name": "str",
          "type": "string"
        },
        {
          "indexed": false,
          "internalType": "uint256",
          "name": "value",
          "type": "uint256"
        }
      ],
      "name": "PaidRequest",
      "type": "event"
    },
    {
      "inputs": [
        {
          "internalType": "uint256",
          "name": "index",
          "type": "uint256"
        }
      ],
      "name": "approveRequest",
      "outputs": [],
      "stateMutability": "nonpayable",
      "type": "function"
    },
    {
      "inputs": [],
      "name": "balance",
      "outputs": [
        {
          "internalType": "uint256",
          "name": "",
          "type": "uint256"
        }
      ],
      "stateMutability": "view",
      "type": "function"
    },
    {
      "inputs": [
        {
          "internalType": "string",
          "name": "description",
          "type": "string"
        },
        {
          "internalType": "uint256",
          "name": "value",
          "type": "uint256"
        },
        {
          "internalType": "address payable",
          "name": "recipient",
          "type": "address"
        }
      ],
      "name": "createRequest",
      "outputs": [],
      "stateMutability": "nonpayable",
      "type": "function"
    },
    {
      "inputs": [],
      "name": "daoToken",
      "outputs": [
        {
          "internalType": "address payable",
          "name": "",
          "type": "address"
        }
      ],
      "stateMutability": "view",
      "type": "function"
    },
    {
      "inputs": [
        {
          "internalType": "address payable",
          "name": "to",
          "type": "address"
        },
        {
          "internalType": "uint256",
          "name": "amount",
          "type": "uint256"
        }
      ],
      "name": "execPayment",
      "outputs": [],
      "stateMutability": "nonpayable",
      "type": "function"
    },
    {
      "inputs": [],
      "name": "getDaoOwner",
      "outputs": [
        {
          "internalType": "address",
          "name": "",
          "type": "address"
        }
      ],
      "stateMutability": "view",
      "type": "function"
    },
    {
      "inputs": [
        {
          "internalType": "uint256",
          "name": "i",
          "type": "uint256"
        }
      ],
      "name": "getRequest",
      "outputs": [
        {
          "internalType": "uint256",
          "name": "id",
          "type": "uint256"
        },
        {
          "internalType": "string",
          "name": "",
          "type": "string"
        },
        {
          "internalType": "address",
          "name": "",
          "type": "address"
        },
        {
          "internalType": "uint256",
          "name": "",
          "type": "uint256"
        },
        {
          "internalType": "bool",
          "name": "",
          "type": "bool"
        },
        {
          "internalType": "bool",
          "name": "",
          "type": "bool"
        }
      ],
      "stateMutability": "view",
      "type": "function"
    },
    {
      "inputs": [],
      "name": "getRequestLength",
      "outputs": [
        {
          "internalType": "uint256",
          "name": "",
          "type": "uint256"
        }
      ],
      "stateMutability": "view",
      "type": "function"
    },
    {
      "inputs": [
        {
          "internalType": "uint256",
          "name": "i",
          "type": "uint256"
        }
      ],
      "name": "getRequestRecipient",
      "outputs": [
        {
          "internalType": "address",
          "name": "",
          "type": "address"
        }
      ],
      "stateMutability": "view",
      "type": "function"
    },
    {
      "inputs": [
        {
          "internalType": "uint256",
          "name": "i",
          "type": "uint256"
        }
      ],
      "name": "getRequestValue",
      "outputs": [
        {
          "internalType": "uint256",
          "name": "",
          "type": "uint256"
        }
      ],
      "stateMutability": "view",
      "type": "function"
    },
    {
      "inputs": [],
      "name": "getSummary",
      "outputs": [
        {
          "internalType": "string",
          "name": "",
          "type": "string"
        },
        {
          "internalType": "address",
          "name": "",
          "type": "address"
        },
        {
          "internalType": "uint256",
          "name": "",
          "type": "uint256"
        },
        {
          "internalType": "uint256",
          "name": "",
          "type": "uint256"
        },
        {
          "internalType": "uint256",
          "name": "",
          "type": "uint256"
        },
        {
          "internalType": "uint256",
          "name": "",
          "type": "uint256"
        }
      ],
      "stateMutability": "view",
      "type": "function"
    },
    {
      "inputs": [],
      "name": "getWorkstreamName",
      "outputs": [
        {
          "internalType": "string",
          "name": "",
          "type": "string"
        }
      ],
      "stateMutability": "view",
      "type": "function"
    },
    {
      "inputs": [],
      "name": "getWorkstreamOwner",
      "outputs": [
        {
          "internalType": "address",
          "name": "",
          "type": "address"
        }
      ],
      "stateMutability": "view",
      "type": "function"
    },
    {
      "inputs": [
        {
          "internalType": "uint256",
          "name": "index",
          "type": "uint256"
        }
      ],
      "name": "payRequest",
      "outputs": [
        {
          "internalType": "bool",
          "name": "",
          "type": "bool"
        }
      ],
      "stateMutability": "nonpayable",
      "type": "function"
    },
    {
      "inputs": [],
      "name": "pendingBalance",
      "outputs": [
        {
          "internalType": "uint256",
          "name": "",
          "type": "uint256"
        }
      ],
      "stateMutability": "view",
      "type": "function"
    },
    {
      "inputs": [],
      "name": "pendingRequestCount",
      "outputs": [
        {
          "internalType": "uint256",
          "name": "",
          "type": "uint256"
        }
      ],
      "stateMutability": "view",
      "type": "function"
    },
    {
      "inputs": [
        {
          "internalType": "uint256",
          "name": "",
          "type": "uint256"
        }
      ],
      "name": "requests",
      "outputs": [
        {
          "internalType": "uint256",
          "name": "id",
          "type": "uint256"
        },
        {
          "internalType": "string",
          "name": "description",
          "type": "string"
        },
        {
          "internalType": "uint256",
          "name": "value",
          "type": "uint256"
        },
        {
          "internalType": "address payable",
          "name": "recipient",
          "type": "address"
        },
        {
          "internalType": "bool",
          "name": "approved",
          "type": "bool"
        },
        {
          "internalType": "bool",
          "name": "paid",
          "type": "bool"
        }
      ],
      "stateMutability": "view",
      "type": "function"
    },
    {
      "inputs": [],
      "name": "totalBalance",
      "outputs": [
        {
          "internalType": "uint256",
          "name": "",
          "type": "uint256"
        }
      ],
      "stateMutability": "view",
      "type": "function"
    },
    {
      "inputs": [],
      "name": "workstreamName",
      "outputs": [
        {
          "internalType": "string",
          "name": "",
          "type": "string"
        }
      ],
      "stateMutability": "view",
      "type": "function"
    }
  ],
  "bytecode": "0x60806040523480156200001157600080fd5b50604051620020f0380380620020f083398181016040528101906200003791906200026c565b82600160006101000a81548173ffffffffffffffffffffffffffffffffffffffff021916908373ffffffffffffffffffffffffffffffffffffffff1602179055508360029080519060200190620000909291906200011c565b5080600360006101000a81548173ffffffffffffffffffffffffffffffffffffffff021916908373ffffffffffffffffffffffffffffffffffffffff160217905550816000806101000a81548173ffffffffffffffffffffffffffffffffffffffff021916908373ffffffffffffffffffffffffffffffffffffffff160217905550505050506200049e565b8280546200012a90620003d6565b90600052602060002090601f0160209004810192826200014e57600085556200019a565b82601f106200016957805160ff19168380011785556200019a565b828001600101855582156200019a579182015b82811115620001995782518255916020019190600101906200017c565b5b509050620001a99190620001ad565b5090565b5b80821115620001c8576000816000905550600101620001ae565b5090565b6000620001e3620001dd8462000325565b620002f1565b905082815260208101848484011115620001fc57600080fd5b62000209848285620003a0565b509392505050565b60008151905062000222816200046a565b92915050565b600081519050620002398162000484565b92915050565b600082601f8301126200025157600080fd5b815162000263848260208601620001cc565b91505092915050565b600080600080608085870312156200028357600080fd5b600085015167ffffffffffffffff8111156200029e57600080fd5b620002ac878288016200023f565b9450506020620002bf8782880162000211565b9350506040620002d28782880162000211565b9250506060620002e58782880162000228565b91505092959194509250565b6000604051905081810181811067ffffffffffffffff821117156200031b576200031a6200043b565b5b8060405250919050565b600067ffffffffffffffff8211156200034357620003426200043b565b5b601f19601f8301169050602081019050919050565b6000620003658262000380565b9050919050565b6000620003798262000380565b9050919050565b600073ffffffffffffffffffffffffffffffffffffffff82169050919050565b60005b83811015620003c0578082015181840152602081019050620003a3565b83811115620003d0576000848401525b50505050565b60006002820490506001821680620003ef57607f821691505b602082108114156200040657620004056200040c565b5b50919050565b7f4e487b7100000000000000000000000000000000000000000000000000000000600052602260045260246000fd5b7f4e487b7100000000000000000000000000000000000000000000000000000000600052604160045260246000fd5b620004758162000358565b81146200048157600080fd5b50565b6200048f816200036c565b81146200049b57600080fd5b50565b611c4280620004ae6000396000f3fe608060405234801561001057600080fd5b50600436106101215760003560e01c806363d4dd3b116100ad578063c11c4cfc11610071578063c11c4cfc1461031a578063c58343ef14610338578063d7d1bbdb1461036d578063dd71e3ac14610389578063e0abba57146103a557610121565b806363d4dd3b1461025d57806381d12c581461028d5780638a9cfd55146102c2578063ad7a672f146102de578063b69ef8a8146102fc57610121565b80634914b030116100f45780634914b030146101a3578063519198ca146101c157806353bf1de0146101f157806357b4d18e1461020f5780635b8575a91461022d57610121565b80632a881d6414610126578063319befc71461014457806340059bd7146101625780634051ddac14610180575b600080fd5b61012e6103c3565b60405161013b919061166c565b60405180910390f35b61014c6103ed565b604051610159919061166c565b60405180910390f35b61016a610416565b60405161017791906116f4565b60405180910390f35b6101886104a4565b60405161019a96959493929190611716565b60405180910390f35b6101ab610580565b6040516101b89190611687565b60405180910390f35b6101db60048036038101906101d69190611496565b6105a6565b6040516101e8919061181e565b60405180910390f35b6101f96105fb565b604051610206919061181e565b60405180910390f35b610217610608565b604051610224919061181e565b60405180910390f35b61024760048036038101906102429190611496565b61060e565b604051610254919061166c565b60405180910390f35b61027760048036038101906102729190611496565b610683565b60405161028491906116d9565b60405180910390f35b6102a760048036038101906102a29190611496565b6108c5565b6040516102b9969594939291906118a1565b60405180910390f35b6102dc60048036038101906102d7919061142f565b6109d3565b005b6102e6610b96565b6040516102f3919061181e565b60405180910390f35b610304610b9c565b604051610311919061181e565b60405180910390f35b610322610c70565b60405161032f91906116f4565b60405180910390f35b610352600480360381019061034d9190611496565b610d02565b60405161036496959493929190611839565b60405180910390f35b61038760048036038101906103829190611496565b610fae565b005b6103a3600480360381019061039e91906113ca565b61118d565b005b6103ad611265565b6040516103ba919061181e565b60405180910390f35b6000600160009054906101000a900473ffffffffffffffffffffffffffffffffffffffff16905090565b60008060009054906101000a900473ffffffffffffffffffffffffffffffffffffffff16905090565b6002805461042390611af7565b80601f016020809104026020016040519081016040528092919081815260200182805461044f90611af7565b801561049c5780601f106104715761010080835404028352916020019161049c565b820191906000526020600020905b81548152906001019060200180831161047f57829003601f168201915b505050505081565b60606000806000806000600260008054906101000a900473ffffffffffffffffffffffffffffffffffffffff166007546004805490506006546005548580546104ec90611af7565b80601f016020809104026020016040519081016040528092919081815260200182805461051890611af7565b80156105655780601f1061053a57610100808354040283529160200191610565565b820191906000526020600020905b81548152906001019060200180831161054857829003601f168201915b50505050509550955095509550955095509550909192939495565b600360009054906101000a900473ffffffffffffffffffffffffffffffffffffffff1681565b6000600482815481106105e2577f4e487b7100000000000000000000000000000000000000000000000000000000600052603260045260246000fd5b9060005260206000209060040201600201549050919050565b6000600480549050905090565b60065481565b60006004828154811061064a577f4e487b7100000000000000000000000000000000000000000000000000000000600052603260045260246000fd5b906000526020600020906004020160030160009054906101000a900473ffffffffffffffffffffffffffffffffffffffff169050919050565b6000600482815481106106bf577f4e487b7100000000000000000000000000000000000000000000000000000000600052603260045260246000fd5b906000526020600020906004020160030160149054906101000a900460ff166001151581151514610725576040517f08c379a000000000000000000000000000000000000000000000000000000000815260040161071c906117de565b60405180910390fd5b600160048481548110610761577f4e487b7100000000000000000000000000000000000000000000000000000000600052603260045260246000fd5b906000526020600020906004020160030160156101000a81548160ff021916908315150217905550600483815481106107c3577f4e487b7100000000000000000000000000000000000000000000000000000000600052603260045260246000fd5b906000526020600020906004020160020154600660008282546107e691906119f1565b925050819055507fe5cb0de7ffb63d788eceaabfe89c9e0f284c05dcfc5a672837508cc8b8da9c1d60048481548110610848577f4e487b7100000000000000000000000000000000000000000000000000000000600052603260045260246000fd5b906000526020600020906004020160010160048581548110610893577f4e487b7100000000000000000000000000000000000000000000000000000000600052603260045260246000fd5b9060005260206000209060040201600201546040516108b39291906117ae565b60405180910390a16001915050919050565b600481815481106108d557600080fd5b90600052602060002090600402016000915090508060000154908060010180546108fe90611af7565b80601f016020809104026020016040519081016040528092919081815260200182805461092a90611af7565b80156109775780601f1061094c57610100808354040283529160200191610977565b820191906000526020600020905b81548152906001019060200180831161095a57829003601f168201915b5050505050908060020154908060030160009054906101000a900473ffffffffffffffffffffffffffffffffffffffff16908060030160149054906101000a900460ff16908060030160159054906101000a900460ff16905086565b60006040518060c0016040528060048054905081526020018581526020018481526020018373ffffffffffffffffffffffffffffffffffffffff1681526020016000151581526020016000151581525090508260056000828254610a37919061199b565b925050819055508260066000828254610a50919061199b565b92505081905550600160076000828254610a6a919061199b565b925050819055506004819080600181540180825580915050600190039060005260206000209060040201600090919091909150600082015181600001556020820151816001019080519060200190610ac392919061126b565b506040820151816002015560608201518160030160006101000a81548173ffffffffffffffffffffffffffffffffffffffff021916908373ffffffffffffffffffffffffffffffffffffffff16021790555060808201518160030160146101000a81548160ff02191690831515021790555060a08201518160030160156101000a81548160ff02191690831515021790555050507f83d9cf902acb7b02aa62f18822d92bb65d3ecf930d0e3b98c6575a0e8dc542948484604051610b8892919061177e565b60405180910390a150505050565b60055481565b6000600360009054906101000a900473ffffffffffffffffffffffffffffffffffffffff1673ffffffffffffffffffffffffffffffffffffffff166370a08231600160009054906101000a900473ffffffffffffffffffffffffffffffffffffffff166040518263ffffffff1660e01b8152600401610c1b919061166c565b60206040518083038186803b158015610c3357600080fd5b505afa158015610c47573d6000803e3d6000fd5b505050506040513d601f19601f82011682018060405250810190610c6b91906114bf565b905090565b606060028054610c7f90611af7565b80601f0160208091040260200160405190810160405280929190818152602001828054610cab90611af7565b8015610cf85780601f10610ccd57610100808354040283529160200191610cf8565b820191906000526020600020905b815481529060010190602001808311610cdb57829003601f168201915b5050505050905090565b6000606060008060008060048781548110610d46577f4e487b7100000000000000000000000000000000000000000000000000000000600052603260045260246000fd5b90600052602060002090600402016000015460048881548110610d92577f4e487b7100000000000000000000000000000000000000000000000000000000600052603260045260246000fd5b906000526020600020906004020160010160048981548110610ddd577f4e487b7100000000000000000000000000000000000000000000000000000000600052603260045260246000fd5b906000526020600020906004020160030160009054906101000a900473ffffffffffffffffffffffffffffffffffffffff1660048a81548110610e49577f4e487b7100000000000000000000000000000000000000000000000000000000600052603260045260246000fd5b90600052602060002090600402016002015460048b81548110610e95577f4e487b7100000000000000000000000000000000000000000000000000000000600052603260045260246000fd5b906000526020600020906004020160030160149054906101000a900460ff1660048c81548110610eee577f4e487b7100000000000000000000000000000000000000000000000000000000600052603260045260246000fd5b906000526020600020906004020160030160159054906101000a900460ff16848054610f1990611af7565b80601f0160208091040260200160405190810160405280929190818152602001828054610f4590611af7565b8015610f925780601f10610f6757610100808354040283529160200191610f92565b820191906000526020600020905b815481529060010190602001808311610f7557829003601f168201915b5050505050945095509550955095509550955091939550919395565b600160009054906101000a900473ffffffffffffffffffffffffffffffffffffffff1673ffffffffffffffffffffffffffffffffffffffff163373ffffffffffffffffffffffffffffffffffffffff161461103e576040517f08c379a0000000000000000000000000000000000000000000000000000000008152600401611035906117fe565b60405180910390fd5b60016004828154811061107a577f4e487b7100000000000000000000000000000000000000000000000000000000600052603260045260246000fd5b906000526020600020906004020160030160146101000a81548160ff0219169083151502179055506001600760008282546110b591906119f1565b925050819055507f692b1741b55de15ddb2f2d0705372b4c5036e08678ecc135972ecfbd83bd453b60048281548110611117577f4e487b7100000000000000000000000000000000000000000000000000000000600052603260045260246000fd5b906000526020600020906004020160010160048381548110611162577f4e487b7100000000000000000000000000000000000000000000000000000000600052603260045260246000fd5b9060005260206000209060040201600201546040516111829291906117ae565b60405180910390a150565b600360009054906101000a900473ffffffffffffffffffffffffffffffffffffffff1673ffffffffffffffffffffffffffffffffffffffff166323b872dd600160009054906101000a900473ffffffffffffffffffffffffffffffffffffffff1684846040518463ffffffff1660e01b815260040161120e939291906116a2565b602060405180830381600087803b15801561122857600080fd5b505af115801561123c573d6000803e3d6000fd5b505050506040513d601f19601f820116820180604052508101906112609190611406565b505050565b60075481565b82805461127790611af7565b90600052602060002090601f01602090048101928261129957600085556112e0565b82601f106112b257805160ff19168380011785556112e0565b828001600101855582156112e0579182015b828111156112df5782518255916020019190600101906112c4565b5b5090506112ed91906112f1565b5090565b5b8082111561130a5760008160009055506001016112f2565b5090565b600061132161131c8461193a565b611909565b90508281526020810184848401111561133957600080fd5b611344848285611ab5565b509392505050565b60008135905061135b81611bc7565b92915050565b60008151905061137081611bde565b92915050565b600082601f83011261138757600080fd5b813561139784826020860161130e565b91505092915050565b6000813590506113af81611bf5565b92915050565b6000815190506113c481611bf5565b92915050565b600080604083850312156113dd57600080fd5b60006113eb8582860161134c565b92505060206113fc858286016113a0565b9150509250929050565b60006020828403121561141857600080fd5b600061142684828501611361565b91505092915050565b60008060006060848603121561144457600080fd5b600084013567ffffffffffffffff81111561145e57600080fd5b61146a86828701611376565b935050602061147b868287016113a0565b925050604061148c8682870161134c565b9150509250925092565b6000602082840312156114a857600080fd5b60006114b6848285016113a0565b91505092915050565b6000602082840312156114d157600080fd5b60006114df848285016113b5565b91505092915050565b6114f181611a7f565b82525050565b61150081611a37565b82525050565b61150f81611a25565b82525050565b61151e81611a49565b82525050565b600061152f8261197f565b611539818561198a565b9350611549818560208601611ac4565b61155281611bb6565b840191505092915050565b6000815461156a81611af7565b611574818661198a565b9450600182166000811461158f57600181146115a1576115d4565b60ff19831686526020860193506115d4565b6115aa8561196a565b60005b838110156115cc578154818901526001820191506020810190506115ad565b808801955050505b50505092915050565b60006115ea600c8361198a565b91507f4e4f5420617070726f76656400000000000000000000000000000000000000006000830152602082019050919050565b600061162a600e8361198a565b91507f6f6e6c792064616f206f776e65720000000000000000000000000000000000006000830152602082019050919050565b61166681611a75565b82525050565b60006020820190506116816000830184611506565b92915050565b600060208201905061169c60008301846114f7565b92915050565b60006060820190506116b76000830186611506565b6116c460208301856114e8565b6116d1604083018461165d565b949350505050565b60006020820190506116ee6000830184611515565b92915050565b6000602082019050818103600083015261170e8184611524565b905092915050565b600060c08201905081810360008301526117308189611524565b905061173f6020830188611506565b61174c604083018761165d565b611759606083018661165d565b611766608083018561165d565b61177360a083018461165d565b979650505050505050565b600060408201905081810360008301526117988185611524565b90506117a7602083018461165d565b9392505050565b600060408201905081810360008301526117c8818561155d565b90506117d7602083018461165d565b9392505050565b600060208201905081810360008301526117f7816115dd565b9050919050565b600060208201905081810360008301526118178161161d565b9050919050565b6000602082019050611833600083018461165d565b92915050565b600060c08201905061184e600083018961165d565b81810360208301526118608188611524565b905061186f6040830187611506565b61187c606083018661165d565b6118896080830185611515565b61189660a0830184611515565b979650505050505050565b600060c0820190506118b6600083018961165d565b81810360208301526118c88188611524565b90506118d7604083018761165d565b6118e460608301866114f7565b6118f16080830185611515565b6118fe60a0830184611515565b979650505050505050565b6000604051905081810181811067ffffffffffffffff821117156119305761192f611b87565b5b8060405250919050565b600067ffffffffffffffff82111561195557611954611b87565b5b601f19601f8301169050602081019050919050565b60008190508160005260206000209050919050565b600081519050919050565b600082825260208201905092915050565b60006119a682611a75565b91506119b183611a75565b9250827fffffffffffffffffffffffffffffffffffffffffffffffffffffffffffffffff038211156119e6576119e5611b29565b5b828201905092915050565b60006119fc82611a75565b9150611a0783611a75565b925082821015611a1a57611a19611b29565b5b828203905092915050565b6000611a3082611a55565b9050919050565b6000611a4282611a55565b9050919050565b60008115159050919050565b600073ffffffffffffffffffffffffffffffffffffffff82169050919050565b6000819050919050565b6000611a8a82611a91565b9050919050565b6000611a9c82611aa3565b9050919050565b6000611aae82611a55565b9050919050565b82818337600083830152505050565b60005b83811015611ae2578082015181840152602081019050611ac7565b83811115611af1576000848401525b50505050565b60006002820490506001821680611b0f57607f821691505b60208210811415611b2357611b22611b58565b5b50919050565b7f4e487b7100000000000000000000000000000000000000000000000000000000600052601160045260246000fd5b7f4e487b7100000000000000000000000000000000000000000000000000000000600052602260045260246000fd5b7f4e487b7100000000000000000000000000000000000000000000000000000000600052604160045260246000fd5b6000601f19601f8301169050919050565b611bd081611a37565b8114611bdb57600080fd5b50565b611be781611a49565b8114611bf257600080fd5b50565b611bfe81611a75565b8114611c0957600080fd5b5056fea264697066735822122003ddf80360f3afa749db843551324c49d25a3ccabbd67a9b7eafd0570a51b7a664736f6c63430008000033",
  "linkReferences": {},
  "deployedLinkReferences": {}
}